{
	"Gamegrid.sol": {
		"GameGrid": {
			"abi": [
				{
					"anonymous": false,
					"inputs": [
						{
							"indexed": true,
							"internalType": "address",
							"name": "userAddress",
							"type": "address"
						},
						{
							"indexed": false,
							"internalType": "uint256",
							"name": "lvPoints",
							"type": "uint256"
						},
						{
							"indexed": false,
							"internalType": "uint256",
							"name": "ggPoints",
							"type": "uint256"
						}
					],
					"name": "PointsAdded",
					"type": "event"
				},
				{
					"anonymous": false,
					"inputs": [
						{
							"indexed": true,
							"internalType": "address",
							"name": "userAddress",
							"type": "address"
						},
						{
							"indexed": false,
							"internalType": "uint256",
							"name": "lvPoints",
							"type": "uint256"
						},
						{
							"indexed": false,
							"internalType": "uint256",
							"name": "ggPoints",
							"type": "uint256"
						}
					],
					"name": "PointsRemoved",
					"type": "event"
				},
				{
					"anonymous": false,
					"inputs": [
						{
							"indexed": true,
							"internalType": "address",
							"name": "userAddress",
							"type": "address"
						},
						{
							"indexed": false,
							"internalType": "string",
							"name": "userId",
							"type": "string"
						}
					],
					"name": "UserProfileCreated",
					"type": "event"
				},
				{
					"anonymous": false,
					"inputs": [
						{
							"indexed": true,
							"internalType": "address",
							"name": "userAddress",
							"type": "address"
						},
						{
							"indexed": false,
							"internalType": "string",
							"name": "userId",
							"type": "string"
						}
					],
					"name": "UserProfileUpdated",
					"type": "event"
				},
				{
					"inputs": [
						{
							"internalType": "uint256",
							"name": "_lvPoints",
							"type": "uint256"
						},
						{
							"internalType": "uint256",
							"name": "_ggPoints",
							"type": "uint256"
						}
					],
					"name": "addPoints",
					"outputs": [],
					"stateMutability": "nonpayable",
					"type": "function"
				},
				{
					"inputs": [
						{
							"internalType": "string",
							"name": "_username",
							"type": "string"
						},
						{
							"internalType": "string",
							"name": "_email",
							"type": "string"
						},
						{
							"internalType": "string",
							"name": "_class",
							"type": "string"
						},
						{
							"internalType": "string",
							"name": "_race",
							"type": "string"
						},
						{
							"internalType": "string",
							"name": "_gender",
							"type": "string"
						},
						{
							"internalType": "string",
							"name": "_background",
							"type": "string"
						},
						{
							"internalType": "string",
							"name": "_nftImage",
							"type": "string"
						}
					],
					"name": "createUserProfile",
					"outputs": [],
					"stateMutability": "nonpayable",
					"type": "function"
				},
				{
					"inputs": [],
					"name": "getUserProfile",
					"outputs": [
						{
							"components": [
								{
									"internalType": "string",
									"name": "userId",
									"type": "string"
								},
								{
									"internalType": "string",
									"name": "username",
									"type": "string"
								},
								{
									"internalType": "string",
									"name": "email",
									"type": "string"
								},
								{
									"internalType": "uint256",
									"name": "lastLoggedIn",
									"type": "uint256"
								},
								{
									"internalType": "uint256",
									"name": "joinedDate",
									"type": "uint256"
								},
								{
									"internalType": "uint256",
									"name": "lvPoints",
									"type": "uint256"
								},
								{
									"internalType": "uint256",
									"name": "ggPoints",
									"type": "uint256"
								},
								{
									"internalType": "string",
									"name": "class",
									"type": "string"
								},
								{
									"internalType": "string",
									"name": "race",
									"type": "string"
								},
								{
									"internalType": "string",
									"name": "gender",
									"type": "string"
								},
								{
									"internalType": "string",
									"name": "background",
									"type": "string"
								},
								{
									"internalType": "string",
									"name": "nftImage",
									"type": "string"
								},
								{
									"internalType": "address",
									"name": "walletAddress",
									"type": "address"
								}
							],
							"internalType": "struct GameGrid.UserProfile",
							"name": "",
							"type": "tuple"
						}
					],
					"stateMutability": "view",
					"type": "function"
				},
				{
					"inputs": [],
					"name": "getUserWalletAddress",
					"outputs": [
						{
							"internalType": "address",
							"name": "",
							"type": "address"
						}
					],
					"stateMutability": "view",
					"type": "function"
				},
				{
					"inputs": [
						{
							"internalType": "uint256",
							"name": "_lvPoints",
							"type": "uint256"
						},
						{
							"internalType": "uint256",
							"name": "_ggPoints",
							"type": "uint256"
						}
					],
					"name": "removePoints",
					"outputs": [],
					"stateMutability": "nonpayable",
					"type": "function"
				},
				{
					"inputs": [
						{
							"internalType": "string",
							"name": "_background",
							"type": "string"
						}
					],
					"name": "updateBackground",
					"outputs": [],
					"stateMutability": "nonpayable",
					"type": "function"
				},
				{
					"inputs": [
						{
							"internalType": "string",
							"name": "_class",
							"type": "string"
						}
					],
					"name": "updateClass",
					"outputs": [],
					"stateMutability": "nonpayable",
					"type": "function"
				},
				{
					"inputs": [
						{
							"internalType": "string",
							"name": "_email",
							"type": "string"
						}
					],
					"name": "updateEmail",
					"outputs": [],
					"stateMutability": "nonpayable",
					"type": "function"
				},
				{
					"inputs": [
						{
							"internalType": "string",
							"name": "_gender",
							"type": "string"
						}
					],
					"name": "updateGender",
					"outputs": [],
					"stateMutability": "nonpayable",
					"type": "function"
				},
				{
					"inputs": [
						{
							"internalType": "string",
							"name": "_nftImage",
							"type": "string"
						}
					],
					"name": "updateNftImage",
					"outputs": [],
					"stateMutability": "nonpayable",
					"type": "function"
				},
				{
					"inputs": [
						{
							"internalType": "string",
							"name": "_race",
							"type": "string"
						}
					],
					"name": "updateRace",
					"outputs": [],
					"stateMutability": "nonpayable",
					"type": "function"
				},
				{
					"inputs": [
						{
							"internalType": "string",
							"name": "_username",
							"type": "string"
						}
					],
					"name": "updateUsername",
					"outputs": [],
					"stateMutability": "nonpayable",
					"type": "function"
				}
			],
			"devdoc": {
				"kind": "dev",
				"methods": {},
				"version": 1
			},
			"evm": {
				"assembly": "    /* \"Gamegrid.sol\":61:6078  contract GameGrid {... */\n  mstore(0x40, 0x80)\n  callvalue\n  dup1\n  iszero\n  tag_1\n  jumpi\n  revert(0x00, 0x00)\ntag_1:\n  pop\n  dataSize(sub_0)\n  dup1\n  dataOffset(sub_0)\n  0x00\n  codecopy\n  0x00\n  return\nstop\n\nsub_0: assembly {\n        /* \"Gamegrid.sol\":61:6078  contract GameGrid {... */\n      mstore(0x40, 0x80)\n      callvalue\n      dup1\n      iszero\n      tag_1\n      jumpi\n      revert(0x00, 0x00)\n    tag_1:\n      pop\n      jumpi(tag_2, lt(calldatasize, 0x04))\n      shr(0xe0, calldataload(0x00))\n      dup1\n      0xde293190\n      gt\n      tag_15\n      jumpi\n      dup1\n      0xde293190\n      eq\n      tag_9\n      jumpi\n      dup1\n      0xe0794800\n      eq\n      tag_10\n      jumpi\n      dup1\n      0xf017625a\n      eq\n      tag_11\n      jumpi\n      dup1\n      0xf06099af\n      eq\n      tag_12\n      jumpi\n      dup1\n      0xf5f6d70b\n      eq\n      tag_13\n      jumpi\n      dup1\n      0xfe4651a0\n      eq\n      tag_14\n      jumpi\n      jump(tag_2)\n    tag_15:\n      dup1\n      0x4f3b7de1\n      eq\n      tag_3\n      jumpi\n      dup1\n      0x4fd05926\n      eq\n      tag_4\n      jumpi\n      dup1\n      0x6f61c744\n      eq\n      tag_5\n      jumpi\n      dup1\n      0x70e997e2\n      eq\n      tag_6\n      jumpi\n      dup1\n      0x93de8386\n      eq\n      tag_7\n      jumpi\n      dup1\n      0xc96cea70\n      eq\n      tag_8\n      jumpi\n    tag_2:\n      revert(0x00, 0x00)\n        /* \"Gamegrid.sol\":3227:3447  function updateRace(string memory _race) public onlyRegistered {... */\n    tag_3:\n      tag_16\n      0x04\n      dup1\n      calldatasize\n      sub\n      dup2\n      add\n      swap1\n      tag_17\n      swap2\n      swap1\n      tag_18\n      jump\t// in\n    tag_17:\n      tag_19\n      jump\t// in\n    tag_16:\n      stop\n        /* \"Gamegrid.sol\":4052:4288  function updateNftImage(string memory _nftImage) public onlyRegistered {... */\n    tag_4:\n      tag_20\n      0x04\n      dup1\n      calldatasize\n      sub\n      dup2\n      add\n      swap1\n      tag_21\n      swap2\n      swap1\n      tag_18\n      jump\t// in\n    tag_21:\n      tag_22\n      jump\t// in\n    tag_20:\n      stop\n        /* \"Gamegrid.sol\":5152:5284  function getUserProfile() public view onlyRegistered returns (UserProfile memory) {... */\n    tag_5:\n      tag_23\n      tag_24\n      jump\t// in\n    tag_23:\n      mload(0x40)\n      tag_25\n      swap2\n      swap1\n      tag_26\n      jump\t// in\n    tag_25:\n      mload(0x40)\n      dup1\n      swap2\n      sub\n      swap1\n      return\n        /* \"Gamegrid.sol\":1259:2377  function createUserProfile(... */\n    tag_6:\n      tag_27\n      0x04\n      dup1\n      calldatasize\n      sub\n      dup2\n      add\n      swap1\n      tag_28\n      swap2\n      swap1\n      tag_29\n      jump\t// in\n    tag_28:\n      tag_30\n      jump\t// in\n    tag_27:\n      stop\n        /* \"Gamegrid.sol\":3763:4007  function updateBackground(string memory _background) public onlyRegistered {... */\n    tag_7:\n      tag_31\n      0x04\n      dup1\n      calldatasize\n      sub\n      dup2\n      add\n      swap1\n      tag_32\n      swap2\n      swap1\n      tag_18\n      jump\t// in\n    tag_32:\n      tag_33\n      jump\t// in\n    tag_31:\n      stop\n        /* \"Gamegrid.sol\":2421:2657  function updateUsername(string memory _username) public onlyRegistered {... */\n    tag_8:\n      tag_34\n      0x04\n      dup1\n      calldatasize\n      sub\n      dup2\n      add\n      swap1\n      tag_35\n      swap2\n      swap1\n      tag_18\n      jump\t// in\n    tag_35:\n      tag_36\n      jump\t// in\n    tag_34:\n      stop\n        /* \"Gamegrid.sol\":3489:3717  function updateGender(string memory _gender) public onlyRegistered {... */\n    tag_9:\n      tag_37\n      0x04\n      dup1\n      calldatasize\n      sub\n      dup2\n      add\n      swap1\n      tag_38\n      swap2\n      swap1\n      tag_18\n      jump\t// in\n    tag_38:\n      tag_39\n      jump\t// in\n    tag_37:\n      stop\n        /* \"Gamegrid.sol\":4657:5098  function removePoints(uint256 _lvPoints, uint256 _ggPoints) public onlyRegistered {... */\n    tag_10:\n      tag_40\n      0x04\n      dup1\n      calldatasize\n      sub\n      dup2\n      add\n      swap1\n      tag_41\n      swap2\n      swap1\n      tag_42\n      jump\t// in\n    tag_41:\n      tag_43\n      jump\t// in\n    tag_40:\n      stop\n        /* \"Gamegrid.sol\":2963:3187  function updateClass(string memory _class) public onlyRegistered {... */\n    tag_11:\n      tag_44\n      0x04\n      dup1\n      calldatasize\n      sub\n      dup2\n      add\n      swap1\n      tag_45\n      swap2\n      swap1\n      tag_18\n      jump\t// in\n    tag_45:\n      tag_46\n      jump\t// in\n    tag_44:\n      stop\n        /* \"Gamegrid.sol\":2698:2922  function updateEmail(string memory _email) public onlyRegistered {... */\n    tag_12:\n      tag_47\n      0x04\n      dup1\n      calldatasize\n      sub\n      dup2\n      add\n      swap1\n      tag_48\n      swap2\n      swap1\n      tag_18\n      jump\t// in\n    tag_48:\n      tag_49\n      jump\t// in\n    tag_47:\n      stop\n        /* \"Gamegrid.sol\":5362:5503  function getUserWalletAddress() public view onlyRegistered returns (address) {... */\n    tag_13:\n      tag_50\n      tag_51\n      jump\t// in\n    tag_50:\n      mload(0x40)\n      tag_52\n      swap2\n      swap1\n      tag_53\n      jump\t// in\n    tag_52:\n      mload(0x40)\n      dup1\n      swap2\n      sub\n      swap1\n      return\n        /* \"Gamegrid.sol\":4327:4615  function addPoints(uint256 _lvPoints, uint256 _ggPoints) public onlyRegistered {... */\n    tag_14:\n      tag_54\n      0x04\n      dup1\n      calldatasize\n      sub\n      dup2\n      add\n      swap1\n      tag_55\n      swap2\n      swap1\n      tag_42\n      jump\t// in\n    tag_55:\n      tag_56\n      jump\t// in\n    tag_54:\n      stop\n        /* \"Gamegrid.sol\":3227:3447  function updateRace(string memory _race) public onlyRegistered {... */\n    tag_19:\n        /* \"Gamegrid.sol\":1140:1152  isRegistered */\n      0x01\n        /* \"Gamegrid.sol\":1140:1164  isRegistered[msg.sender] */\n      0x00\n        /* \"Gamegrid.sol\":1153:1163  msg.sender */\n      caller\n        /* \"Gamegrid.sol\":1140:1164  isRegistered[msg.sender] */\n      0xffffffffffffffffffffffffffffffffffffffff\n      and\n      0xffffffffffffffffffffffffffffffffffffffff\n      and\n      dup2\n      mstore\n      0x20\n      add\n      swap1\n      dup2\n      mstore\n      0x20\n      add\n      0x00\n      keccak256\n      0x00\n      swap1\n      sload\n      swap1\n      0x0100\n      exp\n      swap1\n      div\n      0xff\n      and\n        /* \"Gamegrid.sol\":1132:1189  require(isRegistered[msg.sender], \"User not registered.\") */\n      tag_58\n      jumpi\n      mload(0x40)\n      0x08c379a000000000000000000000000000000000000000000000000000000000\n      dup2\n      mstore\n      0x04\n      add\n      tag_59\n      swap1\n      tag_60\n      jump\t// in\n    tag_59:\n      mload(0x40)\n      dup1\n      swap2\n      sub\n      swap1\n      revert\n    tag_58:\n        /* \"Gamegrid.sol\":3301:3325  UserProfile storage user */\n      0x00\n        /* \"Gamegrid.sol\":3328:3340  userProfiles */\n      0x00\n        /* \"Gamegrid.sol\":3328:3352  userProfiles[msg.sender] */\n      0x00\n        /* \"Gamegrid.sol\":3341:3351  msg.sender */\n      caller\n        /* \"Gamegrid.sol\":3328:3352  userProfiles[msg.sender] */\n      0xffffffffffffffffffffffffffffffffffffffff\n      and\n      0xffffffffffffffffffffffffffffffffffffffff\n      and\n      dup2\n      mstore\n      0x20\n      add\n      swap1\n      dup2\n      mstore\n      0x20\n      add\n      0x00\n      keccak256\n        /* \"Gamegrid.sol\":3301:3352  UserProfile storage user = userProfiles[msg.sender] */\n      swap1\n      pop\n        /* \"Gamegrid.sol\":3375:3380  _race */\n      dup2\n        /* \"Gamegrid.sol\":3363:3367  user */\n      dup2\n        /* \"Gamegrid.sol\":3363:3372  user.race */\n      0x08\n      add\n        /* \"Gamegrid.sol\":3363:3380  user.race = _race */\n      swap1\n      dup2\n      tag_62\n      swap2\n      swap1\n      tag_63\n      jump\t// in\n    tag_62:\n      pop\n        /* \"Gamegrid.sol\":3415:3425  msg.sender */\n      caller\n        /* \"Gamegrid.sol\":3396:3439  UserProfileUpdated(msg.sender, user.userId) */\n      0xffffffffffffffffffffffffffffffffffffffff\n      and\n      0x9ab5b01c08788936fb2b48da858665afe9fa06d32e17dc49e0510c24ba05c983\n        /* \"Gamegrid.sol\":3427:3431  user */\n      dup3\n        /* \"Gamegrid.sol\":3427:3438  user.userId */\n      0x00\n      add\n        /* \"Gamegrid.sol\":3396:3439  UserProfileUpdated(msg.sender, user.userId) */\n      mload(0x40)\n      tag_64\n      swap2\n      swap1\n      tag_65\n      jump\t// in\n    tag_64:\n      mload(0x40)\n      dup1\n      swap2\n      sub\n      swap1\n      log2\n        /* \"Gamegrid.sol\":3290:3447  {... */\n      pop\n        /* \"Gamegrid.sol\":3227:3447  function updateRace(string memory _race) public onlyRegistered {... */\n      pop\n      jump\t// out\n        /* \"Gamegrid.sol\":4052:4288  function updateNftImage(string memory _nftImage) public onlyRegistered {... */\n    tag_22:\n        /* \"Gamegrid.sol\":1140:1152  isRegistered */\n      0x01\n        /* \"Gamegrid.sol\":1140:1164  isRegistered[msg.sender] */\n      0x00\n        /* \"Gamegrid.sol\":1153:1163  msg.sender */\n      caller\n        /* \"Gamegrid.sol\":1140:1164  isRegistered[msg.sender] */\n      0xffffffffffffffffffffffffffffffffffffffff\n      and\n      0xffffffffffffffffffffffffffffffffffffffff\n      and\n      dup2\n      mstore\n      0x20\n      add\n      swap1\n      dup2\n      mstore\n      0x20\n      add\n      0x00\n      keccak256\n      0x00\n      swap1\n      sload\n      swap1\n      0x0100\n      exp\n      swap1\n      div\n      0xff\n      and\n        /* \"Gamegrid.sol\":1132:1189  require(isRegistered[msg.sender], \"User not registered.\") */\n      tag_67\n      jumpi\n      mload(0x40)\n      0x08c379a000000000000000000000000000000000000000000000000000000000\n      dup2\n      mstore\n      0x04\n      add\n      tag_68\n      swap1\n      tag_60\n      jump\t// in\n    tag_68:\n      mload(0x40)\n      dup1\n      swap2\n      sub\n      swap1\n      revert\n    tag_67:\n        /* \"Gamegrid.sol\":4134:4158  UserProfile storage user */\n      0x00\n        /* \"Gamegrid.sol\":4161:4173  userProfiles */\n      0x00\n        /* \"Gamegrid.sol\":4161:4185  userProfiles[msg.sender] */\n      0x00\n        /* \"Gamegrid.sol\":4174:4184  msg.sender */\n      caller\n        /* \"Gamegrid.sol\":4161:4185  userProfiles[msg.sender] */\n      0xffffffffffffffffffffffffffffffffffffffff\n      and\n      0xffffffffffffffffffffffffffffffffffffffff\n      and\n      dup2\n      mstore\n      0x20\n      add\n      swap1\n      dup2\n      mstore\n      0x20\n      add\n      0x00\n      keccak256\n        /* \"Gamegrid.sol\":4134:4185  UserProfile storage user = userProfiles[msg.sender] */\n      swap1\n      pop\n        /* \"Gamegrid.sol\":4212:4221  _nftImage */\n      dup2\n        /* \"Gamegrid.sol\":4196:4200  user */\n      dup2\n        /* \"Gamegrid.sol\":4196:4209  user.nftImage */\n      0x0b\n      add\n        /* \"Gamegrid.sol\":4196:4221  user.nftImage = _nftImage */\n      swap1\n      dup2\n      tag_70\n      swap2\n      swap1\n      tag_63\n      jump\t// in\n    tag_70:\n      pop\n        /* \"Gamegrid.sol\":4256:4266  msg.sender */\n      caller\n        /* \"Gamegrid.sol\":4237:4280  UserProfileUpdated(msg.sender, user.userId) */\n      0xffffffffffffffffffffffffffffffffffffffff\n      and\n      0x9ab5b01c08788936fb2b48da858665afe9fa06d32e17dc49e0510c24ba05c983\n        /* \"Gamegrid.sol\":4268:4272  user */\n      dup3\n        /* \"Gamegrid.sol\":4268:4279  user.userId */\n      0x00\n      add\n        /* \"Gamegrid.sol\":4237:4280  UserProfileUpdated(msg.sender, user.userId) */\n      mload(0x40)\n      tag_71\n      swap2\n      swap1\n      tag_65\n      jump\t// in\n    tag_71:\n      mload(0x40)\n      dup1\n      swap2\n      sub\n      swap1\n      log2\n        /* \"Gamegrid.sol\":4123:4288  {... */\n      pop\n        /* \"Gamegrid.sol\":4052:4288  function updateNftImage(string memory _nftImage) public onlyRegistered {... */\n      pop\n      jump\t// out\n        /* \"Gamegrid.sol\":5152:5284  function getUserProfile() public view onlyRegistered returns (UserProfile memory) {... */\n    tag_24:\n        /* \"Gamegrid.sol\":5214:5232  UserProfile memory */\n      tag_72\n      tag_73\n      jump\t// in\n    tag_72:\n        /* \"Gamegrid.sol\":1140:1152  isRegistered */\n      0x01\n        /* \"Gamegrid.sol\":1140:1164  isRegistered[msg.sender] */\n      0x00\n        /* \"Gamegrid.sol\":1153:1163  msg.sender */\n      caller\n        /* \"Gamegrid.sol\":1140:1164  isRegistered[msg.sender] */\n      0xffffffffffffffffffffffffffffffffffffffff\n      and\n      0xffffffffffffffffffffffffffffffffffffffff\n      and\n      dup2\n      mstore\n      0x20\n      add\n      swap1\n      dup2\n      mstore\n      0x20\n      add\n      0x00\n      keccak256\n      0x00\n      swap1\n      sload\n      swap1\n      0x0100\n      exp\n      swap1\n      div\n      0xff\n      and\n        /* \"Gamegrid.sol\":1132:1189  require(isRegistered[msg.sender], \"User not registered.\") */\n      tag_75\n      jumpi\n      mload(0x40)\n      0x08c379a000000000000000000000000000000000000000000000000000000000\n      dup2\n      mstore\n      0x04\n      add\n      tag_76\n      swap1\n      tag_60\n      jump\t// in\n    tag_76:\n      mload(0x40)\n      dup1\n      swap2\n      sub\n      swap1\n      revert\n    tag_75:\n        /* \"Gamegrid.sol\":5252:5264  userProfiles */\n      0x00\n        /* \"Gamegrid.sol\":5252:5276  userProfiles[msg.sender] */\n      0x00\n        /* \"Gamegrid.sol\":5265:5275  msg.sender */\n      caller\n        /* \"Gamegrid.sol\":5252:5276  userProfiles[msg.sender] */\n      0xffffffffffffffffffffffffffffffffffffffff\n      and\n      0xffffffffffffffffffffffffffffffffffffffff\n      and\n      dup2\n      mstore\n      0x20\n      add\n      swap1\n      dup2\n      mstore\n      0x20\n      add\n      0x00\n      keccak256\n        /* \"Gamegrid.sol\":5245:5276  return userProfiles[msg.sender] */\n      mload(0x40)\n      dup1\n      0x01a0\n      add\n      0x40\n      mstore\n      swap1\n      dup2\n      0x00\n      dup3\n      add\n      dup1\n      sload\n      tag_78\n      swap1\n      tag_79\n      jump\t// in\n    tag_78:\n      dup1\n      0x1f\n      add\n      0x20\n      dup1\n      swap2\n      div\n      mul\n      0x20\n      add\n      mload(0x40)\n      swap1\n      dup2\n      add\n      0x40\n      mstore\n      dup1\n      swap3\n      swap2\n      swap1\n      dup2\n      dup2\n      mstore\n      0x20\n      add\n      dup3\n      dup1\n      sload\n      tag_80\n      swap1\n      tag_79\n      jump\t// in\n    tag_80:\n      dup1\n      iszero\n      tag_81\n      jumpi\n      dup1\n      0x1f\n      lt\n      tag_82\n      jumpi\n      0x0100\n      dup1\n      dup4\n      sload\n      div\n      mul\n      dup4\n      mstore\n      swap2\n      0x20\n      add\n      swap2\n      jump(tag_81)\n    tag_82:\n      dup3\n      add\n      swap2\n      swap1\n      0x00\n      mstore\n      keccak256(0x00, 0x20)\n      swap1\n    tag_83:\n      dup2\n      sload\n      dup2\n      mstore\n      swap1\n      0x01\n      add\n      swap1\n      0x20\n      add\n      dup1\n      dup4\n      gt\n      tag_83\n      jumpi\n      dup3\n      swap1\n      sub\n      0x1f\n      and\n      dup3\n      add\n      swap2\n    tag_81:\n      pop\n      pop\n      pop\n      pop\n      pop\n      dup2\n      mstore\n      0x20\n      add\n      0x01\n      dup3\n      add\n      dup1\n      sload\n      tag_84\n      swap1\n      tag_79\n      jump\t// in\n    tag_84:\n      dup1\n      0x1f\n      add\n      0x20\n      dup1\n      swap2\n      div\n      mul\n      0x20\n      add\n      mload(0x40)\n      swap1\n      dup2\n      add\n      0x40\n      mstore\n      dup1\n      swap3\n      swap2\n      swap1\n      dup2\n      dup2\n      mstore\n      0x20\n      add\n      dup3\n      dup1\n      sload\n      tag_85\n      swap1\n      tag_79\n      jump\t// in\n    tag_85:\n      dup1\n      iszero\n      tag_86\n      jumpi\n      dup1\n      0x1f\n      lt\n      tag_87\n      jumpi\n      0x0100\n      dup1\n      dup4\n      sload\n      div\n      mul\n      dup4\n      mstore\n      swap2\n      0x20\n      add\n      swap2\n      jump(tag_86)\n    tag_87:\n      dup3\n      add\n      swap2\n      swap1\n      0x00\n      mstore\n      keccak256(0x00, 0x20)\n      swap1\n    tag_88:\n      dup2\n      sload\n      dup2\n      mstore\n      swap1\n      0x01\n      add\n      swap1\n      0x20\n      add\n      dup1\n      dup4\n      gt\n      tag_88\n      jumpi\n      dup3\n      swap1\n      sub\n      0x1f\n      and\n      dup3\n      add\n      swap2\n    tag_86:\n      pop\n      pop\n      pop\n      pop\n      pop\n      dup2\n      mstore\n      0x20\n      add\n      0x02\n      dup3\n      add\n      dup1\n      sload\n      tag_89\n      swap1\n      tag_79\n      jump\t// in\n    tag_89:\n      dup1\n      0x1f\n      add\n      0x20\n      dup1\n      swap2\n      div\n      mul\n      0x20\n      add\n      mload(0x40)\n      swap1\n      dup2\n      add\n      0x40\n      mstore\n      dup1\n      swap3\n      swap2\n      swap1\n      dup2\n      dup2\n      mstore\n      0x20\n      add\n      dup3\n      dup1\n      sload\n      tag_90\n      swap1\n      tag_79\n      jump\t// in\n    tag_90:\n      dup1\n      iszero\n      tag_91\n      jumpi\n      dup1\n      0x1f\n      lt\n      tag_92\n      jumpi\n      0x0100\n      dup1\n      dup4\n      sload\n      div\n      mul\n      dup4\n      mstore\n      swap2\n      0x20\n      add\n      swap2\n      jump(tag_91)\n    tag_92:\n      dup3\n      add\n      swap2\n      swap1\n      0x00\n      mstore\n      keccak256(0x00, 0x20)\n      swap1\n    tag_93:\n      dup2\n      sload\n      dup2\n      mstore\n      swap1\n      0x01\n      add\n      swap1\n      0x20\n      add\n      dup1\n      dup4\n      gt\n      tag_93\n      jumpi\n      dup3\n      swap1\n      sub\n      0x1f\n      and\n      dup3\n      add\n      swap2\n    tag_91:\n      pop\n      pop\n      pop\n      pop\n      pop\n      dup2\n      mstore\n      0x20\n      add\n      0x03\n      dup3\n      add\n      sload\n      dup2\n      mstore\n      0x20\n      add\n      0x04\n      dup3\n      add\n      sload\n      dup2\n      mstore\n      0x20\n      add\n      0x05\n      dup3\n      add\n      sload\n      dup2\n      mstore\n      0x20\n      add\n      0x06\n      dup3\n      add\n      sload\n      dup2\n      mstore\n      0x20\n      add\n      0x07\n      dup3\n      add\n      dup1\n      sload\n      tag_94\n      swap1\n      tag_79\n      jump\t// in\n    tag_94:\n      dup1\n      0x1f\n      add\n      0x20\n      dup1\n      swap2\n      div\n      mul\n      0x20\n      add\n      mload(0x40)\n      swap1\n      dup2\n      add\n      0x40\n      mstore\n      dup1\n      swap3\n      swap2\n      swap1\n      dup2\n      dup2\n      mstore\n      0x20\n      add\n      dup3\n      dup1\n      sload\n      tag_95\n      swap1\n      tag_79\n      jump\t// in\n    tag_95:\n      dup1\n      iszero\n      tag_96\n      jumpi\n      dup1\n      0x1f\n      lt\n      tag_97\n      jumpi\n      0x0100\n      dup1\n      dup4\n      sload\n      div\n      mul\n      dup4\n      mstore\n      swap2\n      0x20\n      add\n      swap2\n      jump(tag_96)\n    tag_97:\n      dup3\n      add\n      swap2\n      swap1\n      0x00\n      mstore\n      keccak256(0x00, 0x20)\n      swap1\n    tag_98:\n      dup2\n      sload\n      dup2\n      mstore\n      swap1\n      0x01\n      add\n      swap1\n      0x20\n      add\n      dup1\n      dup4\n      gt\n      tag_98\n      jumpi\n      dup3\n      swap1\n      sub\n      0x1f\n      and\n      dup3\n      add\n      swap2\n    tag_96:\n      pop\n      pop\n      pop\n      pop\n      pop\n      dup2\n      mstore\n      0x20\n      add\n      0x08\n      dup3\n      add\n      dup1\n      sload\n      tag_99\n      swap1\n      tag_79\n      jump\t// in\n    tag_99:\n      dup1\n      0x1f\n      add\n      0x20\n      dup1\n      swap2\n      div\n      mul\n      0x20\n      add\n      mload(0x40)\n      swap1\n      dup2\n      add\n      0x40\n      mstore\n      dup1\n      swap3\n      swap2\n      swap1\n      dup2\n      dup2\n      mstore\n      0x20\n      add\n      dup3\n      dup1\n      sload\n      tag_100\n      swap1\n      tag_79\n      jump\t// in\n    tag_100:\n      dup1\n      iszero\n      tag_101\n      jumpi\n      dup1\n      0x1f\n      lt\n      tag_102\n      jumpi\n      0x0100\n      dup1\n      dup4\n      sload\n      div\n      mul\n      dup4\n      mstore\n      swap2\n      0x20\n      add\n      swap2\n      jump(tag_101)\n    tag_102:\n      dup3\n      add\n      swap2\n      swap1\n      0x00\n      mstore\n      keccak256(0x00, 0x20)\n      swap1\n    tag_103:\n      dup2\n      sload\n      dup2\n      mstore\n      swap1\n      0x01\n      add\n      swap1\n      0x20\n      add\n      dup1\n      dup4\n      gt\n      tag_103\n      jumpi\n      dup3\n      swap1\n      sub\n      0x1f\n      and\n      dup3\n      add\n      swap2\n    tag_101:\n      pop\n      pop\n      pop\n      pop\n      pop\n      dup2\n      mstore\n      0x20\n      add\n      0x09\n      dup3\n      add\n      dup1\n      sload\n      tag_104\n      swap1\n      tag_79\n      jump\t// in\n    tag_104:\n      dup1\n      0x1f\n      add\n      0x20\n      dup1\n      swap2\n      div\n      mul\n      0x20\n      add\n      mload(0x40)\n      swap1\n      dup2\n      add\n      0x40\n      mstore\n      dup1\n      swap3\n      swap2\n      swap1\n      dup2\n      dup2\n      mstore\n      0x20\n      add\n      dup3\n      dup1\n      sload\n      tag_105\n      swap1\n      tag_79\n      jump\t// in\n    tag_105:\n      dup1\n      iszero\n      tag_106\n      jumpi\n      dup1\n      0x1f\n      lt\n      tag_107\n      jumpi\n      0x0100\n      dup1\n      dup4\n      sload\n      div\n      mul\n      dup4\n      mstore\n      swap2\n      0x20\n      add\n      swap2\n      jump(tag_106)\n    tag_107:\n      dup3\n      add\n      swap2\n      swap1\n      0x00\n      mstore\n      keccak256(0x00, 0x20)\n      swap1\n    tag_108:\n      dup2\n      sload\n      dup2\n      mstore\n      swap1\n      0x01\n      add\n      swap1\n      0x20\n      add\n      dup1\n      dup4\n      gt\n      tag_108\n      jumpi\n      dup3\n      swap1\n      sub\n      0x1f\n      and\n      dup3\n      add\n      swap2\n    tag_106:\n      pop\n      pop\n      pop\n      pop\n      pop\n      dup2\n      mstore\n      0x20\n      add\n      0x0a\n      dup3\n      add\n      dup1\n      sload\n      tag_109\n      swap1\n      tag_79\n      jump\t// in\n    tag_109:\n      dup1\n      0x1f\n      add\n      0x20\n      dup1\n      swap2\n      div\n      mul\n      0x20\n      add\n      mload(0x40)\n      swap1\n      dup2\n      add\n      0x40\n      mstore\n      dup1\n      swap3\n      swap2\n      swap1\n      dup2\n      dup2\n      mstore\n      0x20\n      add\n      dup3\n      dup1\n      sload\n      tag_110\n      swap1\n      tag_79\n      jump\t// in\n    tag_110:\n      dup1\n      iszero\n      tag_111\n      jumpi\n      dup1\n      0x1f\n      lt\n      tag_112\n      jumpi\n      0x0100\n      dup1\n      dup4\n      sload\n      div\n      mul\n      dup4\n      mstore\n      swap2\n      0x20\n      add\n      swap2\n      jump(tag_111)\n    tag_112:\n      dup3\n      add\n      swap2\n      swap1\n      0x00\n      mstore\n      keccak256(0x00, 0x20)\n      swap1\n    tag_113:\n      dup2\n      sload\n      dup2\n      mstore\n      swap1\n      0x01\n      add\n      swap1\n      0x20\n      add\n      dup1\n      dup4\n      gt\n      tag_113\n      jumpi\n      dup3\n      swap1\n      sub\n      0x1f\n      and\n      dup3\n      add\n      swap2\n    tag_111:\n      pop\n      pop\n      pop\n      pop\n      pop\n      dup2\n      mstore\n      0x20\n      add\n      0x0b\n      dup3\n      add\n      dup1\n      sload\n      tag_114\n      swap1\n      tag_79\n      jump\t// in\n    tag_114:\n      dup1\n      0x1f\n      add\n      0x20\n      dup1\n      swap2\n      div\n      mul\n      0x20\n      add\n      mload(0x40)\n      swap1\n      dup2\n      add\n      0x40\n      mstore\n      dup1\n      swap3\n      swap2\n      swap1\n      dup2\n      dup2\n      mstore\n      0x20\n      add\n      dup3\n      dup1\n      sload\n      tag_115\n      swap1\n      tag_79\n      jump\t// in\n    tag_115:\n      dup1\n      iszero\n      tag_116\n      jumpi\n      dup1\n      0x1f\n      lt\n      tag_117\n      jumpi\n      0x0100\n      dup1\n      dup4\n      sload\n      div\n      mul\n      dup4\n      mstore\n      swap2\n      0x20\n      add\n      swap2\n      jump(tag_116)\n    tag_117:\n      dup3\n      add\n      swap2\n      swap1\n      0x00\n      mstore\n      keccak256(0x00, 0x20)\n      swap1\n    tag_118:\n      dup2\n      sload\n      dup2\n      mstore\n      swap1\n      0x01\n      add\n      swap1\n      0x20\n      add\n      dup1\n      dup4\n      gt\n      tag_118\n      jumpi\n      dup3\n      swap1\n      sub\n      0x1f\n      and\n      dup3\n      add\n      swap2\n    tag_116:\n      pop\n      pop\n      pop\n      pop\n      pop\n      dup2\n      mstore\n      0x20\n      add\n      0x0c\n      dup3\n      add\n      0x00\n      swap1\n      sload\n      swap1\n      0x0100\n      exp\n      swap1\n      div\n      0xffffffffffffffffffffffffffffffffffffffff\n      and\n      0xffffffffffffffffffffffffffffffffffffffff\n      and\n      0xffffffffffffffffffffffffffffffffffffffff\n      and\n      dup2\n      mstore\n      pop\n      pop\n      swap1\n      pop\n        /* \"Gamegrid.sol\":5152:5284  function getUserProfile() public view onlyRegistered returns (UserProfile memory) {... */\n      swap1\n      jump\t// out\n        /* \"Gamegrid.sol\":1259:2377  function createUserProfile(... */\n    tag_30:\n        /* \"Gamegrid.sol\":1548:1560  isRegistered */\n      0x01\n        /* \"Gamegrid.sol\":1548:1572  isRegistered[msg.sender] */\n      0x00\n        /* \"Gamegrid.sol\":1561:1571  msg.sender */\n      caller\n        /* \"Gamegrid.sol\":1548:1572  isRegistered[msg.sender] */\n      0xffffffffffffffffffffffffffffffffffffffff\n      and\n      0xffffffffffffffffffffffffffffffffffffffff\n      and\n      dup2\n      mstore\n      0x20\n      add\n      swap1\n      dup2\n      mstore\n      0x20\n      add\n      0x00\n      keccak256\n      0x00\n      swap1\n      sload\n      swap1\n      0x0100\n      exp\n      swap1\n      div\n      0xff\n      and\n        /* \"Gamegrid.sol\":1547:1572  !isRegistered[msg.sender] */\n      iszero\n        /* \"Gamegrid.sol\":1539:1601  require(!isRegistered[msg.sender], \"User already registered.\") */\n      tag_120\n      jumpi\n      mload(0x40)\n      0x08c379a000000000000000000000000000000000000000000000000000000000\n      dup2\n      mstore\n      0x04\n      add\n      tag_121\n      swap1\n      tag_122\n      jump\t// in\n    tag_121:\n      mload(0x40)\n      dup1\n      swap2\n      sub\n      swap1\n      revert\n    tag_120:\n        /* \"Gamegrid.sol\":1692:1712  string memory userId */\n      0x00\n        /* \"Gamegrid.sol\":1739:1748  _username */\n      dup8\n        /* \"Gamegrid.sol\":1755:1780  uint2str(block.timestamp) */\n      tag_123\n        /* \"Gamegrid.sol\":1764:1779  block.timestamp */\n      timestamp\n        /* \"Gamegrid.sol\":1755:1763  uint2str */\n      tag_124\n        /* \"Gamegrid.sol\":1755:1780  uint2str(block.timestamp) */\n      jump\t// in\n    tag_123:\n        /* \"Gamegrid.sol\":1722:1781  abi.encodePacked(_username, \"_\", uint2str(block.timestamp)) */\n      add(0x20, mload(0x40))\n      tag_125\n      swap3\n      swap2\n      swap1\n      tag_126\n      jump\t// in\n    tag_125:\n      mload(0x40)\n      0x20\n      dup2\n      dup4\n      sub\n      sub\n      dup2\n      mstore\n      swap1\n      0x40\n      mstore\n        /* \"Gamegrid.sol\":1692:1782  string memory userId = string(abi.encodePacked(_username, \"_\", uint2str(block.timestamp))) */\n      swap1\n      pop\n        /* \"Gamegrid.sol\":1822:2271  UserProfile({... */\n      mload(0x40)\n      dup1\n      0x01a0\n      add\n      0x40\n      mstore\n      dup1\n        /* \"Gamegrid.sol\":1857:1863  userId */\n      dup3\n        /* \"Gamegrid.sol\":1822:2271  UserProfile({... */\n      dup2\n      mstore\n      0x20\n      add\n        /* \"Gamegrid.sol\":1888:1897  _username */\n      dup10\n        /* \"Gamegrid.sol\":1822:2271  UserProfile({... */\n      dup2\n      mstore\n      0x20\n      add\n        /* \"Gamegrid.sol\":1919:1925  _email */\n      dup9\n        /* \"Gamegrid.sol\":1822:2271  UserProfile({... */\n      dup2\n      mstore\n      0x20\n      add\n        /* \"Gamegrid.sol\":1954:1969  block.timestamp */\n      timestamp\n        /* \"Gamegrid.sol\":1822:2271  UserProfile({... */\n      dup2\n      mstore\n      0x20\n      add\n        /* \"Gamegrid.sol\":1996:2011  block.timestamp */\n      timestamp\n        /* \"Gamegrid.sol\":1822:2271  UserProfile({... */\n      dup2\n      mstore\n      0x20\n      add\n        /* \"Gamegrid.sol\":2036:2037  0 */\n      0x00\n        /* \"Gamegrid.sol\":1822:2271  UserProfile({... */\n      dup2\n      mstore\n      0x20\n      add\n        /* \"Gamegrid.sol\":2062:2063  0 */\n      0x00\n        /* \"Gamegrid.sol\":1822:2271  UserProfile({... */\n      dup2\n      mstore\n      0x20\n      add\n        /* \"Gamegrid.sol\":2085:2091  _class */\n      dup8\n        /* \"Gamegrid.sol\":1822:2271  UserProfile({... */\n      dup2\n      mstore\n      0x20\n      add\n        /* \"Gamegrid.sol\":2112:2117  _race */\n      dup7\n        /* \"Gamegrid.sol\":1822:2271  UserProfile({... */\n      dup2\n      mstore\n      0x20\n      add\n        /* \"Gamegrid.sol\":2140:2147  _gender */\n      dup6\n        /* \"Gamegrid.sol\":1822:2271  UserProfile({... */\n      dup2\n      mstore\n      0x20\n      add\n        /* \"Gamegrid.sol\":2174:2185  _background */\n      dup5\n        /* \"Gamegrid.sol\":1822:2271  UserProfile({... */\n      dup2\n      mstore\n      0x20\n      add\n        /* \"Gamegrid.sol\":2210:2219  _nftImage */\n      dup4\n        /* \"Gamegrid.sol\":1822:2271  UserProfile({... */\n      dup2\n      mstore\n      0x20\n      add\n        /* \"Gamegrid.sol\":2249:2259  msg.sender */\n      caller\n        /* \"Gamegrid.sol\":1822:2271  UserProfile({... */\n      0xffffffffffffffffffffffffffffffffffffffff\n      and\n      dup2\n      mstore\n      pop\n        /* \"Gamegrid.sol\":1795:1807  userProfiles */\n      0x00\n        /* \"Gamegrid.sol\":1795:1819  userProfiles[msg.sender] */\n      0x00\n        /* \"Gamegrid.sol\":1808:1818  msg.sender */\n      caller\n        /* \"Gamegrid.sol\":1795:1819  userProfiles[msg.sender] */\n      0xffffffffffffffffffffffffffffffffffffffff\n      and\n      0xffffffffffffffffffffffffffffffffffffffff\n      and\n      dup2\n      mstore\n      0x20\n      add\n      swap1\n      dup2\n      mstore\n      0x20\n      add\n      0x00\n      keccak256\n        /* \"Gamegrid.sol\":1795:2271  userProfiles[msg.sender] = UserProfile({... */\n      0x00\n      dup3\n      add\n      mload\n      dup2\n      0x00\n      add\n      swap1\n      dup2\n      tag_127\n      swap2\n      swap1\n      tag_63\n      jump\t// in\n    tag_127:\n      pop\n      0x20\n      dup3\n      add\n      mload\n      dup2\n      0x01\n      add\n      swap1\n      dup2\n      tag_128\n      swap2\n      swap1\n      tag_63\n      jump\t// in\n    tag_128:\n      pop\n      0x40\n      dup3\n      add\n      mload\n      dup2\n      0x02\n      add\n      swap1\n      dup2\n      tag_129\n      swap2\n      swap1\n      tag_63\n      jump\t// in\n    tag_129:\n      pop\n      0x60\n      dup3\n      add\n      mload\n      dup2\n      0x03\n      add\n      sstore\n      0x80\n      dup3\n      add\n      mload\n      dup2\n      0x04\n      add\n      sstore\n      0xa0\n      dup3\n      add\n      mload\n      dup2\n      0x05\n      add\n      sstore\n      0xc0\n      dup3\n      add\n      mload\n      dup2\n      0x06\n      add\n      sstore\n      0xe0\n      dup3\n      add\n      mload\n      dup2\n      0x07\n      add\n      swap1\n      dup2\n      tag_130\n      swap2\n      swap1\n      tag_63\n      jump\t// in\n    tag_130:\n      pop\n      0x0100\n      dup3\n      add\n      mload\n      dup2\n      0x08\n      add\n      swap1\n      dup2\n      tag_131\n      swap2\n      swap1\n      tag_63\n      jump\t// in\n    tag_131:\n      pop\n      0x0120\n      dup3\n      add\n      mload\n      dup2\n      0x09\n      add\n      swap1\n      dup2\n      tag_132\n      swap2\n      swap1\n      tag_63\n      jump\t// in\n    tag_132:\n      pop\n      0x0140\n      dup3\n      add\n      mload\n      dup2\n      0x0a\n      add\n      swap1\n      dup2\n      tag_133\n      swap2\n      swap1\n      tag_63\n      jump\t// in\n    tag_133:\n      pop\n      0x0160\n      dup3\n      add\n      mload\n      dup2\n      0x0b\n      add\n      swap1\n      dup2\n      tag_134\n      swap2\n      swap1\n      tag_63\n      jump\t// in\n    tag_134:\n      pop\n      0x0180\n      dup3\n      add\n      mload\n      dup2\n      0x0c\n      add\n      exp(0x0100, 0x00)\n      dup2\n      sload\n      dup2\n      0xffffffffffffffffffffffffffffffffffffffff\n      mul\n      not\n      and\n      swap1\n      dup4\n      0xffffffffffffffffffffffffffffffffffffffff\n      and\n      mul\n      or\n      swap1\n      sstore\n      pop\n      swap1\n      pop\n      pop\n        /* \"Gamegrid.sol\":2311:2315  true */\n      0x01\n        /* \"Gamegrid.sol\":2284:2296  isRegistered */\n      dup1\n        /* \"Gamegrid.sol\":2284:2308  isRegistered[msg.sender] */\n      0x00\n        /* \"Gamegrid.sol\":2297:2307  msg.sender */\n      caller\n        /* \"Gamegrid.sol\":2284:2308  isRegistered[msg.sender] */\n      0xffffffffffffffffffffffffffffffffffffffff\n      and\n      0xffffffffffffffffffffffffffffffffffffffff\n      and\n      dup2\n      mstore\n      0x20\n      add\n      swap1\n      dup2\n      mstore\n      0x20\n      add\n      0x00\n      keccak256\n      0x00\n        /* \"Gamegrid.sol\":2284:2315  isRegistered[msg.sender] = true */\n      0x0100\n      exp\n      dup2\n      sload\n      dup2\n      0xff\n      mul\n      not\n      and\n      swap1\n      dup4\n      iszero\n      iszero\n      mul\n      or\n      swap1\n      sstore\n      pop\n        /* \"Gamegrid.sol\":2350:2360  msg.sender */\n      caller\n        /* \"Gamegrid.sol\":2331:2369  UserProfileCreated(msg.sender, userId) */\n      0xffffffffffffffffffffffffffffffffffffffff\n      and\n      0x1538f861908189043f30d0d55e8666c6a013900115b741f6d75a7a1a85293fdb\n        /* \"Gamegrid.sol\":2362:2368  userId */\n      dup3\n        /* \"Gamegrid.sol\":2331:2369  UserProfileCreated(msg.sender, userId) */\n      mload(0x40)\n      tag_135\n      swap2\n      swap1\n      tag_136\n      jump\t// in\n    tag_135:\n      mload(0x40)\n      dup1\n      swap2\n      sub\n      swap1\n      log2\n        /* \"Gamegrid.sol\":1528:2377  {... */\n      pop\n        /* \"Gamegrid.sol\":1259:2377  function createUserProfile(... */\n      pop\n      pop\n      pop\n      pop\n      pop\n      pop\n      pop\n      jump\t// out\n        /* \"Gamegrid.sol\":3763:4007  function updateBackground(string memory _background) public onlyRegistered {... */\n    tag_33:\n        /* \"Gamegrid.sol\":1140:1152  isRegistered */\n      0x01\n        /* \"Gamegrid.sol\":1140:1164  isRegistered[msg.sender] */\n      0x00\n        /* \"Gamegrid.sol\":1153:1163  msg.sender */\n      caller\n        /* \"Gamegrid.sol\":1140:1164  isRegistered[msg.sender] */\n      0xffffffffffffffffffffffffffffffffffffffff\n      and\n      0xffffffffffffffffffffffffffffffffffffffff\n      and\n      dup2\n      mstore\n      0x20\n      add\n      swap1\n      dup2\n      mstore\n      0x20\n      add\n      0x00\n      keccak256\n      0x00\n      swap1\n      sload\n      swap1\n      0x0100\n      exp\n      swap1\n      div\n      0xff\n      and\n        /* \"Gamegrid.sol\":1132:1189  require(isRegistered[msg.sender], \"User not registered.\") */\n      tag_138\n      jumpi\n      mload(0x40)\n      0x08c379a000000000000000000000000000000000000000000000000000000000\n      dup2\n      mstore\n      0x04\n      add\n      tag_139\n      swap1\n      tag_60\n      jump\t// in\n    tag_139:\n      mload(0x40)\n      dup1\n      swap2\n      sub\n      swap1\n      revert\n    tag_138:\n        /* \"Gamegrid.sol\":3849:3873  UserProfile storage user */\n      0x00\n        /* \"Gamegrid.sol\":3876:3888  userProfiles */\n      0x00\n        /* \"Gamegrid.sol\":3876:3900  userProfiles[msg.sender] */\n      0x00\n        /* \"Gamegrid.sol\":3889:3899  msg.sender */\n      caller\n        /* \"Gamegrid.sol\":3876:3900  userProfiles[msg.sender] */\n      0xffffffffffffffffffffffffffffffffffffffff\n      and\n      0xffffffffffffffffffffffffffffffffffffffff\n      and\n      dup2\n      mstore\n      0x20\n      add\n      swap1\n      dup2\n      mstore\n      0x20\n      add\n      0x00\n      keccak256\n        /* \"Gamegrid.sol\":3849:3900  UserProfile storage user = userProfiles[msg.sender] */\n      swap1\n      pop\n        /* \"Gamegrid.sol\":3929:3940  _background */\n      dup2\n        /* \"Gamegrid.sol\":3911:3915  user */\n      dup2\n        /* \"Gamegrid.sol\":3911:3926  user.background */\n      0x0a\n      add\n        /* \"Gamegrid.sol\":3911:3940  user.background = _background */\n      swap1\n      dup2\n      tag_141\n      swap2\n      swap1\n      tag_63\n      jump\t// in\n    tag_141:\n      pop\n        /* \"Gamegrid.sol\":3975:3985  msg.sender */\n      caller\n        /* \"Gamegrid.sol\":3956:3999  UserProfileUpdated(msg.sender, user.userId) */\n      0xffffffffffffffffffffffffffffffffffffffff\n      and\n      0x9ab5b01c08788936fb2b48da858665afe9fa06d32e17dc49e0510c24ba05c983\n        /* \"Gamegrid.sol\":3987:3991  user */\n      dup3\n        /* \"Gamegrid.sol\":3987:3998  user.userId */\n      0x00\n      add\n        /* \"Gamegrid.sol\":3956:3999  UserProfileUpdated(msg.sender, user.userId) */\n      mload(0x40)\n      tag_142\n      swap2\n      swap1\n      tag_65\n      jump\t// in\n    tag_142:\n      mload(0x40)\n      dup1\n      swap2\n      sub\n      swap1\n      log2\n        /* \"Gamegrid.sol\":3838:4007  {... */\n      pop\n        /* \"Gamegrid.sol\":3763:4007  function updateBackground(string memory _background) public onlyRegistered {... */\n      pop\n      jump\t// out\n        /* \"Gamegrid.sol\":2421:2657  function updateUsername(string memory _username) public onlyRegistered {... */\n    tag_36:\n        /* \"Gamegrid.sol\":1140:1152  isRegistered */\n      0x01\n        /* \"Gamegrid.sol\":1140:1164  isRegistered[msg.sender] */\n      0x00\n        /* \"Gamegrid.sol\":1153:1163  msg.sender */\n      caller\n        /* \"Gamegrid.sol\":1140:1164  isRegistered[msg.sender] */\n      0xffffffffffffffffffffffffffffffffffffffff\n      and\n      0xffffffffffffffffffffffffffffffffffffffff\n      and\n      dup2\n      mstore\n      0x20\n      add\n      swap1\n      dup2\n      mstore\n      0x20\n      add\n      0x00\n      keccak256\n      0x00\n      swap1\n      sload\n      swap1\n      0x0100\n      exp\n      swap1\n      div\n      0xff\n      and\n        /* \"Gamegrid.sol\":1132:1189  require(isRegistered[msg.sender], \"User not registered.\") */\n      tag_144\n      jumpi\n      mload(0x40)\n      0x08c379a000000000000000000000000000000000000000000000000000000000\n      dup2\n      mstore\n      0x04\n      add\n      tag_145\n      swap1\n      tag_60\n      jump\t// in\n    tag_145:\n      mload(0x40)\n      dup1\n      swap2\n      sub\n      swap1\n      revert\n    tag_144:\n        /* \"Gamegrid.sol\":2503:2527  UserProfile storage user */\n      0x00\n        /* \"Gamegrid.sol\":2530:2542  userProfiles */\n      0x00\n        /* \"Gamegrid.sol\":2530:2554  userProfiles[msg.sender] */\n      0x00\n        /* \"Gamegrid.sol\":2543:2553  msg.sender */\n      caller\n        /* \"Gamegrid.sol\":2530:2554  userProfiles[msg.sender] */\n      0xffffffffffffffffffffffffffffffffffffffff\n      and\n      0xffffffffffffffffffffffffffffffffffffffff\n      and\n      dup2\n      mstore\n      0x20\n      add\n      swap1\n      dup2\n      mstore\n      0x20\n      add\n      0x00\n      keccak256\n        /* \"Gamegrid.sol\":2503:2554  UserProfile storage user = userProfiles[msg.sender] */\n      swap1\n      pop\n        /* \"Gamegrid.sol\":2581:2590  _username */\n      dup2\n        /* \"Gamegrid.sol\":2565:2569  user */\n      dup2\n        /* \"Gamegrid.sol\":2565:2578  user.username */\n      0x01\n      add\n        /* \"Gamegrid.sol\":2565:2590  user.username = _username */\n      swap1\n      dup2\n      tag_147\n      swap2\n      swap1\n      tag_63\n      jump\t// in\n    tag_147:\n      pop\n        /* \"Gamegrid.sol\":2625:2635  msg.sender */\n      caller\n        /* \"Gamegrid.sol\":2606:2649  UserProfileUpdated(msg.sender, user.userId) */\n      0xffffffffffffffffffffffffffffffffffffffff\n      and\n      0x9ab5b01c08788936fb2b48da858665afe9fa06d32e17dc49e0510c24ba05c983\n        /* \"Gamegrid.sol\":2637:2641  user */\n      dup3\n        /* \"Gamegrid.sol\":2637:2648  user.userId */\n      0x00\n      add\n        /* \"Gamegrid.sol\":2606:2649  UserProfileUpdated(msg.sender, user.userId) */\n      mload(0x40)\n      tag_148\n      swap2\n      swap1\n      tag_65\n      jump\t// in\n    tag_148:\n      mload(0x40)\n      dup1\n      swap2\n      sub\n      swap1\n      log2\n        /* \"Gamegrid.sol\":2492:2657  {... */\n      pop\n        /* \"Gamegrid.sol\":2421:2657  function updateUsername(string memory _username) public onlyRegistered {... */\n      pop\n      jump\t// out\n        /* \"Gamegrid.sol\":3489:3717  function updateGender(string memory _gender) public onlyRegistered {... */\n    tag_39:\n        /* \"Gamegrid.sol\":1140:1152  isRegistered */\n      0x01\n        /* \"Gamegrid.sol\":1140:1164  isRegistered[msg.sender] */\n      0x00\n        /* \"Gamegrid.sol\":1153:1163  msg.sender */\n      caller\n        /* \"Gamegrid.sol\":1140:1164  isRegistered[msg.sender] */\n      0xffffffffffffffffffffffffffffffffffffffff\n      and\n      0xffffffffffffffffffffffffffffffffffffffff\n      and\n      dup2\n      mstore\n      0x20\n      add\n      swap1\n      dup2\n      mstore\n      0x20\n      add\n      0x00\n      keccak256\n      0x00\n      swap1\n      sload\n      swap1\n      0x0100\n      exp\n      swap1\n      div\n      0xff\n      and\n        /* \"Gamegrid.sol\":1132:1189  require(isRegistered[msg.sender], \"User not registered.\") */\n      tag_150\n      jumpi\n      mload(0x40)\n      0x08c379a000000000000000000000000000000000000000000000000000000000\n      dup2\n      mstore\n      0x04\n      add\n      tag_151\n      swap1\n      tag_60\n      jump\t// in\n    tag_151:\n      mload(0x40)\n      dup1\n      swap2\n      sub\n      swap1\n      revert\n    tag_150:\n        /* \"Gamegrid.sol\":3567:3591  UserProfile storage user */\n      0x00\n        /* \"Gamegrid.sol\":3594:3606  userProfiles */\n      0x00\n        /* \"Gamegrid.sol\":3594:3618  userProfiles[msg.sender] */\n      0x00\n        /* \"Gamegrid.sol\":3607:3617  msg.sender */\n      caller\n        /* \"Gamegrid.sol\":3594:3618  userProfiles[msg.sender] */\n      0xffffffffffffffffffffffffffffffffffffffff\n      and\n      0xffffffffffffffffffffffffffffffffffffffff\n      and\n      dup2\n      mstore\n      0x20\n      add\n      swap1\n      dup2\n      mstore\n      0x20\n      add\n      0x00\n      keccak256\n        /* \"Gamegrid.sol\":3567:3618  UserProfile storage user = userProfiles[msg.sender] */\n      swap1\n      pop\n        /* \"Gamegrid.sol\":3643:3650  _gender */\n      dup2\n        /* \"Gamegrid.sol\":3629:3633  user */\n      dup2\n        /* \"Gamegrid.sol\":3629:3640  user.gender */\n      0x09\n      add\n        /* \"Gamegrid.sol\":3629:3650  user.gender = _gender */\n      swap1\n      dup2\n      tag_153\n      swap2\n      swap1\n      tag_63\n      jump\t// in\n    tag_153:\n      pop\n        /* \"Gamegrid.sol\":3685:3695  msg.sender */\n      caller\n        /* \"Gamegrid.sol\":3666:3709  UserProfileUpdated(msg.sender, user.userId) */\n      0xffffffffffffffffffffffffffffffffffffffff\n      and\n      0x9ab5b01c08788936fb2b48da858665afe9fa06d32e17dc49e0510c24ba05c983\n        /* \"Gamegrid.sol\":3697:3701  user */\n      dup3\n        /* \"Gamegrid.sol\":3697:3708  user.userId */\n      0x00\n      add\n        /* \"Gamegrid.sol\":3666:3709  UserProfileUpdated(msg.sender, user.userId) */\n      mload(0x40)\n      tag_154\n      swap2\n      swap1\n      tag_65\n      jump\t// in\n    tag_154:\n      mload(0x40)\n      dup1\n      swap2\n      sub\n      swap1\n      log2\n        /* \"Gamegrid.sol\":3556:3717  {... */\n      pop\n        /* \"Gamegrid.sol\":3489:3717  function updateGender(string memory _gender) public onlyRegistered {... */\n      pop\n      jump\t// out\n        /* \"Gamegrid.sol\":4657:5098  function removePoints(uint256 _lvPoints, uint256 _ggPoints) public onlyRegistered {... */\n    tag_43:\n        /* \"Gamegrid.sol\":1140:1152  isRegistered */\n      0x01\n        /* \"Gamegrid.sol\":1140:1164  isRegistered[msg.sender] */\n      0x00\n        /* \"Gamegrid.sol\":1153:1163  msg.sender */\n      caller\n        /* \"Gamegrid.sol\":1140:1164  isRegistered[msg.sender] */\n      0xffffffffffffffffffffffffffffffffffffffff\n      and\n      0xffffffffffffffffffffffffffffffffffffffff\n      and\n      dup2\n      mstore\n      0x20\n      add\n      swap1\n      dup2\n      mstore\n      0x20\n      add\n      0x00\n      keccak256\n      0x00\n      swap1\n      sload\n      swap1\n      0x0100\n      exp\n      swap1\n      div\n      0xff\n      and\n        /* \"Gamegrid.sol\":1132:1189  require(isRegistered[msg.sender], \"User not registered.\") */\n      tag_156\n      jumpi\n      mload(0x40)\n      0x08c379a000000000000000000000000000000000000000000000000000000000\n      dup2\n      mstore\n      0x04\n      add\n      tag_157\n      swap1\n      tag_60\n      jump\t// in\n    tag_157:\n      mload(0x40)\n      dup1\n      swap2\n      sub\n      swap1\n      revert\n    tag_156:\n        /* \"Gamegrid.sol\":4750:4774  UserProfile storage user */\n      0x00\n        /* \"Gamegrid.sol\":4777:4789  userProfiles */\n      0x00\n        /* \"Gamegrid.sol\":4777:4801  userProfiles[msg.sender] */\n      0x00\n        /* \"Gamegrid.sol\":4790:4800  msg.sender */\n      caller\n        /* \"Gamegrid.sol\":4777:4801  userProfiles[msg.sender] */\n      0xffffffffffffffffffffffffffffffffffffffff\n      and\n      0xffffffffffffffffffffffffffffffffffffffff\n      and\n      dup2\n      mstore\n      0x20\n      add\n      swap1\n      dup2\n      mstore\n      0x20\n      add\n      0x00\n      keccak256\n        /* \"Gamegrid.sol\":4750:4801  UserProfile storage user = userProfiles[msg.sender] */\n      swap1\n      pop\n        /* \"Gamegrid.sol\":4839:4848  _lvPoints */\n      dup3\n        /* \"Gamegrid.sol\":4822:4826  user */\n      dup2\n        /* \"Gamegrid.sol\":4822:4835  user.lvPoints */\n      0x05\n      add\n      sload\n        /* \"Gamegrid.sol\":4822:4848  user.lvPoints >= _lvPoints */\n      lt\n      iszero\n        /* \"Gamegrid.sol\":4814:4876  require(user.lvPoints >= _lvPoints, \"Insufficient LV points.\") */\n      tag_159\n      jumpi\n      mload(0x40)\n      0x08c379a000000000000000000000000000000000000000000000000000000000\n      dup2\n      mstore\n      0x04\n      add\n      tag_160\n      swap1\n      tag_161\n      jump\t// in\n    tag_160:\n      mload(0x40)\n      dup1\n      swap2\n      sub\n      swap1\n      revert\n    tag_159:\n        /* \"Gamegrid.sol\":4912:4921  _ggPoints */\n      dup2\n        /* \"Gamegrid.sol\":4895:4899  user */\n      dup2\n        /* \"Gamegrid.sol\":4895:4908  user.ggPoints */\n      0x06\n      add\n      sload\n        /* \"Gamegrid.sol\":4895:4921  user.ggPoints >= _ggPoints */\n      lt\n      iszero\n        /* \"Gamegrid.sol\":4887:4949  require(user.ggPoints >= _ggPoints, \"Insufficient GG points.\") */\n      tag_162\n      jumpi\n      mload(0x40)\n      0x08c379a000000000000000000000000000000000000000000000000000000000\n      dup2\n      mstore\n      0x04\n      add\n      tag_163\n      swap1\n      tag_164\n      jump\t// in\n    tag_163:\n      mload(0x40)\n      dup1\n      swap2\n      sub\n      swap1\n      revert\n    tag_162:\n        /* \"Gamegrid.sol\":4979:4988  _lvPoints */\n      dup3\n        /* \"Gamegrid.sol\":4962:4966  user */\n      dup2\n        /* \"Gamegrid.sol\":4962:4975  user.lvPoints */\n      0x05\n      add\n      0x00\n        /* \"Gamegrid.sol\":4962:4988  user.lvPoints -= _lvPoints */\n      dup3\n      dup3\n      sload\n      tag_165\n      swap2\n      swap1\n      tag_166\n      jump\t// in\n    tag_165:\n      swap3\n      pop\n      pop\n      dup2\n      swap1\n      sstore\n      pop\n        /* \"Gamegrid.sol\":5016:5025  _ggPoints */\n      dup2\n        /* \"Gamegrid.sol\":4999:5003  user */\n      dup2\n        /* \"Gamegrid.sol\":4999:5012  user.ggPoints */\n      0x06\n      add\n      0x00\n        /* \"Gamegrid.sol\":4999:5025  user.ggPoints -= _ggPoints */\n      dup3\n      dup3\n      sload\n      tag_167\n      swap2\n      swap1\n      tag_166\n      jump\t// in\n    tag_167:\n      swap3\n      pop\n      pop\n      dup2\n      swap1\n      sstore\n      pop\n        /* \"Gamegrid.sol\":5057:5067  msg.sender */\n      caller\n        /* \"Gamegrid.sol\":5043:5090  PointsRemoved(msg.sender, _lvPoints, _ggPoints) */\n      0xffffffffffffffffffffffffffffffffffffffff\n      and\n      0x2b58a342147e52cafbfa184a8d6a3583ffe7664f958cdf1c00af5cf9c02ccb46\n        /* \"Gamegrid.sol\":5069:5078  _lvPoints */\n      dup5\n        /* \"Gamegrid.sol\":5080:5089  _ggPoints */\n      dup5\n        /* \"Gamegrid.sol\":5043:5090  PointsRemoved(msg.sender, _lvPoints, _ggPoints) */\n      mload(0x40)\n      tag_168\n      swap3\n      swap2\n      swap1\n      tag_169\n      jump\t// in\n    tag_168:\n      mload(0x40)\n      dup1\n      swap2\n      sub\n      swap1\n      log2\n        /* \"Gamegrid.sol\":4739:5098  {... */\n      pop\n        /* \"Gamegrid.sol\":4657:5098  function removePoints(uint256 _lvPoints, uint256 _ggPoints) public onlyRegistered {... */\n      pop\n      pop\n      jump\t// out\n        /* \"Gamegrid.sol\":2963:3187  function updateClass(string memory _class) public onlyRegistered {... */\n    tag_46:\n        /* \"Gamegrid.sol\":1140:1152  isRegistered */\n      0x01\n        /* \"Gamegrid.sol\":1140:1164  isRegistered[msg.sender] */\n      0x00\n        /* \"Gamegrid.sol\":1153:1163  msg.sender */\n      caller\n        /* \"Gamegrid.sol\":1140:1164  isRegistered[msg.sender] */\n      0xffffffffffffffffffffffffffffffffffffffff\n      and\n      0xffffffffffffffffffffffffffffffffffffffff\n      and\n      dup2\n      mstore\n      0x20\n      add\n      swap1\n      dup2\n      mstore\n      0x20\n      add\n      0x00\n      keccak256\n      0x00\n      swap1\n      sload\n      swap1\n      0x0100\n      exp\n      swap1\n      div\n      0xff\n      and\n        /* \"Gamegrid.sol\":1132:1189  require(isRegistered[msg.sender], \"User not registered.\") */\n      tag_171\n      jumpi\n      mload(0x40)\n      0x08c379a000000000000000000000000000000000000000000000000000000000\n      dup2\n      mstore\n      0x04\n      add\n      tag_172\n      swap1\n      tag_60\n      jump\t// in\n    tag_172:\n      mload(0x40)\n      dup1\n      swap2\n      sub\n      swap1\n      revert\n    tag_171:\n        /* \"Gamegrid.sol\":3039:3063  UserProfile storage user */\n      0x00\n        /* \"Gamegrid.sol\":3066:3078  userProfiles */\n      0x00\n        /* \"Gamegrid.sol\":3066:3090  userProfiles[msg.sender] */\n      0x00\n        /* \"Gamegrid.sol\":3079:3089  msg.sender */\n      caller\n        /* \"Gamegrid.sol\":3066:3090  userProfiles[msg.sender] */\n      0xffffffffffffffffffffffffffffffffffffffff\n      and\n      0xffffffffffffffffffffffffffffffffffffffff\n      and\n      dup2\n      mstore\n      0x20\n      add\n      swap1\n      dup2\n      mstore\n      0x20\n      add\n      0x00\n      keccak256\n        /* \"Gamegrid.sol\":3039:3090  UserProfile storage user = userProfiles[msg.sender] */\n      swap1\n      pop\n        /* \"Gamegrid.sol\":3114:3120  _class */\n      dup2\n        /* \"Gamegrid.sol\":3101:3105  user */\n      dup2\n        /* \"Gamegrid.sol\":3101:3111  user.class */\n      0x07\n      add\n        /* \"Gamegrid.sol\":3101:3120  user.class = _class */\n      swap1\n      dup2\n      tag_174\n      swap2\n      swap1\n      tag_63\n      jump\t// in\n    tag_174:\n      pop\n        /* \"Gamegrid.sol\":3155:3165  msg.sender */\n      caller\n        /* \"Gamegrid.sol\":3136:3179  UserProfileUpdated(msg.sender, user.userId) */\n      0xffffffffffffffffffffffffffffffffffffffff\n      and\n      0x9ab5b01c08788936fb2b48da858665afe9fa06d32e17dc49e0510c24ba05c983\n        /* \"Gamegrid.sol\":3167:3171  user */\n      dup3\n        /* \"Gamegrid.sol\":3167:3178  user.userId */\n      0x00\n      add\n        /* \"Gamegrid.sol\":3136:3179  UserProfileUpdated(msg.sender, user.userId) */\n      mload(0x40)\n      tag_175\n      swap2\n      swap1\n      tag_65\n      jump\t// in\n    tag_175:\n      mload(0x40)\n      dup1\n      swap2\n      sub\n      swap1\n      log2\n        /* \"Gamegrid.sol\":3028:3187  {... */\n      pop\n        /* \"Gamegrid.sol\":2963:3187  function updateClass(string memory _class) public onlyRegistered {... */\n      pop\n      jump\t// out\n        /* \"Gamegrid.sol\":2698:2922  function updateEmail(string memory _email) public onlyRegistered {... */\n    tag_49:\n        /* \"Gamegrid.sol\":1140:1152  isRegistered */\n      0x01\n        /* \"Gamegrid.sol\":1140:1164  isRegistered[msg.sender] */\n      0x00\n        /* \"Gamegrid.sol\":1153:1163  msg.sender */\n      caller\n        /* \"Gamegrid.sol\":1140:1164  isRegistered[msg.sender] */\n      0xffffffffffffffffffffffffffffffffffffffff\n      and\n      0xffffffffffffffffffffffffffffffffffffffff\n      and\n      dup2\n      mstore\n      0x20\n      add\n      swap1\n      dup2\n      mstore\n      0x20\n      add\n      0x00\n      keccak256\n      0x00\n      swap1\n      sload\n      swap1\n      0x0100\n      exp\n      swap1\n      div\n      0xff\n      and\n        /* \"Gamegrid.sol\":1132:1189  require(isRegistered[msg.sender], \"User not registered.\") */\n      tag_177\n      jumpi\n      mload(0x40)\n      0x08c379a000000000000000000000000000000000000000000000000000000000\n      dup2\n      mstore\n      0x04\n      add\n      tag_178\n      swap1\n      tag_60\n      jump\t// in\n    tag_178:\n      mload(0x40)\n      dup1\n      swap2\n      sub\n      swap1\n      revert\n    tag_177:\n        /* \"Gamegrid.sol\":2774:2798  UserProfile storage user */\n      0x00\n        /* \"Gamegrid.sol\":2801:2813  userProfiles */\n      0x00\n        /* \"Gamegrid.sol\":2801:2825  userProfiles[msg.sender] */\n      0x00\n        /* \"Gamegrid.sol\":2814:2824  msg.sender */\n      caller\n        /* \"Gamegrid.sol\":2801:2825  userProfiles[msg.sender] */\n      0xffffffffffffffffffffffffffffffffffffffff\n      and\n      0xffffffffffffffffffffffffffffffffffffffff\n      and\n      dup2\n      mstore\n      0x20\n      add\n      swap1\n      dup2\n      mstore\n      0x20\n      add\n      0x00\n      keccak256\n        /* \"Gamegrid.sol\":2774:2825  UserProfile storage user = userProfiles[msg.sender] */\n      swap1\n      pop\n        /* \"Gamegrid.sol\":2849:2855  _email */\n      dup2\n        /* \"Gamegrid.sol\":2836:2840  user */\n      dup2\n        /* \"Gamegrid.sol\":2836:2846  user.email */\n      0x02\n      add\n        /* \"Gamegrid.sol\":2836:2855  user.email = _email */\n      swap1\n      dup2\n      tag_180\n      swap2\n      swap1\n      tag_63\n      jump\t// in\n    tag_180:\n      pop\n        /* \"Gamegrid.sol\":2890:2900  msg.sender */\n      caller\n        /* \"Gamegrid.sol\":2871:2914  UserProfileUpdated(msg.sender, user.userId) */\n      0xffffffffffffffffffffffffffffffffffffffff\n      and\n      0x9ab5b01c08788936fb2b48da858665afe9fa06d32e17dc49e0510c24ba05c983\n        /* \"Gamegrid.sol\":2902:2906  user */\n      dup3\n        /* \"Gamegrid.sol\":2902:2913  user.userId */\n      0x00\n      add\n        /* \"Gamegrid.sol\":2871:2914  UserProfileUpdated(msg.sender, user.userId) */\n      mload(0x40)\n      tag_181\n      swap2\n      swap1\n      tag_65\n      jump\t// in\n    tag_181:\n      mload(0x40)\n      dup1\n      swap2\n      sub\n      swap1\n      log2\n        /* \"Gamegrid.sol\":2763:2922  {... */\n      pop\n        /* \"Gamegrid.sol\":2698:2922  function updateEmail(string memory _email) public onlyRegistered {... */\n      pop\n      jump\t// out\n        /* \"Gamegrid.sol\":5362:5503  function getUserWalletAddress() public view onlyRegistered returns (address) {... */\n    tag_51:\n        /* \"Gamegrid.sol\":5430:5437  address */\n      0x00\n        /* \"Gamegrid.sol\":1140:1152  isRegistered */\n      0x01\n        /* \"Gamegrid.sol\":1140:1164  isRegistered[msg.sender] */\n      0x00\n        /* \"Gamegrid.sol\":1153:1163  msg.sender */\n      caller\n        /* \"Gamegrid.sol\":1140:1164  isRegistered[msg.sender] */\n      0xffffffffffffffffffffffffffffffffffffffff\n      and\n      0xffffffffffffffffffffffffffffffffffffffff\n      and\n      dup2\n      mstore\n      0x20\n      add\n      swap1\n      dup2\n      mstore\n      0x20\n      add\n      0x00\n      keccak256\n      0x00\n      swap1\n      sload\n      swap1\n      0x0100\n      exp\n      swap1\n      div\n      0xff\n      and\n        /* \"Gamegrid.sol\":1132:1189  require(isRegistered[msg.sender], \"User not registered.\") */\n      tag_183\n      jumpi\n      mload(0x40)\n      0x08c379a000000000000000000000000000000000000000000000000000000000\n      dup2\n      mstore\n      0x04\n      add\n      tag_184\n      swap1\n      tag_60\n      jump\t// in\n    tag_184:\n      mload(0x40)\n      dup1\n      swap2\n      sub\n      swap1\n      revert\n    tag_183:\n        /* \"Gamegrid.sol\":5457:5469  userProfiles */\n      0x00\n        /* \"Gamegrid.sol\":5457:5481  userProfiles[msg.sender] */\n      0x00\n        /* \"Gamegrid.sol\":5470:5480  msg.sender */\n      caller\n        /* \"Gamegrid.sol\":5457:5481  userProfiles[msg.sender] */\n      0xffffffffffffffffffffffffffffffffffffffff\n      and\n      0xffffffffffffffffffffffffffffffffffffffff\n      and\n      dup2\n      mstore\n      0x20\n      add\n      swap1\n      dup2\n      mstore\n      0x20\n      add\n      0x00\n      keccak256\n        /* \"Gamegrid.sol\":5457:5495  userProfiles[msg.sender].walletAddress */\n      0x0c\n      add\n      0x00\n      swap1\n      sload\n      swap1\n      0x0100\n      exp\n      swap1\n      div\n      0xffffffffffffffffffffffffffffffffffffffff\n      and\n        /* \"Gamegrid.sol\":5450:5495  return userProfiles[msg.sender].walletAddress */\n      swap1\n      pop\n        /* \"Gamegrid.sol\":5362:5503  function getUserWalletAddress() public view onlyRegistered returns (address) {... */\n      swap1\n      jump\t// out\n        /* \"Gamegrid.sol\":4327:4615  function addPoints(uint256 _lvPoints, uint256 _ggPoints) public onlyRegistered {... */\n    tag_56:\n        /* \"Gamegrid.sol\":1140:1152  isRegistered */\n      0x01\n        /* \"Gamegrid.sol\":1140:1164  isRegistered[msg.sender] */\n      0x00\n        /* \"Gamegrid.sol\":1153:1163  msg.sender */\n      caller\n        /* \"Gamegrid.sol\":1140:1164  isRegistered[msg.sender] */\n      0xffffffffffffffffffffffffffffffffffffffff\n      and\n      0xffffffffffffffffffffffffffffffffffffffff\n      and\n      dup2\n      mstore\n      0x20\n      add\n      swap1\n      dup2\n      mstore\n      0x20\n      add\n      0x00\n      keccak256\n      0x00\n      swap1\n      sload\n      swap1\n      0x0100\n      exp\n      swap1\n      div\n      0xff\n      and\n        /* \"Gamegrid.sol\":1132:1189  require(isRegistered[msg.sender], \"User not registered.\") */\n      tag_187\n      jumpi\n      mload(0x40)\n      0x08c379a000000000000000000000000000000000000000000000000000000000\n      dup2\n      mstore\n      0x04\n      add\n      tag_188\n      swap1\n      tag_60\n      jump\t// in\n    tag_188:\n      mload(0x40)\n      dup1\n      swap2\n      sub\n      swap1\n      revert\n    tag_187:\n        /* \"Gamegrid.sol\":4417:4441  UserProfile storage user */\n      0x00\n        /* \"Gamegrid.sol\":4444:4456  userProfiles */\n      0x00\n        /* \"Gamegrid.sol\":4444:4468  userProfiles[msg.sender] */\n      0x00\n        /* \"Gamegrid.sol\":4457:4467  msg.sender */\n      caller\n        /* \"Gamegrid.sol\":4444:4468  userProfiles[msg.sender] */\n      0xffffffffffffffffffffffffffffffffffffffff\n      and\n      0xffffffffffffffffffffffffffffffffffffffff\n      and\n      dup2\n      mstore\n      0x20\n      add\n      swap1\n      dup2\n      mstore\n      0x20\n      add\n      0x00\n      keccak256\n        /* \"Gamegrid.sol\":4417:4468  UserProfile storage user = userProfiles[msg.sender] */\n      swap1\n      pop\n        /* \"Gamegrid.sol\":4498:4507  _lvPoints */\n      dup3\n        /* \"Gamegrid.sol\":4481:4485  user */\n      dup2\n        /* \"Gamegrid.sol\":4481:4494  user.lvPoints */\n      0x05\n      add\n      0x00\n        /* \"Gamegrid.sol\":4481:4507  user.lvPoints += _lvPoints */\n      dup3\n      dup3\n      sload\n      tag_190\n      swap2\n      swap1\n      tag_191\n      jump\t// in\n    tag_190:\n      swap3\n      pop\n      pop\n      dup2\n      swap1\n      sstore\n      pop\n        /* \"Gamegrid.sol\":4535:4544  _ggPoints */\n      dup2\n        /* \"Gamegrid.sol\":4518:4522  user */\n      dup2\n        /* \"Gamegrid.sol\":4518:4531  user.ggPoints */\n      0x06\n      add\n      0x00\n        /* \"Gamegrid.sol\":4518:4544  user.ggPoints += _ggPoints */\n      dup3\n      dup3\n      sload\n      tag_192\n      swap2\n      swap1\n      tag_191\n      jump\t// in\n    tag_192:\n      swap3\n      pop\n      pop\n      dup2\n      swap1\n      sstore\n      pop\n        /* \"Gamegrid.sol\":4574:4584  msg.sender */\n      caller\n        /* \"Gamegrid.sol\":4562:4607  PointsAdded(msg.sender, _lvPoints, _ggPoints) */\n      0xffffffffffffffffffffffffffffffffffffffff\n      and\n      0x27909057bad6ce6fc50ecea73759a0da1ec7790bbb0144577bf31372a78b3e64\n        /* \"Gamegrid.sol\":4586:4595  _lvPoints */\n      dup5\n        /* \"Gamegrid.sol\":4597:4606  _ggPoints */\n      dup5\n        /* \"Gamegrid.sol\":4562:4607  PointsAdded(msg.sender, _lvPoints, _ggPoints) */\n      mload(0x40)\n      tag_193\n      swap3\n      swap2\n      swap1\n      tag_169\n      jump\t// in\n    tag_193:\n      mload(0x40)\n      dup1\n      swap2\n      sub\n      swap1\n      log2\n        /* \"Gamegrid.sol\":4406:4615  {... */\n      pop\n        /* \"Gamegrid.sol\":4327:4615  function addPoints(uint256 _lvPoints, uint256 _ggPoints) public onlyRegistered {... */\n      pop\n      pop\n      jump\t// out\n        /* \"Gamegrid.sol\":5561:6075  function uint2str(uint256 _i) internal pure returns (string memory) {... */\n    tag_124:\n        /* \"Gamegrid.sol\":5614:5627  string memory */\n      0x60\n        /* \"Gamegrid.sol\":5650:5651  0 */\n      0x00\n        /* \"Gamegrid.sol\":5644:5646  _i */\n      dup3\n        /* \"Gamegrid.sol\":5644:5651  _i == 0 */\n      sub\n        /* \"Gamegrid.sol\":5640:5690  if (_i == 0) {... */\n      tag_195\n      jumpi\n        /* \"Gamegrid.sol\":5668:5678  return \"0\" */\n      mload(0x40)\n      dup1\n      0x40\n      add\n      0x40\n      mstore\n      dup1\n      0x01\n      dup2\n      mstore\n      0x20\n      add\n      0x3000000000000000000000000000000000000000000000000000000000000000\n      dup2\n      mstore\n      pop\n      swap1\n      pop\n      jump(tag_194)\n        /* \"Gamegrid.sol\":5640:5690  if (_i == 0) {... */\n    tag_195:\n        /* \"Gamegrid.sol\":5700:5712  uint256 temp */\n      0x00\n        /* \"Gamegrid.sol\":5715:5717  _i */\n      dup3\n        /* \"Gamegrid.sol\":5700:5717  uint256 temp = _i */\n      swap1\n      pop\n        /* \"Gamegrid.sol\":5728:5742  uint256 digits */\n      0x00\n        /* \"Gamegrid.sol\":5753:5831  while (temp != 0) {... */\n    tag_196:\n        /* \"Gamegrid.sol\":5768:5769  0 */\n      0x00\n        /* \"Gamegrid.sol\":5760:5764  temp */\n      dup3\n        /* \"Gamegrid.sol\":5760:5769  temp != 0 */\n      eq\n        /* \"Gamegrid.sol\":5753:5831  while (temp != 0) {... */\n      tag_197\n      jumpi\n        /* \"Gamegrid.sol\":5786:5794  digits++ */\n      dup1\n      dup1\n      tag_198\n      swap1\n      tag_199\n      jump\t// in\n    tag_198:\n      swap2\n      pop\n      pop\n        /* \"Gamegrid.sol\":5817:5819  10 */\n      0x0a\n        /* \"Gamegrid.sol\":5809:5819  temp /= 10 */\n      dup3\n      tag_200\n      swap2\n      swap1\n      tag_201\n      jump\t// in\n    tag_200:\n      swap2\n      pop\n        /* \"Gamegrid.sol\":5753:5831  while (temp != 0) {... */\n      jump(tag_196)\n    tag_197:\n        /* \"Gamegrid.sol\":5841:5860  bytes memory buffer */\n      0x00\n        /* \"Gamegrid.sol\":5873:5879  digits */\n      dup2\n        /* \"Gamegrid.sol\":5863:5880  new bytes(digits) */\n      0xffffffffffffffff\n      dup2\n      gt\n      iszero\n      tag_202\n      jumpi\n      tag_203\n      tag_204\n      jump\t// in\n    tag_203:\n    tag_202:\n      mload(0x40)\n      swap1\n      dup1\n      dup3\n      mstore\n      dup1\n      0x1f\n      add\n      not(0x1f)\n      and\n      0x20\n      add\n      dup3\n      add\n      0x40\n      mstore\n      dup1\n      iszero\n      tag_205\n      jumpi\n      dup2\n      0x20\n      add\n      0x01\n      dup3\n      mul\n      dup1\n      calldatasize\n      dup4\n      calldatacopy\n      dup1\n      dup3\n      add\n      swap2\n      pop\n      pop\n      swap1\n      pop\n    tag_205:\n      pop\n        /* \"Gamegrid.sol\":5841:5880  bytes memory buffer = new bytes(digits) */\n      swap1\n      pop\n        /* \"Gamegrid.sol\":5891:6036  while (_i != 0) {... */\n    tag_206:\n        /* \"Gamegrid.sol\":5904:5905  0 */\n      0x00\n        /* \"Gamegrid.sol\":5898:5900  _i */\n      dup6\n        /* \"Gamegrid.sol\":5898:5905  _i != 0 */\n      eq\n        /* \"Gamegrid.sol\":5891:6036  while (_i != 0) {... */\n      tag_207\n      jumpi\n        /* \"Gamegrid.sol\":5932:5933  1 */\n      0x01\n        /* \"Gamegrid.sol\":5922:5933  digits -= 1 */\n      dup3\n      tag_208\n      swap2\n      swap1\n      tag_166\n      jump\t// in\n    tag_208:\n      swap2\n      pop\n        /* \"Gamegrid.sol\":5996:5998  10 */\n      0x0a\n        /* \"Gamegrid.sol\":5991:5993  _i */\n      dup6\n        /* \"Gamegrid.sol\":5991:5998  _i % 10 */\n      tag_209\n      swap2\n      swap1\n      tag_210\n      jump\t// in\n    tag_209:\n        /* \"Gamegrid.sol\":5978:5980  48 */\n      0x30\n        /* \"Gamegrid.sol\":5978:5999  48 + uint256(_i % 10) */\n      tag_211\n      swap2\n      swap1\n      tag_191\n      jump\t// in\n    tag_211:\n        /* \"Gamegrid.sol\":5965:6001  bytes1(uint8(48 + uint256(_i % 10))) */\n      0xf8\n      shl\n        /* \"Gamegrid.sol\":5948:5954  buffer */\n      dup2\n        /* \"Gamegrid.sol\":5955:5961  digits */\n      dup4\n        /* \"Gamegrid.sol\":5948:5962  buffer[digits] */\n      dup2\n      mload\n      dup2\n      lt\n      tag_212\n      jumpi\n      tag_213\n      tag_214\n      jump\t// in\n    tag_213:\n    tag_212:\n      0x20\n      add\n      add\n        /* \"Gamegrid.sol\":5948:6001  buffer[digits] = bytes1(uint8(48 + uint256(_i % 10))) */\n      swap1\n      not(0xffffffffffffffffffffffffffffffffffffffffffffffffffffffffffffff)\n      and\n      swap1\n      dup2\n      0x00\n      byte\n      swap1\n      mstore8\n      pop\n        /* \"Gamegrid.sol\":6022:6024  10 */\n      0x0a\n        /* \"Gamegrid.sol\":6016:6024  _i /= 10 */\n      dup6\n      tag_215\n      swap2\n      swap1\n      tag_201\n      jump\t// in\n    tag_215:\n      swap5\n      pop\n        /* \"Gamegrid.sol\":5891:6036  while (_i != 0) {... */\n      jump(tag_206)\n    tag_207:\n        /* \"Gamegrid.sol\":6060:6066  buffer */\n      dup1\n        /* \"Gamegrid.sol\":6046:6067  return string(buffer) */\n      swap4\n      pop\n      pop\n      pop\n      pop\n        /* \"Gamegrid.sol\":5561:6075  function uint2str(uint256 _i) internal pure returns (string memory) {... */\n    tag_194:\n      swap2\n      swap1\n      pop\n      jump\t// out\n    tag_73:\n      mload(0x40)\n      dup1\n      0x01a0\n      add\n      0x40\n      mstore\n      dup1\n      0x60\n      dup2\n      mstore\n      0x20\n      add\n      0x60\n      dup2\n      mstore\n      0x20\n      add\n      0x60\n      dup2\n      mstore\n      0x20\n      add\n      0x00\n      dup2\n      mstore\n      0x20\n      add\n      0x00\n      dup2\n      mstore\n      0x20\n      add\n      0x00\n      dup2\n      mstore\n      0x20\n      add\n      0x00\n      dup2\n      mstore\n      0x20\n      add\n      0x60\n      dup2\n      mstore\n      0x20\n      add\n      0x60\n      dup2\n      mstore\n      0x20\n      add\n      0x60\n      dup2\n      mstore\n      0x20\n      add\n      0x60\n      dup2\n      mstore\n      0x20\n      add\n      0x60\n      dup2\n      mstore\n      0x20\n      add\n      and(0xffffffffffffffffffffffffffffffffffffffff, 0x00)\n      dup2\n      mstore\n      pop\n      swap1\n      jump\t// out\n        /* \"#utility.yul\":7:82   */\n    tag_216:\n        /* \"#utility.yul\":40:46   */\n      0x00\n        /* \"#utility.yul\":73:75   */\n      0x40\n        /* \"#utility.yul\":67:76   */\n      mload\n        /* \"#utility.yul\":57:76   */\n      swap1\n      pop\n        /* \"#utility.yul\":7:82   */\n      swap1\n      jump\t// out\n        /* \"#utility.yul\":88:205   */\n    tag_217:\n        /* \"#utility.yul\":197:198   */\n      0x00\n        /* \"#utility.yul\":194:195   */\n      0x00\n        /* \"#utility.yul\":187:199   */\n      revert\n        /* \"#utility.yul\":211:328   */\n    tag_218:\n        /* \"#utility.yul\":320:321   */\n      0x00\n        /* \"#utility.yul\":317:318   */\n      0x00\n        /* \"#utility.yul\":310:322   */\n      revert\n        /* \"#utility.yul\":334:451   */\n    tag_219:\n        /* \"#utility.yul\":443:444   */\n      0x00\n        /* \"#utility.yul\":440:441   */\n      0x00\n        /* \"#utility.yul\":433:445   */\n      revert\n        /* \"#utility.yul\":457:574   */\n    tag_220:\n        /* \"#utility.yul\":566:567   */\n      0x00\n        /* \"#utility.yul\":563:564   */\n      0x00\n        /* \"#utility.yul\":556:568   */\n      revert\n        /* \"#utility.yul\":580:682   */\n    tag_221:\n        /* \"#utility.yul\":621:627   */\n      0x00\n        /* \"#utility.yul\":672:674   */\n      0x1f\n        /* \"#utility.yul\":668:675   */\n      not\n        /* \"#utility.yul\":663:665   */\n      0x1f\n        /* \"#utility.yul\":656:661   */\n      dup4\n        /* \"#utility.yul\":652:666   */\n      add\n        /* \"#utility.yul\":648:676   */\n      and\n        /* \"#utility.yul\":638:676   */\n      swap1\n      pop\n        /* \"#utility.yul\":580:682   */\n      swap2\n      swap1\n      pop\n      jump\t// out\n        /* \"#utility.yul\":688:868   */\n    tag_204:\n        /* \"#utility.yul\":736:813   */\n      0x4e487b7100000000000000000000000000000000000000000000000000000000\n        /* \"#utility.yul\":733:734   */\n      0x00\n        /* \"#utility.yul\":726:814   */\n      mstore\n        /* \"#utility.yul\":833:837   */\n      0x41\n        /* \"#utility.yul\":830:831   */\n      0x04\n        /* \"#utility.yul\":823:838   */\n      mstore\n        /* \"#utility.yul\":857:861   */\n      0x24\n        /* \"#utility.yul\":854:855   */\n      0x00\n        /* \"#utility.yul\":847:862   */\n      revert\n        /* \"#utility.yul\":874:1155   */\n    tag_222:\n        /* \"#utility.yul\":957:984   */\n      tag_284\n        /* \"#utility.yul\":979:983   */\n      dup3\n        /* \"#utility.yul\":957:984   */\n      tag_221\n      jump\t// in\n    tag_284:\n        /* \"#utility.yul\":949:955   */\n      dup2\n        /* \"#utility.yul\":945:985   */\n      add\n        /* \"#utility.yul\":1087:1093   */\n      dup2\n        /* \"#utility.yul\":1075:1085   */\n      dup2\n        /* \"#utility.yul\":1072:1094   */\n      lt\n        /* \"#utility.yul\":1051:1069   */\n      0xffffffffffffffff\n        /* \"#utility.yul\":1039:1049   */\n      dup3\n        /* \"#utility.yul\":1036:1070   */\n      gt\n        /* \"#utility.yul\":1033:1095   */\n      or\n        /* \"#utility.yul\":1030:1118   */\n      iszero\n      tag_285\n      jumpi\n        /* \"#utility.yul\":1098:1116   */\n      tag_286\n      tag_204\n      jump\t// in\n    tag_286:\n        /* \"#utility.yul\":1030:1118   */\n    tag_285:\n        /* \"#utility.yul\":1138:1148   */\n      dup1\n        /* \"#utility.yul\":1134:1136   */\n      0x40\n        /* \"#utility.yul\":1127:1149   */\n      mstore\n        /* \"#utility.yul\":917:1155   */\n      pop\n        /* \"#utility.yul\":874:1155   */\n      pop\n      pop\n      jump\t// out\n        /* \"#utility.yul\":1161:1290   */\n    tag_223:\n        /* \"#utility.yul\":1195:1201   */\n      0x00\n        /* \"#utility.yul\":1222:1242   */\n      tag_288\n      tag_216\n      jump\t// in\n    tag_288:\n        /* \"#utility.yul\":1212:1242   */\n      swap1\n      pop\n        /* \"#utility.yul\":1251:1284   */\n      tag_289\n        /* \"#utility.yul\":1279:1283   */\n      dup3\n        /* \"#utility.yul\":1271:1277   */\n      dup3\n        /* \"#utility.yul\":1251:1284   */\n      tag_222\n      jump\t// in\n    tag_289:\n        /* \"#utility.yul\":1161:1290   */\n      swap2\n      swap1\n      pop\n      jump\t// out\n        /* \"#utility.yul\":1296:1604   */\n    tag_224:\n        /* \"#utility.yul\":1358:1362   */\n      0x00\n        /* \"#utility.yul\":1448:1466   */\n      0xffffffffffffffff\n        /* \"#utility.yul\":1440:1446   */\n      dup3\n        /* \"#utility.yul\":1437:1467   */\n      gt\n        /* \"#utility.yul\":1434:1490   */\n      iszero\n      tag_291\n      jumpi\n        /* \"#utility.yul\":1470:1488   */\n      tag_292\n      tag_204\n      jump\t// in\n    tag_292:\n        /* \"#utility.yul\":1434:1490   */\n    tag_291:\n        /* \"#utility.yul\":1508:1537   */\n      tag_293\n        /* \"#utility.yul\":1530:1536   */\n      dup3\n        /* \"#utility.yul\":1508:1537   */\n      tag_221\n      jump\t// in\n    tag_293:\n        /* \"#utility.yul\":1500:1537   */\n      swap1\n      pop\n        /* \"#utility.yul\":1592:1596   */\n      0x20\n        /* \"#utility.yul\":1586:1590   */\n      dup2\n        /* \"#utility.yul\":1582:1597   */\n      add\n        /* \"#utility.yul\":1574:1597   */\n      swap1\n      pop\n        /* \"#utility.yul\":1296:1604   */\n      swap2\n      swap1\n      pop\n      jump\t// out\n        /* \"#utility.yul\":1610:1758   */\n    tag_225:\n        /* \"#utility.yul\":1708:1714   */\n      dup3\n        /* \"#utility.yul\":1703:1706   */\n      dup2\n        /* \"#utility.yul\":1698:1701   */\n      dup4\n        /* \"#utility.yul\":1685:1715   */\n      calldatacopy\n        /* \"#utility.yul\":1749:1750   */\n      0x00\n        /* \"#utility.yul\":1740:1746   */\n      dup4\n        /* \"#utility.yul\":1735:1738   */\n      dup4\n        /* \"#utility.yul\":1731:1747   */\n      add\n        /* \"#utility.yul\":1724:1751   */\n      mstore\n        /* \"#utility.yul\":1610:1758   */\n      pop\n      pop\n      pop\n      jump\t// out\n        /* \"#utility.yul\":1764:2189   */\n    tag_226:\n        /* \"#utility.yul\":1842:1847   */\n      0x00\n        /* \"#utility.yul\":1867:1933   */\n      tag_296\n        /* \"#utility.yul\":1883:1932   */\n      tag_297\n        /* \"#utility.yul\":1925:1931   */\n      dup5\n        /* \"#utility.yul\":1883:1932   */\n      tag_224\n      jump\t// in\n    tag_297:\n        /* \"#utility.yul\":1867:1933   */\n      tag_223\n      jump\t// in\n    tag_296:\n        /* \"#utility.yul\":1858:1933   */\n      swap1\n      pop\n        /* \"#utility.yul\":1956:1962   */\n      dup3\n        /* \"#utility.yul\":1949:1954   */\n      dup2\n        /* \"#utility.yul\":1942:1963   */\n      mstore\n        /* \"#utility.yul\":1994:1998   */\n      0x20\n        /* \"#utility.yul\":1987:1992   */\n      dup2\n        /* \"#utility.yul\":1983:1999   */\n      add\n        /* \"#utility.yul\":2032:2035   */\n      dup5\n        /* \"#utility.yul\":2023:2029   */\n      dup5\n        /* \"#utility.yul\":2018:2021   */\n      dup5\n        /* \"#utility.yul\":2014:2030   */\n      add\n        /* \"#utility.yul\":2011:2036   */\n      gt\n        /* \"#utility.yul\":2008:2120   */\n      iszero\n      tag_298\n      jumpi\n        /* \"#utility.yul\":2039:2118   */\n      tag_299\n      tag_220\n      jump\t// in\n    tag_299:\n        /* \"#utility.yul\":2008:2120   */\n    tag_298:\n        /* \"#utility.yul\":2129:2183   */\n      tag_300\n        /* \"#utility.yul\":2176:2182   */\n      dup5\n        /* \"#utility.yul\":2171:2174   */\n      dup3\n        /* \"#utility.yul\":2166:2169   */\n      dup6\n        /* \"#utility.yul\":2129:2183   */\n      tag_225\n      jump\t// in\n    tag_300:\n        /* \"#utility.yul\":1848:2189   */\n      pop\n        /* \"#utility.yul\":1764:2189   */\n      swap4\n      swap3\n      pop\n      pop\n      pop\n      jump\t// out\n        /* \"#utility.yul\":2209:2549   */\n    tag_227:\n        /* \"#utility.yul\":2265:2270   */\n      0x00\n        /* \"#utility.yul\":2314:2317   */\n      dup3\n        /* \"#utility.yul\":2307:2311   */\n      0x1f\n        /* \"#utility.yul\":2299:2305   */\n      dup4\n        /* \"#utility.yul\":2295:2312   */\n      add\n        /* \"#utility.yul\":2291:2318   */\n      slt\n        /* \"#utility.yul\":2281:2403   */\n      tag_302\n      jumpi\n        /* \"#utility.yul\":2322:2401   */\n      tag_303\n      tag_219\n      jump\t// in\n    tag_303:\n        /* \"#utility.yul\":2281:2403   */\n    tag_302:\n        /* \"#utility.yul\":2439:2445   */\n      dup2\n        /* \"#utility.yul\":2426:2446   */\n      calldataload\n        /* \"#utility.yul\":2464:2543   */\n      tag_304\n        /* \"#utility.yul\":2539:2542   */\n      dup5\n        /* \"#utility.yul\":2531:2537   */\n      dup3\n        /* \"#utility.yul\":2524:2528   */\n      0x20\n        /* \"#utility.yul\":2516:2522   */\n      dup7\n        /* \"#utility.yul\":2512:2529   */\n      add\n        /* \"#utility.yul\":2464:2543   */\n      tag_226\n      jump\t// in\n    tag_304:\n        /* \"#utility.yul\":2455:2543   */\n      swap2\n      pop\n        /* \"#utility.yul\":2271:2549   */\n      pop\n        /* \"#utility.yul\":2209:2549   */\n      swap3\n      swap2\n      pop\n      pop\n      jump\t// out\n        /* \"#utility.yul\":2555:3064   */\n    tag_18:\n        /* \"#utility.yul\":2624:2630   */\n      0x00\n        /* \"#utility.yul\":2673:2675   */\n      0x20\n        /* \"#utility.yul\":2661:2670   */\n      dup3\n        /* \"#utility.yul\":2652:2659   */\n      dup5\n        /* \"#utility.yul\":2648:2671   */\n      sub\n        /* \"#utility.yul\":2644:2676   */\n      slt\n        /* \"#utility.yul\":2641:2760   */\n      iszero\n      tag_306\n      jumpi\n        /* \"#utility.yul\":2679:2758   */\n      tag_307\n      tag_217\n      jump\t// in\n    tag_307:\n        /* \"#utility.yul\":2641:2760   */\n    tag_306:\n        /* \"#utility.yul\":2827:2828   */\n      0x00\n        /* \"#utility.yul\":2816:2825   */\n      dup3\n        /* \"#utility.yul\":2812:2829   */\n      add\n        /* \"#utility.yul\":2799:2830   */\n      calldataload\n        /* \"#utility.yul\":2857:2875   */\n      0xffffffffffffffff\n        /* \"#utility.yul\":2849:2855   */\n      dup2\n        /* \"#utility.yul\":2846:2876   */\n      gt\n        /* \"#utility.yul\":2843:2960   */\n      iszero\n      tag_308\n      jumpi\n        /* \"#utility.yul\":2879:2958   */\n      tag_309\n      tag_218\n      jump\t// in\n    tag_309:\n        /* \"#utility.yul\":2843:2960   */\n    tag_308:\n        /* \"#utility.yul\":2984:3047   */\n      tag_310\n        /* \"#utility.yul\":3039:3046   */\n      dup5\n        /* \"#utility.yul\":3030:3036   */\n      dup3\n        /* \"#utility.yul\":3019:3028   */\n      dup6\n        /* \"#utility.yul\":3015:3037   */\n      add\n        /* \"#utility.yul\":2984:3047   */\n      tag_227\n      jump\t// in\n    tag_310:\n        /* \"#utility.yul\":2974:3047   */\n      swap2\n      pop\n        /* \"#utility.yul\":2770:3057   */\n      pop\n        /* \"#utility.yul\":2555:3064   */\n      swap3\n      swap2\n      pop\n      pop\n      jump\t// out\n        /* \"#utility.yul\":3070:3169   */\n    tag_228:\n        /* \"#utility.yul\":3122:3128   */\n      0x00\n        /* \"#utility.yul\":3156:3161   */\n      dup2\n        /* \"#utility.yul\":3150:3162   */\n      mload\n        /* \"#utility.yul\":3140:3162   */\n      swap1\n      pop\n        /* \"#utility.yul\":3070:3169   */\n      swap2\n      swap1\n      pop\n      jump\t// out\n        /* \"#utility.yul\":3175:3334   */\n    tag_229:\n        /* \"#utility.yul\":3249:3260   */\n      0x00\n        /* \"#utility.yul\":3283:3289   */\n      dup3\n        /* \"#utility.yul\":3278:3281   */\n      dup3\n        /* \"#utility.yul\":3271:3290   */\n      mstore\n        /* \"#utility.yul\":3323:3327   */\n      0x20\n        /* \"#utility.yul\":3318:3321   */\n      dup3\n        /* \"#utility.yul\":3314:3328   */\n      add\n        /* \"#utility.yul\":3299:3328   */\n      swap1\n      pop\n        /* \"#utility.yul\":3175:3334   */\n      swap3\n      swap2\n      pop\n      pop\n      jump\t// out\n        /* \"#utility.yul\":3340:3588   */\n    tag_230:\n        /* \"#utility.yul\":3422:3423   */\n      0x00\n        /* \"#utility.yul\":3432:3545   */\n    tag_314:\n        /* \"#utility.yul\":3446:3452   */\n      dup4\n        /* \"#utility.yul\":3443:3444   */\n      dup2\n        /* \"#utility.yul\":3440:3453   */\n      lt\n        /* \"#utility.yul\":3432:3545   */\n      iszero\n      tag_316\n      jumpi\n        /* \"#utility.yul\":3531:3532   */\n      dup1\n        /* \"#utility.yul\":3526:3529   */\n      dup3\n        /* \"#utility.yul\":3522:3533   */\n      add\n        /* \"#utility.yul\":3516:3534   */\n      mload\n        /* \"#utility.yul\":3512:3513   */\n      dup2\n        /* \"#utility.yul\":3507:3510   */\n      dup5\n        /* \"#utility.yul\":3503:3514   */\n      add\n        /* \"#utility.yul\":3496:3535   */\n      mstore\n        /* \"#utility.yul\":3468:3470   */\n      0x20\n        /* \"#utility.yul\":3465:3466   */\n      dup2\n        /* \"#utility.yul\":3461:3471   */\n      add\n        /* \"#utility.yul\":3456:3471   */\n      swap1\n      pop\n        /* \"#utility.yul\":3432:3545   */\n      jump(tag_314)\n    tag_316:\n        /* \"#utility.yul\":3579:3580   */\n      0x00\n        /* \"#utility.yul\":3570:3576   */\n      dup5\n        /* \"#utility.yul\":3565:3568   */\n      dup5\n        /* \"#utility.yul\":3561:3577   */\n      add\n        /* \"#utility.yul\":3554:3581   */\n      mstore\n        /* \"#utility.yul\":3402:3588   */\n      pop\n        /* \"#utility.yul\":3340:3588   */\n      pop\n      pop\n      pop\n      jump\t// out\n        /* \"#utility.yul\":3594:3951   */\n    tag_231:\n        /* \"#utility.yul\":3672:3675   */\n      0x00\n        /* \"#utility.yul\":3700:3739   */\n      tag_318\n        /* \"#utility.yul\":3733:3738   */\n      dup3\n        /* \"#utility.yul\":3700:3739   */\n      tag_228\n      jump\t// in\n    tag_318:\n        /* \"#utility.yul\":3755:3816   */\n      tag_319\n        /* \"#utility.yul\":3809:3815   */\n      dup2\n        /* \"#utility.yul\":3804:3807   */\n      dup6\n        /* \"#utility.yul\":3755:3816   */\n      tag_229\n      jump\t// in\n    tag_319:\n        /* \"#utility.yul\":3748:3816   */\n      swap4\n      pop\n        /* \"#utility.yul\":3825:3890   */\n      tag_320\n        /* \"#utility.yul\":3883:3889   */\n      dup2\n        /* \"#utility.yul\":3878:3881   */\n      dup6\n        /* \"#utility.yul\":3871:3875   */\n      0x20\n        /* \"#utility.yul\":3864:3869   */\n      dup7\n        /* \"#utility.yul\":3860:3876   */\n      add\n        /* \"#utility.yul\":3825:3890   */\n      tag_230\n      jump\t// in\n    tag_320:\n        /* \"#utility.yul\":3915:3944   */\n      tag_321\n        /* \"#utility.yul\":3937:3943   */\n      dup2\n        /* \"#utility.yul\":3915:3944   */\n      tag_221\n      jump\t// in\n    tag_321:\n        /* \"#utility.yul\":3910:3913   */\n      dup5\n        /* \"#utility.yul\":3906:3945   */\n      add\n        /* \"#utility.yul\":3899:3945   */\n      swap2\n      pop\n        /* \"#utility.yul\":3676:3951   */\n      pop\n        /* \"#utility.yul\":3594:3951   */\n      swap3\n      swap2\n      pop\n      pop\n      jump\t// out\n        /* \"#utility.yul\":3957:4034   */\n    tag_232:\n        /* \"#utility.yul\":3994:4001   */\n      0x00\n        /* \"#utility.yul\":4023:4028   */\n      dup2\n        /* \"#utility.yul\":4012:4028   */\n      swap1\n      pop\n        /* \"#utility.yul\":3957:4034   */\n      swap2\n      swap1\n      pop\n      jump\t// out\n        /* \"#utility.yul\":4040:4148   */\n    tag_233:\n        /* \"#utility.yul\":4117:4141   */\n      tag_324\n        /* \"#utility.yul\":4135:4140   */\n      dup2\n        /* \"#utility.yul\":4117:4141   */\n      tag_232\n      jump\t// in\n    tag_324:\n        /* \"#utility.yul\":4112:4115   */\n      dup3\n        /* \"#utility.yul\":4105:4142   */\n      mstore\n        /* \"#utility.yul\":4040:4148   */\n      pop\n      pop\n      jump\t// out\n        /* \"#utility.yul\":4154:4280   */\n    tag_234:\n        /* \"#utility.yul\":4191:4198   */\n      0x00\n        /* \"#utility.yul\":4231:4273   */\n      0xffffffffffffffffffffffffffffffffffffffff\n        /* \"#utility.yul\":4224:4229   */\n      dup3\n        /* \"#utility.yul\":4220:4274   */\n      and\n        /* \"#utility.yul\":4209:4274   */\n      swap1\n      pop\n        /* \"#utility.yul\":4154:4280   */\n      swap2\n      swap1\n      pop\n      jump\t// out\n        /* \"#utility.yul\":4286:4382   */\n    tag_235:\n        /* \"#utility.yul\":4323:4330   */\n      0x00\n        /* \"#utility.yul\":4352:4376   */\n      tag_327\n        /* \"#utility.yul\":4370:4375   */\n      dup3\n        /* \"#utility.yul\":4352:4376   */\n      tag_234\n      jump\t// in\n    tag_327:\n        /* \"#utility.yul\":4341:4376   */\n      swap1\n      pop\n        /* \"#utility.yul\":4286:4382   */\n      swap2\n      swap1\n      pop\n      jump\t// out\n        /* \"#utility.yul\":4388:4496   */\n    tag_236:\n        /* \"#utility.yul\":4465:4489   */\n      tag_329\n        /* \"#utility.yul\":4483:4488   */\n      dup2\n        /* \"#utility.yul\":4465:4489   */\n      tag_235\n      jump\t// in\n    tag_329:\n        /* \"#utility.yul\":4460:4463   */\n      dup3\n        /* \"#utility.yul\":4453:4490   */\n      mstore\n        /* \"#utility.yul\":4388:4496   */\n      pop\n      pop\n      jump\t// out\n        /* \"#utility.yul\":4568:7662   */\n    tag_237:\n        /* \"#utility.yul\":4691:4694   */\n      0x00\n        /* \"#utility.yul\":4727:4733   */\n      0x01a0\n        /* \"#utility.yul\":4722:4725   */\n      dup4\n        /* \"#utility.yul\":4718:4734   */\n      add\n        /* \"#utility.yul\":4818:4822   */\n      0x00\n        /* \"#utility.yul\":4811:4816   */\n      dup4\n        /* \"#utility.yul\":4807:4823   */\n      add\n        /* \"#utility.yul\":4801:4824   */\n      mload\n        /* \"#utility.yul\":4871:4874   */\n      dup5\n        /* \"#utility.yul\":4865:4869   */\n      dup3\n        /* \"#utility.yul\":4861:4875   */\n      sub\n        /* \"#utility.yul\":4854:4858   */\n      0x00\n        /* \"#utility.yul\":4849:4852   */\n      dup7\n        /* \"#utility.yul\":4845:4859   */\n      add\n        /* \"#utility.yul\":4838:4876   */\n      mstore\n        /* \"#utility.yul\":4897:4970   */\n      tag_331\n        /* \"#utility.yul\":4965:4969   */\n      dup3\n        /* \"#utility.yul\":4951:4963   */\n      dup3\n        /* \"#utility.yul\":4897:4970   */\n      tag_231\n      jump\t// in\n    tag_331:\n        /* \"#utility.yul\":4889:4970   */\n      swap2\n      pop\n        /* \"#utility.yul\":4744:4981   */\n      pop\n        /* \"#utility.yul\":5067:5071   */\n      0x20\n        /* \"#utility.yul\":5060:5065   */\n      dup4\n        /* \"#utility.yul\":5056:5072   */\n      add\n        /* \"#utility.yul\":5050:5073   */\n      mload\n        /* \"#utility.yul\":5120:5123   */\n      dup5\n        /* \"#utility.yul\":5114:5118   */\n      dup3\n        /* \"#utility.yul\":5110:5124   */\n      sub\n        /* \"#utility.yul\":5103:5107   */\n      0x20\n        /* \"#utility.yul\":5098:5101   */\n      dup7\n        /* \"#utility.yul\":5094:5108   */\n      add\n        /* \"#utility.yul\":5087:5125   */\n      mstore\n        /* \"#utility.yul\":5146:5219   */\n      tag_332\n        /* \"#utility.yul\":5214:5218   */\n      dup3\n        /* \"#utility.yul\":5200:5212   */\n      dup3\n        /* \"#utility.yul\":5146:5219   */\n      tag_231\n      jump\t// in\n    tag_332:\n        /* \"#utility.yul\":5138:5219   */\n      swap2\n      pop\n        /* \"#utility.yul\":4991:5230   */\n      pop\n        /* \"#utility.yul\":5313:5317   */\n      0x40\n        /* \"#utility.yul\":5306:5311   */\n      dup4\n        /* \"#utility.yul\":5302:5318   */\n      add\n        /* \"#utility.yul\":5296:5319   */\n      mload\n        /* \"#utility.yul\":5366:5369   */\n      dup5\n        /* \"#utility.yul\":5360:5364   */\n      dup3\n        /* \"#utility.yul\":5356:5370   */\n      sub\n        /* \"#utility.yul\":5349:5353   */\n      0x40\n        /* \"#utility.yul\":5344:5347   */\n      dup7\n        /* \"#utility.yul\":5340:5354   */\n      add\n        /* \"#utility.yul\":5333:5371   */\n      mstore\n        /* \"#utility.yul\":5392:5465   */\n      tag_333\n        /* \"#utility.yul\":5460:5464   */\n      dup3\n        /* \"#utility.yul\":5446:5458   */\n      dup3\n        /* \"#utility.yul\":5392:5465   */\n      tag_231\n      jump\t// in\n    tag_333:\n        /* \"#utility.yul\":5384:5465   */\n      swap2\n      pop\n        /* \"#utility.yul\":5240:5476   */\n      pop\n        /* \"#utility.yul\":5566:5570   */\n      0x60\n        /* \"#utility.yul\":5559:5564   */\n      dup4\n        /* \"#utility.yul\":5555:5571   */\n      add\n        /* \"#utility.yul\":5549:5572   */\n      mload\n        /* \"#utility.yul\":5585:5648   */\n      tag_334\n        /* \"#utility.yul\":5642:5646   */\n      0x60\n        /* \"#utility.yul\":5637:5640   */\n      dup7\n        /* \"#utility.yul\":5633:5647   */\n      add\n        /* \"#utility.yul\":5619:5631   */\n      dup3\n        /* \"#utility.yul\":5585:5648   */\n      tag_233\n      jump\t// in\n    tag_334:\n        /* \"#utility.yul\":5486:5658   */\n      pop\n        /* \"#utility.yul\":5746:5750   */\n      0x80\n        /* \"#utility.yul\":5739:5744   */\n      dup4\n        /* \"#utility.yul\":5735:5751   */\n      add\n        /* \"#utility.yul\":5729:5752   */\n      mload\n        /* \"#utility.yul\":5765:5828   */\n      tag_335\n        /* \"#utility.yul\":5822:5826   */\n      0x80\n        /* \"#utility.yul\":5817:5820   */\n      dup7\n        /* \"#utility.yul\":5813:5827   */\n      add\n        /* \"#utility.yul\":5799:5811   */\n      dup3\n        /* \"#utility.yul\":5765:5828   */\n      tag_233\n      jump\t// in\n    tag_335:\n        /* \"#utility.yul\":5668:5838   */\n      pop\n        /* \"#utility.yul\":5924:5928   */\n      0xa0\n        /* \"#utility.yul\":5917:5922   */\n      dup4\n        /* \"#utility.yul\":5913:5929   */\n      add\n        /* \"#utility.yul\":5907:5930   */\n      mload\n        /* \"#utility.yul\":5943:6006   */\n      tag_336\n        /* \"#utility.yul\":6000:6004   */\n      0xa0\n        /* \"#utility.yul\":5995:5998   */\n      dup7\n        /* \"#utility.yul\":5991:6005   */\n      add\n        /* \"#utility.yul\":5977:5989   */\n      dup3\n        /* \"#utility.yul\":5943:6006   */\n      tag_233\n      jump\t// in\n    tag_336:\n        /* \"#utility.yul\":5848:6016   */\n      pop\n        /* \"#utility.yul\":6102:6106   */\n      0xc0\n        /* \"#utility.yul\":6095:6100   */\n      dup4\n        /* \"#utility.yul\":6091:6107   */\n      add\n        /* \"#utility.yul\":6085:6108   */\n      mload\n        /* \"#utility.yul\":6121:6184   */\n      tag_337\n        /* \"#utility.yul\":6178:6182   */\n      0xc0\n        /* \"#utility.yul\":6173:6176   */\n      dup7\n        /* \"#utility.yul\":6169:6183   */\n      add\n        /* \"#utility.yul\":6155:6167   */\n      dup3\n        /* \"#utility.yul\":6121:6184   */\n      tag_233\n      jump\t// in\n    tag_337:\n        /* \"#utility.yul\":6026:6194   */\n      pop\n        /* \"#utility.yul\":6277:6281   */\n      0xe0\n        /* \"#utility.yul\":6270:6275   */\n      dup4\n        /* \"#utility.yul\":6266:6282   */\n      add\n        /* \"#utility.yul\":6260:6283   */\n      mload\n        /* \"#utility.yul\":6330:6333   */\n      dup5\n        /* \"#utility.yul\":6324:6328   */\n      dup3\n        /* \"#utility.yul\":6320:6334   */\n      sub\n        /* \"#utility.yul\":6313:6317   */\n      0xe0\n        /* \"#utility.yul\":6308:6311   */\n      dup7\n        /* \"#utility.yul\":6304:6318   */\n      add\n        /* \"#utility.yul\":6297:6335   */\n      mstore\n        /* \"#utility.yul\":6356:6429   */\n      tag_338\n        /* \"#utility.yul\":6424:6428   */\n      dup3\n        /* \"#utility.yul\":6410:6422   */\n      dup3\n        /* \"#utility.yul\":6356:6429   */\n      tag_231\n      jump\t// in\n    tag_338:\n        /* \"#utility.yul\":6348:6429   */\n      swap2\n      pop\n        /* \"#utility.yul\":6204:6440   */\n      pop\n        /* \"#utility.yul\":6522:6528   */\n      0x0100\n        /* \"#utility.yul\":6515:6520   */\n      dup4\n        /* \"#utility.yul\":6511:6529   */\n      add\n        /* \"#utility.yul\":6505:6530   */\n      mload\n        /* \"#utility.yul\":6579:6582   */\n      dup5\n        /* \"#utility.yul\":6573:6577   */\n      dup3\n        /* \"#utility.yul\":6569:6583   */\n      sub\n        /* \"#utility.yul\":6560:6566   */\n      0x0100\n        /* \"#utility.yul\":6555:6558   */\n      dup7\n        /* \"#utility.yul\":6551:6567   */\n      add\n        /* \"#utility.yul\":6544:6584   */\n      mstore\n        /* \"#utility.yul\":6605:6678   */\n      tag_339\n        /* \"#utility.yul\":6673:6677   */\n      dup3\n        /* \"#utility.yul\":6659:6671   */\n      dup3\n        /* \"#utility.yul\":6605:6678   */\n      tag_231\n      jump\t// in\n    tag_339:\n        /* \"#utility.yul\":6597:6678   */\n      swap2\n      pop\n        /* \"#utility.yul\":6450:6689   */\n      pop\n        /* \"#utility.yul\":6773:6779   */\n      0x0120\n        /* \"#utility.yul\":6766:6771   */\n      dup4\n        /* \"#utility.yul\":6762:6780   */\n      add\n        /* \"#utility.yul\":6756:6781   */\n      mload\n        /* \"#utility.yul\":6830:6833   */\n      dup5\n        /* \"#utility.yul\":6824:6828   */\n      dup3\n        /* \"#utility.yul\":6820:6834   */\n      sub\n        /* \"#utility.yul\":6811:6817   */\n      0x0120\n        /* \"#utility.yul\":6806:6809   */\n      dup7\n        /* \"#utility.yul\":6802:6818   */\n      add\n        /* \"#utility.yul\":6795:6835   */\n      mstore\n        /* \"#utility.yul\":6856:6929   */\n      tag_340\n        /* \"#utility.yul\":6924:6928   */\n      dup3\n        /* \"#utility.yul\":6910:6922   */\n      dup3\n        /* \"#utility.yul\":6856:6929   */\n      tag_231\n      jump\t// in\n    tag_340:\n        /* \"#utility.yul\":6848:6929   */\n      swap2\n      pop\n        /* \"#utility.yul\":6699:6940   */\n      pop\n        /* \"#utility.yul\":7028:7034   */\n      0x0140\n        /* \"#utility.yul\":7021:7026   */\n      dup4\n        /* \"#utility.yul\":7017:7035   */\n      add\n        /* \"#utility.yul\":7011:7036   */\n      mload\n        /* \"#utility.yul\":7085:7088   */\n      dup5\n        /* \"#utility.yul\":7079:7083   */\n      dup3\n        /* \"#utility.yul\":7075:7089   */\n      sub\n        /* \"#utility.yul\":7066:7072   */\n      0x0140\n        /* \"#utility.yul\":7061:7064   */\n      dup7\n        /* \"#utility.yul\":7057:7073   */\n      add\n        /* \"#utility.yul\":7050:7090   */\n      mstore\n        /* \"#utility.yul\":7111:7184   */\n      tag_341\n        /* \"#utility.yul\":7179:7183   */\n      dup3\n        /* \"#utility.yul\":7165:7177   */\n      dup3\n        /* \"#utility.yul\":7111:7184   */\n      tag_231\n      jump\t// in\n    tag_341:\n        /* \"#utility.yul\":7103:7184   */\n      swap2\n      pop\n        /* \"#utility.yul\":6950:7195   */\n      pop\n        /* \"#utility.yul\":7281:7287   */\n      0x0160\n        /* \"#utility.yul\":7274:7279   */\n      dup4\n        /* \"#utility.yul\":7270:7288   */\n      add\n        /* \"#utility.yul\":7264:7289   */\n      mload\n        /* \"#utility.yul\":7338:7341   */\n      dup5\n        /* \"#utility.yul\":7332:7336   */\n      dup3\n        /* \"#utility.yul\":7328:7342   */\n      sub\n        /* \"#utility.yul\":7319:7325   */\n      0x0160\n        /* \"#utility.yul\":7314:7317   */\n      dup7\n        /* \"#utility.yul\":7310:7326   */\n      add\n        /* \"#utility.yul\":7303:7343   */\n      mstore\n        /* \"#utility.yul\":7364:7437   */\n      tag_342\n        /* \"#utility.yul\":7432:7436   */\n      dup3\n        /* \"#utility.yul\":7418:7430   */\n      dup3\n        /* \"#utility.yul\":7364:7437   */\n      tag_231\n      jump\t// in\n    tag_342:\n        /* \"#utility.yul\":7356:7437   */\n      swap2\n      pop\n        /* \"#utility.yul\":7205:7448   */\n      pop\n        /* \"#utility.yul\":7539:7545   */\n      0x0180\n        /* \"#utility.yul\":7532:7537   */\n      dup4\n        /* \"#utility.yul\":7528:7546   */\n      add\n        /* \"#utility.yul\":7522:7547   */\n      mload\n        /* \"#utility.yul\":7560:7625   */\n      tag_343\n        /* \"#utility.yul\":7617:7623   */\n      0x0180\n        /* \"#utility.yul\":7612:7615   */\n      dup7\n        /* \"#utility.yul\":7608:7624   */\n      add\n        /* \"#utility.yul\":7594:7606   */\n      dup3\n        /* \"#utility.yul\":7560:7625   */\n      tag_236\n      jump\t// in\n    tag_343:\n        /* \"#utility.yul\":7458:7635   */\n      pop\n        /* \"#utility.yul\":7652:7656   */\n      dup1\n        /* \"#utility.yul\":7645:7656   */\n      swap2\n      pop\n        /* \"#utility.yul\":4696:7662   */\n      pop\n        /* \"#utility.yul\":4568:7662   */\n      swap3\n      swap2\n      pop\n      pop\n      jump\t// out\n        /* \"#utility.yul\":7668:8049   */\n    tag_26:\n        /* \"#utility.yul\":7815:7819   */\n      0x00\n        /* \"#utility.yul\":7853:7855   */\n      0x20\n        /* \"#utility.yul\":7842:7851   */\n      dup3\n        /* \"#utility.yul\":7838:7856   */\n      add\n        /* \"#utility.yul\":7830:7856   */\n      swap1\n      pop\n        /* \"#utility.yul\":7902:7911   */\n      dup2\n        /* \"#utility.yul\":7896:7900   */\n      dup2\n        /* \"#utility.yul\":7892:7912   */\n      sub\n        /* \"#utility.yul\":7888:7889   */\n      0x00\n        /* \"#utility.yul\":7877:7886   */\n      dup4\n        /* \"#utility.yul\":7873:7890   */\n      add\n        /* \"#utility.yul\":7866:7913   */\n      mstore\n        /* \"#utility.yul\":7930:8042   */\n      tag_345\n        /* \"#utility.yul\":8037:8041   */\n      dup2\n        /* \"#utility.yul\":8028:8034   */\n      dup5\n        /* \"#utility.yul\":7930:8042   */\n      tag_237\n      jump\t// in\n    tag_345:\n        /* \"#utility.yul\":7922:8042   */\n      swap1\n      pop\n        /* \"#utility.yul\":7668:8049   */\n      swap3\n      swap2\n      pop\n      pop\n      jump\t// out\n        /* \"#utility.yul\":8055:10518   */\n    tag_29:\n        /* \"#utility.yul\":8238:8244   */\n      0x00\n        /* \"#utility.yul\":8246:8252   */\n      0x00\n        /* \"#utility.yul\":8254:8260   */\n      0x00\n        /* \"#utility.yul\":8262:8268   */\n      0x00\n        /* \"#utility.yul\":8270:8276   */\n      0x00\n        /* \"#utility.yul\":8278:8284   */\n      0x00\n        /* \"#utility.yul\":8286:8292   */\n      0x00\n        /* \"#utility.yul\":8335:8338   */\n      0xe0\n        /* \"#utility.yul\":8323:8332   */\n      dup9\n        /* \"#utility.yul\":8314:8321   */\n      dup11\n        /* \"#utility.yul\":8310:8333   */\n      sub\n        /* \"#utility.yul\":8306:8339   */\n      slt\n        /* \"#utility.yul\":8303:8423   */\n      iszero\n      tag_347\n      jumpi\n        /* \"#utility.yul\":8342:8421   */\n      tag_348\n      tag_217\n      jump\t// in\n    tag_348:\n        /* \"#utility.yul\":8303:8423   */\n    tag_347:\n        /* \"#utility.yul\":8490:8491   */\n      0x00\n        /* \"#utility.yul\":8479:8488   */\n      dup9\n        /* \"#utility.yul\":8475:8492   */\n      add\n        /* \"#utility.yul\":8462:8493   */\n      calldataload\n        /* \"#utility.yul\":8520:8538   */\n      0xffffffffffffffff\n        /* \"#utility.yul\":8512:8518   */\n      dup2\n        /* \"#utility.yul\":8509:8539   */\n      gt\n        /* \"#utility.yul\":8506:8623   */\n      iszero\n      tag_349\n      jumpi\n        /* \"#utility.yul\":8542:8621   */\n      tag_350\n      tag_218\n      jump\t// in\n    tag_350:\n        /* \"#utility.yul\":8506:8623   */\n    tag_349:\n        /* \"#utility.yul\":8647:8710   */\n      tag_351\n        /* \"#utility.yul\":8702:8709   */\n      dup11\n        /* \"#utility.yul\":8693:8699   */\n      dup3\n        /* \"#utility.yul\":8682:8691   */\n      dup12\n        /* \"#utility.yul\":8678:8700   */\n      add\n        /* \"#utility.yul\":8647:8710   */\n      tag_227\n      jump\t// in\n    tag_351:\n        /* \"#utility.yul\":8637:8710   */\n      swap8\n      pop\n        /* \"#utility.yul\":8433:8720   */\n      pop\n        /* \"#utility.yul\":8787:8789   */\n      0x20\n        /* \"#utility.yul\":8776:8785   */\n      dup9\n        /* \"#utility.yul\":8772:8790   */\n      add\n        /* \"#utility.yul\":8759:8791   */\n      calldataload\n        /* \"#utility.yul\":8818:8836   */\n      0xffffffffffffffff\n        /* \"#utility.yul\":8810:8816   */\n      dup2\n        /* \"#utility.yul\":8807:8837   */\n      gt\n        /* \"#utility.yul\":8804:8921   */\n      iszero\n      tag_352\n      jumpi\n        /* \"#utility.yul\":8840:8919   */\n      tag_353\n      tag_218\n      jump\t// in\n    tag_353:\n        /* \"#utility.yul\":8804:8921   */\n    tag_352:\n        /* \"#utility.yul\":8945:9008   */\n      tag_354\n        /* \"#utility.yul\":9000:9007   */\n      dup11\n        /* \"#utility.yul\":8991:8997   */\n      dup3\n        /* \"#utility.yul\":8980:8989   */\n      dup12\n        /* \"#utility.yul\":8976:8998   */\n      add\n        /* \"#utility.yul\":8945:9008   */\n      tag_227\n      jump\t// in\n    tag_354:\n        /* \"#utility.yul\":8935:9008   */\n      swap7\n      pop\n        /* \"#utility.yul\":8730:9018   */\n      pop\n        /* \"#utility.yul\":9085:9087   */\n      0x40\n        /* \"#utility.yul\":9074:9083   */\n      dup9\n        /* \"#utility.yul\":9070:9088   */\n      add\n        /* \"#utility.yul\":9057:9089   */\n      calldataload\n        /* \"#utility.yul\":9116:9134   */\n      0xffffffffffffffff\n        /* \"#utility.yul\":9108:9114   */\n      dup2\n        /* \"#utility.yul\":9105:9135   */\n      gt\n        /* \"#utility.yul\":9102:9219   */\n      iszero\n      tag_355\n      jumpi\n        /* \"#utility.yul\":9138:9217   */\n      tag_356\n      tag_218\n      jump\t// in\n    tag_356:\n        /* \"#utility.yul\":9102:9219   */\n    tag_355:\n        /* \"#utility.yul\":9243:9306   */\n      tag_357\n        /* \"#utility.yul\":9298:9305   */\n      dup11\n        /* \"#utility.yul\":9289:9295   */\n      dup3\n        /* \"#utility.yul\":9278:9287   */\n      dup12\n        /* \"#utility.yul\":9274:9296   */\n      add\n        /* \"#utility.yul\":9243:9306   */\n      tag_227\n      jump\t// in\n    tag_357:\n        /* \"#utility.yul\":9233:9306   */\n      swap6\n      pop\n        /* \"#utility.yul\":9028:9316   */\n      pop\n        /* \"#utility.yul\":9383:9385   */\n      0x60\n        /* \"#utility.yul\":9372:9381   */\n      dup9\n        /* \"#utility.yul\":9368:9386   */\n      add\n        /* \"#utility.yul\":9355:9387   */\n      calldataload\n        /* \"#utility.yul\":9414:9432   */\n      0xffffffffffffffff\n        /* \"#utility.yul\":9406:9412   */\n      dup2\n        /* \"#utility.yul\":9403:9433   */\n      gt\n        /* \"#utility.yul\":9400:9517   */\n      iszero\n      tag_358\n      jumpi\n        /* \"#utility.yul\":9436:9515   */\n      tag_359\n      tag_218\n      jump\t// in\n    tag_359:\n        /* \"#utility.yul\":9400:9517   */\n    tag_358:\n        /* \"#utility.yul\":9541:9604   */\n      tag_360\n        /* \"#utility.yul\":9596:9603   */\n      dup11\n        /* \"#utility.yul\":9587:9593   */\n      dup3\n        /* \"#utility.yul\":9576:9585   */\n      dup12\n        /* \"#utility.yul\":9572:9594   */\n      add\n        /* \"#utility.yul\":9541:9604   */\n      tag_227\n      jump\t// in\n    tag_360:\n        /* \"#utility.yul\":9531:9604   */\n      swap5\n      pop\n        /* \"#utility.yul\":9326:9614   */\n      pop\n        /* \"#utility.yul\":9681:9684   */\n      0x80\n        /* \"#utility.yul\":9670:9679   */\n      dup9\n        /* \"#utility.yul\":9666:9685   */\n      add\n        /* \"#utility.yul\":9653:9686   */\n      calldataload\n        /* \"#utility.yul\":9713:9731   */\n      0xffffffffffffffff\n        /* \"#utility.yul\":9705:9711   */\n      dup2\n        /* \"#utility.yul\":9702:9732   */\n      gt\n        /* \"#utility.yul\":9699:9816   */\n      iszero\n      tag_361\n      jumpi\n        /* \"#utility.yul\":9735:9814   */\n      tag_362\n      tag_218\n      jump\t// in\n    tag_362:\n        /* \"#utility.yul\":9699:9816   */\n    tag_361:\n        /* \"#utility.yul\":9840:9903   */\n      tag_363\n        /* \"#utility.yul\":9895:9902   */\n      dup11\n        /* \"#utility.yul\":9886:9892   */\n      dup3\n        /* \"#utility.yul\":9875:9884   */\n      dup12\n        /* \"#utility.yul\":9871:9893   */\n      add\n        /* \"#utility.yul\":9840:9903   */\n      tag_227\n      jump\t// in\n    tag_363:\n        /* \"#utility.yul\":9830:9903   */\n      swap4\n      pop\n        /* \"#utility.yul\":9624:9913   */\n      pop\n        /* \"#utility.yul\":9980:9983   */\n      0xa0\n        /* \"#utility.yul\":9969:9978   */\n      dup9\n        /* \"#utility.yul\":9965:9984   */\n      add\n        /* \"#utility.yul\":9952:9985   */\n      calldataload\n        /* \"#utility.yul\":10012:10030   */\n      0xffffffffffffffff\n        /* \"#utility.yul\":10004:10010   */\n      dup2\n        /* \"#utility.yul\":10001:10031   */\n      gt\n        /* \"#utility.yul\":9998:10115   */\n      iszero\n      tag_364\n      jumpi\n        /* \"#utility.yul\":10034:10113   */\n      tag_365\n      tag_218\n      jump\t// in\n    tag_365:\n        /* \"#utility.yul\":9998:10115   */\n    tag_364:\n        /* \"#utility.yul\":10139:10202   */\n      tag_366\n        /* \"#utility.yul\":10194:10201   */\n      dup11\n        /* \"#utility.yul\":10185:10191   */\n      dup3\n        /* \"#utility.yul\":10174:10183   */\n      dup12\n        /* \"#utility.yul\":10170:10192   */\n      add\n        /* \"#utility.yul\":10139:10202   */\n      tag_227\n      jump\t// in\n    tag_366:\n        /* \"#utility.yul\":10129:10202   */\n      swap3\n      pop\n        /* \"#utility.yul\":9923:10212   */\n      pop\n        /* \"#utility.yul\":10279:10282   */\n      0xc0\n        /* \"#utility.yul\":10268:10277   */\n      dup9\n        /* \"#utility.yul\":10264:10283   */\n      add\n        /* \"#utility.yul\":10251:10284   */\n      calldataload\n        /* \"#utility.yul\":10311:10329   */\n      0xffffffffffffffff\n        /* \"#utility.yul\":10303:10309   */\n      dup2\n        /* \"#utility.yul\":10300:10330   */\n      gt\n        /* \"#utility.yul\":10297:10414   */\n      iszero\n      tag_367\n      jumpi\n        /* \"#utility.yul\":10333:10412   */\n      tag_368\n      tag_218\n      jump\t// in\n    tag_368:\n        /* \"#utility.yul\":10297:10414   */\n    tag_367:\n        /* \"#utility.yul\":10438:10501   */\n      tag_369\n        /* \"#utility.yul\":10493:10500   */\n      dup11\n        /* \"#utility.yul\":10484:10490   */\n      dup3\n        /* \"#utility.yul\":10473:10482   */\n      dup12\n        /* \"#utility.yul\":10469:10491   */\n      add\n        /* \"#utility.yul\":10438:10501   */\n      tag_227\n      jump\t// in\n    tag_369:\n        /* \"#utility.yul\":10428:10501   */\n      swap2\n      pop\n        /* \"#utility.yul\":10222:10511   */\n      pop\n        /* \"#utility.yul\":8055:10518   */\n      swap3\n      swap6\n      swap9\n      swap2\n      swap5\n      swap8\n      pop\n      swap3\n      swap6\n      pop\n      jump\t// out\n        /* \"#utility.yul\":10524:10646   */\n    tag_238:\n        /* \"#utility.yul\":10597:10621   */\n      tag_371\n        /* \"#utility.yul\":10615:10620   */\n      dup2\n        /* \"#utility.yul\":10597:10621   */\n      tag_232\n      jump\t// in\n    tag_371:\n        /* \"#utility.yul\":10590:10595   */\n      dup2\n        /* \"#utility.yul\":10587:10622   */\n      eq\n        /* \"#utility.yul\":10577:10640   */\n      tag_372\n      jumpi\n        /* \"#utility.yul\":10636:10637   */\n      0x00\n        /* \"#utility.yul\":10633:10634   */\n      0x00\n        /* \"#utility.yul\":10626:10638   */\n      revert\n        /* \"#utility.yul\":10577:10640   */\n    tag_372:\n        /* \"#utility.yul\":10524:10646   */\n      pop\n      jump\t// out\n        /* \"#utility.yul\":10652:10791   */\n    tag_239:\n        /* \"#utility.yul\":10698:10703   */\n      0x00\n        /* \"#utility.yul\":10736:10742   */\n      dup2\n        /* \"#utility.yul\":10723:10743   */\n      calldataload\n        /* \"#utility.yul\":10714:10743   */\n      swap1\n      pop\n        /* \"#utility.yul\":10752:10785   */\n      tag_374\n        /* \"#utility.yul\":10779:10784   */\n      dup2\n        /* \"#utility.yul\":10752:10785   */\n      tag_238\n      jump\t// in\n    tag_374:\n        /* \"#utility.yul\":10652:10791   */\n      swap3\n      swap2\n      pop\n      pop\n      jump\t// out\n        /* \"#utility.yul\":10797:11271   */\n    tag_42:\n        /* \"#utility.yul\":10865:10871   */\n      0x00\n        /* \"#utility.yul\":10873:10879   */\n      0x00\n        /* \"#utility.yul\":10922:10924   */\n      0x40\n        /* \"#utility.yul\":10910:10919   */\n      dup4\n        /* \"#utility.yul\":10901:10908   */\n      dup6\n        /* \"#utility.yul\":10897:10920   */\n      sub\n        /* \"#utility.yul\":10893:10925   */\n      slt\n        /* \"#utility.yul\":10890:11009   */\n      iszero\n      tag_376\n      jumpi\n        /* \"#utility.yul\":10928:11007   */\n      tag_377\n      tag_217\n      jump\t// in\n    tag_377:\n        /* \"#utility.yul\":10890:11009   */\n    tag_376:\n        /* \"#utility.yul\":11048:11049   */\n      0x00\n        /* \"#utility.yul\":11073:11126   */\n      tag_378\n        /* \"#utility.yul\":11118:11125   */\n      dup6\n        /* \"#utility.yul\":11109:11115   */\n      dup3\n        /* \"#utility.yul\":11098:11107   */\n      dup7\n        /* \"#utility.yul\":11094:11116   */\n      add\n        /* \"#utility.yul\":11073:11126   */\n      tag_239\n      jump\t// in\n    tag_378:\n        /* \"#utility.yul\":11063:11126   */\n      swap3\n      pop\n        /* \"#utility.yul\":11019:11136   */\n      pop\n        /* \"#utility.yul\":11175:11177   */\n      0x20\n        /* \"#utility.yul\":11201:11254   */\n      tag_379\n        /* \"#utility.yul\":11246:11253   */\n      dup6\n        /* \"#utility.yul\":11237:11243   */\n      dup3\n        /* \"#utility.yul\":11226:11235   */\n      dup7\n        /* \"#utility.yul\":11222:11244   */\n      add\n        /* \"#utility.yul\":11201:11254   */\n      tag_239\n      jump\t// in\n    tag_379:\n        /* \"#utility.yul\":11191:11254   */\n      swap2\n      pop\n        /* \"#utility.yul\":11146:11264   */\n      pop\n        /* \"#utility.yul\":10797:11271   */\n      swap3\n      pop\n      swap3\n      swap1\n      pop\n      jump\t// out\n        /* \"#utility.yul\":11277:11395   */\n    tag_240:\n        /* \"#utility.yul\":11364:11388   */\n      tag_381\n        /* \"#utility.yul\":11382:11387   */\n      dup2\n        /* \"#utility.yul\":11364:11388   */\n      tag_235\n      jump\t// in\n    tag_381:\n        /* \"#utility.yul\":11359:11362   */\n      dup3\n        /* \"#utility.yul\":11352:11389   */\n      mstore\n        /* \"#utility.yul\":11277:11395   */\n      pop\n      pop\n      jump\t// out\n        /* \"#utility.yul\":11401:11623   */\n    tag_53:\n        /* \"#utility.yul\":11494:11498   */\n      0x00\n        /* \"#utility.yul\":11532:11534   */\n      0x20\n        /* \"#utility.yul\":11521:11530   */\n      dup3\n        /* \"#utility.yul\":11517:11535   */\n      add\n        /* \"#utility.yul\":11509:11535   */\n      swap1\n      pop\n        /* \"#utility.yul\":11545:11616   */\n      tag_383\n        /* \"#utility.yul\":11613:11614   */\n      0x00\n        /* \"#utility.yul\":11602:11611   */\n      dup4\n        /* \"#utility.yul\":11598:11615   */\n      add\n        /* \"#utility.yul\":11589:11595   */\n      dup5\n        /* \"#utility.yul\":11545:11616   */\n      tag_240\n      jump\t// in\n    tag_383:\n        /* \"#utility.yul\":11401:11623   */\n      swap3\n      swap2\n      pop\n      pop\n      jump\t// out\n        /* \"#utility.yul\":11629:11798   */\n    tag_241:\n        /* \"#utility.yul\":11713:11724   */\n      0x00\n        /* \"#utility.yul\":11747:11753   */\n      dup3\n        /* \"#utility.yul\":11742:11745   */\n      dup3\n        /* \"#utility.yul\":11735:11754   */\n      mstore\n        /* \"#utility.yul\":11787:11791   */\n      0x20\n        /* \"#utility.yul\":11782:11785   */\n      dup3\n        /* \"#utility.yul\":11778:11792   */\n      add\n        /* \"#utility.yul\":11763:11792   */\n      swap1\n      pop\n        /* \"#utility.yul\":11629:11798   */\n      swap3\n      swap2\n      pop\n      pop\n      jump\t// out\n        /* \"#utility.yul\":11804:11974   */\n    tag_242:\n        /* \"#utility.yul\":11944:11966   */\n      0x55736572206e6f7420726567697374657265642e000000000000000000000000\n        /* \"#utility.yul\":11940:11941   */\n      0x00\n        /* \"#utility.yul\":11932:11938   */\n      dup3\n        /* \"#utility.yul\":11928:11942   */\n      add\n        /* \"#utility.yul\":11921:11967   */\n      mstore\n        /* \"#utility.yul\":11804:11974   */\n      pop\n      jump\t// out\n        /* \"#utility.yul\":11980:12346   */\n    tag_243:\n        /* \"#utility.yul\":12122:12125   */\n      0x00\n        /* \"#utility.yul\":12143:12210   */\n      tag_387\n        /* \"#utility.yul\":12207:12209   */\n      0x14\n        /* \"#utility.yul\":12202:12205   */\n      dup4\n        /* \"#utility.yul\":12143:12210   */\n      tag_241\n      jump\t// in\n    tag_387:\n        /* \"#utility.yul\":12136:12210   */\n      swap2\n      pop\n        /* \"#utility.yul\":12219:12312   */\n      tag_388\n        /* \"#utility.yul\":12308:12311   */\n      dup3\n        /* \"#utility.yul\":12219:12312   */\n      tag_242\n      jump\t// in\n    tag_388:\n        /* \"#utility.yul\":12337:12339   */\n      0x20\n        /* \"#utility.yul\":12332:12335   */\n      dup3\n        /* \"#utility.yul\":12328:12340   */\n      add\n        /* \"#utility.yul\":12321:12340   */\n      swap1\n      pop\n        /* \"#utility.yul\":11980:12346   */\n      swap2\n      swap1\n      pop\n      jump\t// out\n        /* \"#utility.yul\":12352:12771   */\n    tag_60:\n        /* \"#utility.yul\":12518:12522   */\n      0x00\n        /* \"#utility.yul\":12556:12558   */\n      0x20\n        /* \"#utility.yul\":12545:12554   */\n      dup3\n        /* \"#utility.yul\":12541:12559   */\n      add\n        /* \"#utility.yul\":12533:12559   */\n      swap1\n      pop\n        /* \"#utility.yul\":12605:12614   */\n      dup2\n        /* \"#utility.yul\":12599:12603   */\n      dup2\n        /* \"#utility.yul\":12595:12615   */\n      sub\n        /* \"#utility.yul\":12591:12592   */\n      0x00\n        /* \"#utility.yul\":12580:12589   */\n      dup4\n        /* \"#utility.yul\":12576:12593   */\n      add\n        /* \"#utility.yul\":12569:12616   */\n      mstore\n        /* \"#utility.yul\":12633:12764   */\n      tag_390\n        /* \"#utility.yul\":12759:12763   */\n      dup2\n        /* \"#utility.yul\":12633:12764   */\n      tag_243\n      jump\t// in\n    tag_390:\n        /* \"#utility.yul\":12625:12764   */\n      swap1\n      pop\n        /* \"#utility.yul\":12352:12771   */\n      swap2\n      swap1\n      pop\n      jump\t// out\n        /* \"#utility.yul\":12777:12957   */\n    tag_244:\n        /* \"#utility.yul\":12825:12902   */\n      0x4e487b7100000000000000000000000000000000000000000000000000000000\n        /* \"#utility.yul\":12822:12823   */\n      0x00\n        /* \"#utility.yul\":12815:12903   */\n      mstore\n        /* \"#utility.yul\":12922:12926   */\n      0x22\n        /* \"#utility.yul\":12919:12920   */\n      0x04\n        /* \"#utility.yul\":12912:12927   */\n      mstore\n        /* \"#utility.yul\":12946:12950   */\n      0x24\n        /* \"#utility.yul\":12943:12944   */\n      0x00\n        /* \"#utility.yul\":12936:12951   */\n      revert\n        /* \"#utility.yul\":12963:13283   */\n    tag_79:\n        /* \"#utility.yul\":13007:13013   */\n      0x00\n        /* \"#utility.yul\":13044:13045   */\n      0x02\n        /* \"#utility.yul\":13038:13042   */\n      dup3\n        /* \"#utility.yul\":13034:13046   */\n      div\n        /* \"#utility.yul\":13024:13046   */\n      swap1\n      pop\n        /* \"#utility.yul\":13091:13092   */\n      0x01\n        /* \"#utility.yul\":13085:13089   */\n      dup3\n        /* \"#utility.yul\":13081:13093   */\n      and\n        /* \"#utility.yul\":13112:13130   */\n      dup1\n        /* \"#utility.yul\":13102:13183   */\n      tag_393\n      jumpi\n        /* \"#utility.yul\":13168:13172   */\n      0x7f\n        /* \"#utility.yul\":13160:13166   */\n      dup3\n        /* \"#utility.yul\":13156:13173   */\n      and\n        /* \"#utility.yul\":13146:13173   */\n      swap2\n      pop\n        /* \"#utility.yul\":13102:13183   */\n    tag_393:\n        /* \"#utility.yul\":13230:13232   */\n      0x20\n        /* \"#utility.yul\":13222:13228   */\n      dup3\n        /* \"#utility.yul\":13219:13233   */\n      lt\n        /* \"#utility.yul\":13199:13217   */\n      dup2\n        /* \"#utility.yul\":13196:13234   */\n      sub\n        /* \"#utility.yul\":13193:13277   */\n      tag_394\n      jumpi\n        /* \"#utility.yul\":13249:13267   */\n      tag_395\n      tag_244\n      jump\t// in\n    tag_395:\n        /* \"#utility.yul\":13193:13277   */\n    tag_394:\n        /* \"#utility.yul\":13014:13283   */\n      pop\n        /* \"#utility.yul\":12963:13283   */\n      swap2\n      swap1\n      pop\n      jump\t// out\n        /* \"#utility.yul\":13289:13430   */\n    tag_245:\n        /* \"#utility.yul\":13338:13342   */\n      0x00\n        /* \"#utility.yul\":13361:13364   */\n      dup2\n        /* \"#utility.yul\":13353:13364   */\n      swap1\n      pop\n        /* \"#utility.yul\":13384:13387   */\n      dup2\n        /* \"#utility.yul\":13381:13382   */\n      0x00\n        /* \"#utility.yul\":13374:13388   */\n      mstore\n        /* \"#utility.yul\":13418:13422   */\n      0x20\n        /* \"#utility.yul\":13415:13416   */\n      0x00\n        /* \"#utility.yul\":13405:13423   */\n      keccak256\n        /* \"#utility.yul\":13397:13423   */\n      swap1\n      pop\n        /* \"#utility.yul\":13289:13430   */\n      swap2\n      swap1\n      pop\n      jump\t// out\n        /* \"#utility.yul\":13436:13529   */\n    tag_246:\n        /* \"#utility.yul\":13473:13479   */\n      0x00\n        /* \"#utility.yul\":13520:13522   */\n      0x20\n        /* \"#utility.yul\":13515:13517   */\n      0x1f\n        /* \"#utility.yul\":13508:13513   */\n      dup4\n        /* \"#utility.yul\":13504:13518   */\n      add\n        /* \"#utility.yul\":13500:13523   */\n      div\n        /* \"#utility.yul\":13490:13523   */\n      swap1\n      pop\n        /* \"#utility.yul\":13436:13529   */\n      swap2\n      swap1\n      pop\n      jump\t// out\n        /* \"#utility.yul\":13535:13642   */\n    tag_247:\n        /* \"#utility.yul\":13579:13587   */\n      0x00\n        /* \"#utility.yul\":13629:13634   */\n      dup3\n        /* \"#utility.yul\":13623:13627   */\n      dup3\n        /* \"#utility.yul\":13619:13635   */\n      shl\n        /* \"#utility.yul\":13598:13635   */\n      swap1\n      pop\n        /* \"#utility.yul\":13535:13642   */\n      swap3\n      swap2\n      pop\n      pop\n      jump\t// out\n        /* \"#utility.yul\":13648:14041   */\n    tag_248:\n        /* \"#utility.yul\":13717:13723   */\n      0x00\n        /* \"#utility.yul\":13767:13768   */\n      0x08\n        /* \"#utility.yul\":13755:13765   */\n      dup4\n        /* \"#utility.yul\":13751:13769   */\n      mul\n        /* \"#utility.yul\":13790:13887   */\n      tag_400\n        /* \"#utility.yul\":13820:13886   */\n      0xffffffffffffffffffffffffffffffffffffffffffffffffffffffffffffffff\n        /* \"#utility.yul\":13809:13818   */\n      dup3\n        /* \"#utility.yul\":13790:13887   */\n      tag_247\n      jump\t// in\n    tag_400:\n        /* \"#utility.yul\":13908:13947   */\n      tag_401\n        /* \"#utility.yul\":13938:13946   */\n      dup7\n        /* \"#utility.yul\":13927:13936   */\n      dup4\n        /* \"#utility.yul\":13908:13947   */\n      tag_247\n      jump\t// in\n    tag_401:\n        /* \"#utility.yul\":13896:13947   */\n      swap6\n      pop\n        /* \"#utility.yul\":13980:13984   */\n      dup1\n        /* \"#utility.yul\":13976:13985   */\n      not\n        /* \"#utility.yul\":13969:13974   */\n      dup5\n        /* \"#utility.yul\":13965:13986   */\n      and\n        /* \"#utility.yul\":13956:13986   */\n      swap4\n      pop\n        /* \"#utility.yul\":14029:14033   */\n      dup1\n        /* \"#utility.yul\":14019:14027   */\n      dup7\n        /* \"#utility.yul\":14015:14034   */\n      and\n        /* \"#utility.yul\":14008:14013   */\n      dup5\n        /* \"#utility.yul\":14005:14035   */\n      or\n        /* \"#utility.yul\":13995:14035   */\n      swap3\n      pop\n        /* \"#utility.yul\":13724:14041   */\n      pop\n      pop\n        /* \"#utility.yul\":13648:14041   */\n      swap4\n      swap3\n      pop\n      pop\n      pop\n      jump\t// out\n        /* \"#utility.yul\":14047:14107   */\n    tag_249:\n        /* \"#utility.yul\":14075:14078   */\n      0x00\n        /* \"#utility.yul\":14096:14101   */\n      dup2\n        /* \"#utility.yul\":14089:14101   */\n      swap1\n      pop\n        /* \"#utility.yul\":14047:14107   */\n      swap2\n      swap1\n      pop\n      jump\t// out\n        /* \"#utility.yul\":14113:14255   */\n    tag_250:\n        /* \"#utility.yul\":14163:14172   */\n      0x00\n        /* \"#utility.yul\":14196:14249   */\n      tag_404\n        /* \"#utility.yul\":14214:14248   */\n      tag_405\n        /* \"#utility.yul\":14223:14247   */\n      tag_406\n        /* \"#utility.yul\":14241:14246   */\n      dup5\n        /* \"#utility.yul\":14223:14247   */\n      tag_232\n      jump\t// in\n    tag_406:\n        /* \"#utility.yul\":14214:14248   */\n      tag_249\n      jump\t// in\n    tag_405:\n        /* \"#utility.yul\":14196:14249   */\n      tag_232\n      jump\t// in\n    tag_404:\n        /* \"#utility.yul\":14183:14249   */\n      swap1\n      pop\n        /* \"#utility.yul\":14113:14255   */\n      swap2\n      swap1\n      pop\n      jump\t// out\n        /* \"#utility.yul\":14261:14336   */\n    tag_251:\n        /* \"#utility.yul\":14304:14307   */\n      0x00\n        /* \"#utility.yul\":14325:14330   */\n      dup2\n        /* \"#utility.yul\":14318:14330   */\n      swap1\n      pop\n        /* \"#utility.yul\":14261:14336   */\n      swap2\n      swap1\n      pop\n      jump\t// out\n        /* \"#utility.yul\":14342:14611   */\n    tag_252:\n        /* \"#utility.yul\":14452:14491   */\n      tag_409\n        /* \"#utility.yul\":14483:14490   */\n      dup4\n        /* \"#utility.yul\":14452:14491   */\n      tag_250\n      jump\t// in\n    tag_409:\n        /* \"#utility.yul\":14513:14604   */\n      tag_410\n        /* \"#utility.yul\":14562:14603   */\n      tag_411\n        /* \"#utility.yul\":14586:14602   */\n      dup3\n        /* \"#utility.yul\":14562:14603   */\n      tag_251\n      jump\t// in\n    tag_411:\n        /* \"#utility.yul\":14554:14560   */\n      dup5\n        /* \"#utility.yul\":14547:14551   */\n      dup5\n        /* \"#utility.yul\":14541:14552   */\n      sload\n        /* \"#utility.yul\":14513:14604   */\n      tag_248\n      jump\t// in\n    tag_410:\n        /* \"#utility.yul\":14507:14511   */\n      dup3\n        /* \"#utility.yul\":14500:14605   */\n      sstore\n        /* \"#utility.yul\":14418:14611   */\n      pop\n        /* \"#utility.yul\":14342:14611   */\n      pop\n      pop\n      pop\n      jump\t// out\n        /* \"#utility.yul\":14617:14690   */\n    tag_253:\n        /* \"#utility.yul\":14662:14665   */\n      0x00\n        /* \"#utility.yul\":14683:14684   */\n      0x00\n        /* \"#utility.yul\":14676:14684   */\n      swap1\n      pop\n        /* \"#utility.yul\":14617:14690   */\n      swap1\n      jump\t// out\n        /* \"#utility.yul\":14696:14885   */\n    tag_254:\n        /* \"#utility.yul\":14773:14805   */\n      tag_414\n      tag_253\n      jump\t// in\n    tag_414:\n        /* \"#utility.yul\":14814:14879   */\n      tag_415\n        /* \"#utility.yul\":14872:14878   */\n      dup2\n        /* \"#utility.yul\":14864:14870   */\n      dup5\n        /* \"#utility.yul\":14858:14862   */\n      dup5\n        /* \"#utility.yul\":14814:14879   */\n      tag_252\n      jump\t// in\n    tag_415:\n        /* \"#utility.yul\":14749:14885   */\n      pop\n        /* \"#utility.yul\":14696:14885   */\n      pop\n      pop\n      jump\t// out\n        /* \"#utility.yul\":14891:15077   */\n    tag_255:\n        /* \"#utility.yul\":14951:15071   */\n    tag_417:\n        /* \"#utility.yul\":14968:14971   */\n      dup2\n        /* \"#utility.yul\":14961:14966   */\n      dup2\n        /* \"#utility.yul\":14958:14972   */\n      lt\n        /* \"#utility.yul\":14951:15071   */\n      iszero\n      tag_419\n      jumpi\n        /* \"#utility.yul\":15022:15061   */\n      tag_420\n        /* \"#utility.yul\":15059:15060   */\n      0x00\n        /* \"#utility.yul\":15052:15057   */\n      dup3\n        /* \"#utility.yul\":15022:15061   */\n      tag_254\n      jump\t// in\n    tag_420:\n        /* \"#utility.yul\":14995:14996   */\n      0x01\n        /* \"#utility.yul\":14988:14993   */\n      dup2\n        /* \"#utility.yul\":14984:14997   */\n      add\n        /* \"#utility.yul\":14975:14997   */\n      swap1\n      pop\n        /* \"#utility.yul\":14951:15071   */\n      jump(tag_417)\n    tag_419:\n        /* \"#utility.yul\":14891:15077   */\n      pop\n      pop\n      jump\t// out\n        /* \"#utility.yul\":15083:15626   */\n    tag_256:\n        /* \"#utility.yul\":15184:15186   */\n      0x1f\n        /* \"#utility.yul\":15179:15182   */\n      dup3\n        /* \"#utility.yul\":15176:15187   */\n      gt\n        /* \"#utility.yul\":15173:15619   */\n      iszero\n      tag_422\n      jumpi\n        /* \"#utility.yul\":15218:15256   */\n      tag_423\n        /* \"#utility.yul\":15250:15255   */\n      dup2\n        /* \"#utility.yul\":15218:15256   */\n      tag_245\n      jump\t// in\n    tag_423:\n        /* \"#utility.yul\":15302:15331   */\n      tag_424\n        /* \"#utility.yul\":15320:15330   */\n      dup5\n        /* \"#utility.yul\":15302:15331   */\n      tag_246\n      jump\t// in\n    tag_424:\n        /* \"#utility.yul\":15292:15300   */\n      dup2\n        /* \"#utility.yul\":15288:15332   */\n      add\n        /* \"#utility.yul\":15485:15487   */\n      0x20\n        /* \"#utility.yul\":15473:15483   */\n      dup6\n        /* \"#utility.yul\":15470:15488   */\n      lt\n        /* \"#utility.yul\":15467:15516   */\n      iszero\n      tag_425\n      jumpi\n        /* \"#utility.yul\":15506:15514   */\n      dup2\n        /* \"#utility.yul\":15491:15514   */\n      swap1\n      pop\n        /* \"#utility.yul\":15467:15516   */\n    tag_425:\n        /* \"#utility.yul\":15529:15609   */\n      tag_426\n        /* \"#utility.yul\":15585:15607   */\n      tag_427\n        /* \"#utility.yul\":15603:15606   */\n      dup6\n        /* \"#utility.yul\":15585:15607   */\n      tag_246\n      jump\t// in\n    tag_427:\n        /* \"#utility.yul\":15575:15583   */\n      dup4\n        /* \"#utility.yul\":15571:15608   */\n      add\n        /* \"#utility.yul\":15558:15569   */\n      dup3\n        /* \"#utility.yul\":15529:15609   */\n      tag_255\n      jump\t// in\n    tag_426:\n        /* \"#utility.yul\":15188:15619   */\n      pop\n      pop\n        /* \"#utility.yul\":15173:15619   */\n    tag_422:\n        /* \"#utility.yul\":15083:15626   */\n      pop\n      pop\n      pop\n      jump\t// out\n        /* \"#utility.yul\":15632:15749   */\n    tag_257:\n        /* \"#utility.yul\":15686:15694   */\n      0x00\n        /* \"#utility.yul\":15736:15741   */\n      dup3\n        /* \"#utility.yul\":15730:15734   */\n      dup3\n        /* \"#utility.yul\":15726:15742   */\n      shr\n        /* \"#utility.yul\":15705:15742   */\n      swap1\n      pop\n        /* \"#utility.yul\":15632:15749   */\n      swap3\n      swap2\n      pop\n      pop\n      jump\t// out\n        /* \"#utility.yul\":15755:15924   */\n    tag_258:\n        /* \"#utility.yul\":15799:15805   */\n      0x00\n        /* \"#utility.yul\":15832:15883   */\n      tag_430\n        /* \"#utility.yul\":15880:15881   */\n      0x00\n        /* \"#utility.yul\":15876:15882   */\n      not\n        /* \"#utility.yul\":15868:15873   */\n      dup5\n        /* \"#utility.yul\":15865:15866   */\n      0x08\n        /* \"#utility.yul\":15861:15874   */\n      mul\n        /* \"#utility.yul\":15832:15883   */\n      tag_257\n      jump\t// in\n    tag_430:\n        /* \"#utility.yul\":15828:15884   */\n      not\n        /* \"#utility.yul\":15913:15917   */\n      dup1\n        /* \"#utility.yul\":15907:15911   */\n      dup4\n        /* \"#utility.yul\":15903:15918   */\n      and\n        /* \"#utility.yul\":15893:15918   */\n      swap2\n      pop\n        /* \"#utility.yul\":15806:15924   */\n      pop\n        /* \"#utility.yul\":15755:15924   */\n      swap3\n      swap2\n      pop\n      pop\n      jump\t// out\n        /* \"#utility.yul\":15929:16224   */\n    tag_259:\n        /* \"#utility.yul\":16005:16009   */\n      0x00\n        /* \"#utility.yul\":16151:16180   */\n      tag_432\n        /* \"#utility.yul\":16176:16179   */\n      dup4\n        /* \"#utility.yul\":16170:16174   */\n      dup4\n        /* \"#utility.yul\":16151:16180   */\n      tag_258\n      jump\t// in\n    tag_432:\n        /* \"#utility.yul\":16143:16180   */\n      swap2\n      pop\n        /* \"#utility.yul\":16213:16216   */\n      dup3\n        /* \"#utility.yul\":16210:16211   */\n      0x02\n        /* \"#utility.yul\":16206:16217   */\n      mul\n        /* \"#utility.yul\":16200:16204   */\n      dup3\n        /* \"#utility.yul\":16197:16218   */\n      or\n        /* \"#utility.yul\":16189:16218   */\n      swap1\n      pop\n        /* \"#utility.yul\":15929:16224   */\n      swap3\n      swap2\n      pop\n      pop\n      jump\t// out\n        /* \"#utility.yul\":16229:17624   */\n    tag_63:\n        /* \"#utility.yul\":16346:16383   */\n      tag_434\n        /* \"#utility.yul\":16379:16382   */\n      dup3\n        /* \"#utility.yul\":16346:16383   */\n      tag_228\n      jump\t// in\n    tag_434:\n        /* \"#utility.yul\":16448:16466   */\n      0xffffffffffffffff\n        /* \"#utility.yul\":16440:16446   */\n      dup2\n        /* \"#utility.yul\":16437:16467   */\n      gt\n        /* \"#utility.yul\":16434:16490   */\n      iszero\n      tag_435\n      jumpi\n        /* \"#utility.yul\":16470:16488   */\n      tag_436\n      tag_204\n      jump\t// in\n    tag_436:\n        /* \"#utility.yul\":16434:16490   */\n    tag_435:\n        /* \"#utility.yul\":16514:16552   */\n      tag_437\n        /* \"#utility.yul\":16546:16550   */\n      dup3\n        /* \"#utility.yul\":16540:16551   */\n      sload\n        /* \"#utility.yul\":16514:16552   */\n      tag_79\n      jump\t// in\n    tag_437:\n        /* \"#utility.yul\":16599:16666   */\n      tag_438\n        /* \"#utility.yul\":16659:16665   */\n      dup3\n        /* \"#utility.yul\":16651:16657   */\n      dup3\n        /* \"#utility.yul\":16645:16649   */\n      dup6\n        /* \"#utility.yul\":16599:16666   */\n      tag_256\n      jump\t// in\n    tag_438:\n        /* \"#utility.yul\":16693:16694   */\n      0x00\n        /* \"#utility.yul\":16717:16721   */\n      0x20\n        /* \"#utility.yul\":16704:16721   */\n      swap1\n      pop\n        /* \"#utility.yul\":16749:16751   */\n      0x1f\n        /* \"#utility.yul\":16741:16747   */\n      dup4\n        /* \"#utility.yul\":16738:16752   */\n      gt\n        /* \"#utility.yul\":16766:16767   */\n      0x01\n        /* \"#utility.yul\":16761:17379   */\n      dup2\n      eq\n      tag_440\n      jumpi\n        /* \"#utility.yul\":17423:17424   */\n      0x00\n        /* \"#utility.yul\":17440:17446   */\n      dup5\n        /* \"#utility.yul\":17437:17514   */\n      iszero\n      tag_441\n      jumpi\n        /* \"#utility.yul\":17489:17498   */\n      dup3\n        /* \"#utility.yul\":17484:17487   */\n      dup8\n        /* \"#utility.yul\":17480:17499   */\n      add\n        /* \"#utility.yul\":17474:17500   */\n      mload\n        /* \"#utility.yul\":17465:17500   */\n      swap1\n      pop\n        /* \"#utility.yul\":17437:17514   */\n    tag_441:\n        /* \"#utility.yul\":17540:17607   */\n      tag_442\n        /* \"#utility.yul\":17600:17606   */\n      dup6\n        /* \"#utility.yul\":17593:17598   */\n      dup3\n        /* \"#utility.yul\":17540:17607   */\n      tag_259\n      jump\t// in\n    tag_442:\n        /* \"#utility.yul\":17534:17538   */\n      dup7\n        /* \"#utility.yul\":17527:17608   */\n      sstore\n        /* \"#utility.yul\":17396:17618   */\n      pop\n        /* \"#utility.yul\":16731:17618   */\n      jump(tag_439)\n        /* \"#utility.yul\":16761:17379   */\n    tag_440:\n        /* \"#utility.yul\":16813:16817   */\n      0x1f\n        /* \"#utility.yul\":16809:16818   */\n      not\n        /* \"#utility.yul\":16801:16807   */\n      dup5\n        /* \"#utility.yul\":16797:16819   */\n      and\n        /* \"#utility.yul\":16847:16884   */\n      tag_443\n        /* \"#utility.yul\":16879:16883   */\n      dup7\n        /* \"#utility.yul\":16847:16884   */\n      tag_245\n      jump\t// in\n    tag_443:\n        /* \"#utility.yul\":16906:16907   */\n      0x00\n        /* \"#utility.yul\":16920:17128   */\n    tag_444:\n        /* \"#utility.yul\":16934:16941   */\n      dup3\n        /* \"#utility.yul\":16931:16932   */\n      dup2\n        /* \"#utility.yul\":16928:16942   */\n      lt\n        /* \"#utility.yul\":16920:17128   */\n      iszero\n      tag_446\n      jumpi\n        /* \"#utility.yul\":17013:17022   */\n      dup5\n        /* \"#utility.yul\":17008:17011   */\n      dup10\n        /* \"#utility.yul\":17004:17023   */\n      add\n        /* \"#utility.yul\":16998:17024   */\n      mload\n        /* \"#utility.yul\":16990:16996   */\n      dup3\n        /* \"#utility.yul\":16983:17025   */\n      sstore\n        /* \"#utility.yul\":17064:17065   */\n      0x01\n        /* \"#utility.yul\":17056:17062   */\n      dup3\n        /* \"#utility.yul\":17052:17066   */\n      add\n        /* \"#utility.yul\":17042:17066   */\n      swap2\n      pop\n        /* \"#utility.yul\":17111:17113   */\n      0x20\n        /* \"#utility.yul\":17100:17109   */\n      dup6\n        /* \"#utility.yul\":17096:17114   */\n      add\n        /* \"#utility.yul\":17083:17114   */\n      swap5\n      pop\n        /* \"#utility.yul\":16957:16961   */\n      0x20\n        /* \"#utility.yul\":16954:16955   */\n      dup2\n        /* \"#utility.yul\":16950:16962   */\n      add\n        /* \"#utility.yul\":16945:16962   */\n      swap1\n      pop\n        /* \"#utility.yul\":16920:17128   */\n      jump(tag_444)\n    tag_446:\n        /* \"#utility.yul\":17156:17162   */\n      dup7\n        /* \"#utility.yul\":17147:17154   */\n      dup4\n        /* \"#utility.yul\":17144:17163   */\n      lt\n        /* \"#utility.yul\":17141:17320   */\n      iszero\n      tag_447\n      jumpi\n        /* \"#utility.yul\":17214:17223   */\n      dup5\n        /* \"#utility.yul\":17209:17212   */\n      dup10\n        /* \"#utility.yul\":17205:17224   */\n      add\n        /* \"#utility.yul\":17199:17225   */\n      mload\n        /* \"#utility.yul\":17257:17305   */\n      tag_448\n        /* \"#utility.yul\":17299:17303   */\n      0x1f\n        /* \"#utility.yul\":17291:17297   */\n      dup10\n        /* \"#utility.yul\":17287:17304   */\n      and\n        /* \"#utility.yul\":17276:17285   */\n      dup3\n        /* \"#utility.yul\":17257:17305   */\n      tag_258\n      jump\t// in\n    tag_448:\n        /* \"#utility.yul\":17249:17255   */\n      dup4\n        /* \"#utility.yul\":17242:17306   */\n      sstore\n        /* \"#utility.yul\":17164:17320   */\n      pop\n        /* \"#utility.yul\":17141:17320   */\n    tag_447:\n        /* \"#utility.yul\":17366:17367   */\n      0x01\n        /* \"#utility.yul\":17362:17363   */\n      0x02\n        /* \"#utility.yul\":17354:17360   */\n      dup9\n        /* \"#utility.yul\":17350:17364   */\n      mul\n        /* \"#utility.yul\":17346:17368   */\n      add\n        /* \"#utility.yul\":17340:17344   */\n      dup9\n        /* \"#utility.yul\":17333:17369   */\n      sstore\n        /* \"#utility.yul\":16768:17379   */\n      pop\n      pop\n      pop\n        /* \"#utility.yul\":16731:17618   */\n    tag_439:\n      pop\n        /* \"#utility.yul\":16321:17624   */\n      pop\n      pop\n      pop\n        /* \"#utility.yul\":16229:17624   */\n      pop\n      pop\n      jump\t// out\n        /* \"#utility.yul\":17654:18485   */\n    tag_260:\n        /* \"#utility.yul\":17739:17742   */\n      0x00\n        /* \"#utility.yul\":17776:17781   */\n      dup2\n        /* \"#utility.yul\":17770:17782   */\n      sload\n        /* \"#utility.yul\":17805:17841   */\n      tag_450\n        /* \"#utility.yul\":17831:17840   */\n      dup2\n        /* \"#utility.yul\":17805:17841   */\n      tag_79\n      jump\t// in\n    tag_450:\n        /* \"#utility.yul\":17857:17928   */\n      tag_451\n        /* \"#utility.yul\":17921:17927   */\n      dup2\n        /* \"#utility.yul\":17916:17919   */\n      dup7\n        /* \"#utility.yul\":17857:17928   */\n      tag_241\n      jump\t// in\n    tag_451:\n        /* \"#utility.yul\":17850:17928   */\n      swap5\n      pop\n        /* \"#utility.yul\":17959:17960   */\n      0x01\n        /* \"#utility.yul\":17948:17957   */\n      dup3\n        /* \"#utility.yul\":17944:17961   */\n      and\n        /* \"#utility.yul\":17975:17976   */\n      0x00\n        /* \"#utility.yul\":17970:18134   */\n      dup2\n      eq\n      tag_453\n      jumpi\n        /* \"#utility.yul\":18148:18149   */\n      0x01\n        /* \"#utility.yul\":18143:18479   */\n      dup2\n      eq\n      tag_454\n      jumpi\n        /* \"#utility.yul\":17937:18479   */\n      jump(tag_452)\n        /* \"#utility.yul\":17970:18134   */\n    tag_453:\n        /* \"#utility.yul\":18054:18058   */\n      0xff\n        /* \"#utility.yul\":18050:18059   */\n      not\n        /* \"#utility.yul\":18039:18048   */\n      dup4\n        /* \"#utility.yul\":18035:18060   */\n      and\n        /* \"#utility.yul\":18030:18033   */\n      dup7\n        /* \"#utility.yul\":18023:18061   */\n      mstore\n        /* \"#utility.yul\":18114:18120   */\n      dup2\n        /* \"#utility.yul\":18107:18121   */\n      iszero\n        /* \"#utility.yul\":18100:18122   */\n      iszero\n        /* \"#utility.yul\":18094:18098   */\n      0x20\n        /* \"#utility.yul\":18090:18123   */\n      mul\n        /* \"#utility.yul\":18085:18088   */\n      dup7\n        /* \"#utility.yul\":18081:18124   */\n      add\n        /* \"#utility.yul\":18074:18124   */\n      swap4\n      pop\n        /* \"#utility.yul\":17970:18134   */\n      jump(tag_452)\n        /* \"#utility.yul\":18143:18479   */\n    tag_454:\n        /* \"#utility.yul\":18210:18248   */\n      tag_455\n        /* \"#utility.yul\":18242:18247   */\n      dup6\n        /* \"#utility.yul\":18210:18248   */\n      tag_245\n      jump\t// in\n    tag_455:\n        /* \"#utility.yul\":18270:18271   */\n      0x00\n        /* \"#utility.yul\":18284:18438   */\n    tag_456:\n        /* \"#utility.yul\":18298:18304   */\n      dup4\n        /* \"#utility.yul\":18295:18296   */\n      dup2\n        /* \"#utility.yul\":18292:18305   */\n      lt\n        /* \"#utility.yul\":18284:18438   */\n      iszero\n      tag_458\n      jumpi\n        /* \"#utility.yul\":18372:18379   */\n      dup2\n        /* \"#utility.yul\":18366:18380   */\n      sload\n        /* \"#utility.yul\":18362:18363   */\n      dup2\n        /* \"#utility.yul\":18357:18360   */\n      dup10\n        /* \"#utility.yul\":18353:18364   */\n      add\n        /* \"#utility.yul\":18346:18381   */\n      mstore\n        /* \"#utility.yul\":18422:18423   */\n      0x01\n        /* \"#utility.yul\":18413:18420   */\n      dup3\n        /* \"#utility.yul\":18409:18424   */\n      add\n        /* \"#utility.yul\":18398:18424   */\n      swap2\n      pop\n        /* \"#utility.yul\":18320:18324   */\n      0x20\n        /* \"#utility.yul\":18317:18318   */\n      dup2\n        /* \"#utility.yul\":18313:18325   */\n      add\n        /* \"#utility.yul\":18308:18325   */\n      swap1\n      pop\n        /* \"#utility.yul\":18284:18438   */\n      jump(tag_456)\n    tag_458:\n        /* \"#utility.yul\":18467:18468   */\n      dup1\n        /* \"#utility.yul\":18462:18465   */\n      dup9\n        /* \"#utility.yul\":18458:18469   */\n      add\n        /* \"#utility.yul\":18451:18469   */\n      swap6\n      pop\n        /* \"#utility.yul\":18150:18479   */\n      pop\n      pop\n        /* \"#utility.yul\":17937:18479   */\n    tag_452:\n      pop\n        /* \"#utility.yul\":17743:18485   */\n      pop\n      pop\n        /* \"#utility.yul\":17654:18485   */\n      swap3\n      swap2\n      pop\n      pop\n      jump\t// out\n        /* \"#utility.yul\":18491:18798   */\n    tag_65:\n        /* \"#utility.yul\":18601:18605   */\n      0x00\n        /* \"#utility.yul\":18639:18641   */\n      0x20\n        /* \"#utility.yul\":18628:18637   */\n      dup3\n        /* \"#utility.yul\":18624:18642   */\n      add\n        /* \"#utility.yul\":18616:18642   */\n      swap1\n      pop\n        /* \"#utility.yul\":18688:18697   */\n      dup2\n        /* \"#utility.yul\":18682:18686   */\n      dup2\n        /* \"#utility.yul\":18678:18698   */\n      sub\n        /* \"#utility.yul\":18674:18675   */\n      0x00\n        /* \"#utility.yul\":18663:18672   */\n      dup4\n        /* \"#utility.yul\":18659:18676   */\n      add\n        /* \"#utility.yul\":18652:18699   */\n      mstore\n        /* \"#utility.yul\":18716:18791   */\n      tag_460\n        /* \"#utility.yul\":18786:18790   */\n      dup2\n        /* \"#utility.yul\":18777:18783   */\n      dup5\n        /* \"#utility.yul\":18716:18791   */\n      tag_260\n      jump\t// in\n    tag_460:\n        /* \"#utility.yul\":18708:18791   */\n      swap1\n      pop\n        /* \"#utility.yul\":18491:18798   */\n      swap3\n      swap2\n      pop\n      pop\n      jump\t// out\n        /* \"#utility.yul\":18804:18978   */\n    tag_261:\n        /* \"#utility.yul\":18944:18970   */\n      0x5573657220616c726561647920726567697374657265642e0000000000000000\n        /* \"#utility.yul\":18940:18941   */\n      0x00\n        /* \"#utility.yul\":18932:18938   */\n      dup3\n        /* \"#utility.yul\":18928:18942   */\n      add\n        /* \"#utility.yul\":18921:18971   */\n      mstore\n        /* \"#utility.yul\":18804:18978   */\n      pop\n      jump\t// out\n        /* \"#utility.yul\":18984:19350   */\n    tag_262:\n        /* \"#utility.yul\":19126:19129   */\n      0x00\n        /* \"#utility.yul\":19147:19214   */\n      tag_463\n        /* \"#utility.yul\":19211:19213   */\n      0x18\n        /* \"#utility.yul\":19206:19209   */\n      dup4\n        /* \"#utility.yul\":19147:19214   */\n      tag_241\n      jump\t// in\n    tag_463:\n        /* \"#utility.yul\":19140:19214   */\n      swap2\n      pop\n        /* \"#utility.yul\":19223:19316   */\n      tag_464\n        /* \"#utility.yul\":19312:19315   */\n      dup3\n        /* \"#utility.yul\":19223:19316   */\n      tag_261\n      jump\t// in\n    tag_464:\n        /* \"#utility.yul\":19341:19343   */\n      0x20\n        /* \"#utility.yul\":19336:19339   */\n      dup3\n        /* \"#utility.yul\":19332:19344   */\n      add\n        /* \"#utility.yul\":19325:19344   */\n      swap1\n      pop\n        /* \"#utility.yul\":18984:19350   */\n      swap2\n      swap1\n      pop\n      jump\t// out\n        /* \"#utility.yul\":19356:19775   */\n    tag_122:\n        /* \"#utility.yul\":19522:19526   */\n      0x00\n        /* \"#utility.yul\":19560:19562   */\n      0x20\n        /* \"#utility.yul\":19549:19558   */\n      dup3\n        /* \"#utility.yul\":19545:19563   */\n      add\n        /* \"#utility.yul\":19537:19563   */\n      swap1\n      pop\n        /* \"#utility.yul\":19609:19618   */\n      dup2\n        /* \"#utility.yul\":19603:19607   */\n      dup2\n        /* \"#utility.yul\":19599:19619   */\n      sub\n        /* \"#utility.yul\":19595:19596   */\n      0x00\n        /* \"#utility.yul\":19584:19593   */\n      dup4\n        /* \"#utility.yul\":19580:19597   */\n      add\n        /* \"#utility.yul\":19573:19620   */\n      mstore\n        /* \"#utility.yul\":19637:19768   */\n      tag_466\n        /* \"#utility.yul\":19763:19767   */\n      dup2\n        /* \"#utility.yul\":19637:19768   */\n      tag_262\n      jump\t// in\n    tag_466:\n        /* \"#utility.yul\":19629:19768   */\n      swap1\n      pop\n        /* \"#utility.yul\":19356:19775   */\n      swap2\n      swap1\n      pop\n      jump\t// out\n        /* \"#utility.yul\":19781:19929   */\n    tag_263:\n        /* \"#utility.yul\":19883:19894   */\n      0x00\n        /* \"#utility.yul\":19920:19923   */\n      dup2\n        /* \"#utility.yul\":19905:19923   */\n      swap1\n      pop\n        /* \"#utility.yul\":19781:19929   */\n      swap3\n      swap2\n      pop\n      pop\n      jump\t// out\n        /* \"#utility.yul\":19935:20325   */\n    tag_264:\n        /* \"#utility.yul\":20041:20044   */\n      0x00\n        /* \"#utility.yul\":20069:20108   */\n      tag_469\n        /* \"#utility.yul\":20102:20107   */\n      dup3\n        /* \"#utility.yul\":20069:20108   */\n      tag_228\n      jump\t// in\n    tag_469:\n        /* \"#utility.yul\":20124:20213   */\n      tag_470\n        /* \"#utility.yul\":20206:20212   */\n      dup2\n        /* \"#utility.yul\":20201:20204   */\n      dup6\n        /* \"#utility.yul\":20124:20213   */\n      tag_263\n      jump\t// in\n    tag_470:\n        /* \"#utility.yul\":20117:20213   */\n      swap4\n      pop\n        /* \"#utility.yul\":20222:20287   */\n      tag_471\n        /* \"#utility.yul\":20280:20286   */\n      dup2\n        /* \"#utility.yul\":20275:20278   */\n      dup6\n        /* \"#utility.yul\":20268:20272   */\n      0x20\n        /* \"#utility.yul\":20261:20266   */\n      dup7\n        /* \"#utility.yul\":20257:20273   */\n      add\n        /* \"#utility.yul\":20222:20287   */\n      tag_230\n      jump\t// in\n    tag_471:\n        /* \"#utility.yul\":20312:20318   */\n      dup1\n        /* \"#utility.yul\":20307:20310   */\n      dup5\n        /* \"#utility.yul\":20303:20319   */\n      add\n        /* \"#utility.yul\":20296:20319   */\n      swap2\n      pop\n        /* \"#utility.yul\":20045:20325   */\n      pop\n        /* \"#utility.yul\":19935:20325   */\n      swap3\n      swap2\n      pop\n      pop\n      jump\t// out\n        /* \"#utility.yul\":20331:20482   */\n    tag_265:\n        /* \"#utility.yul\":20471:20474   */\n      0x5f00000000000000000000000000000000000000000000000000000000000000\n        /* \"#utility.yul\":20467:20468   */\n      0x00\n        /* \"#utility.yul\":20459:20465   */\n      dup3\n        /* \"#utility.yul\":20455:20469   */\n      add\n        /* \"#utility.yul\":20448:20475   */\n      mstore\n        /* \"#utility.yul\":20331:20482   */\n      pop\n      jump\t// out\n        /* \"#utility.yul\":20488:20888   */\n    tag_266:\n        /* \"#utility.yul\":20648:20651   */\n      0x00\n        /* \"#utility.yul\":20669:20753   */\n      tag_474\n        /* \"#utility.yul\":20751:20752   */\n      0x01\n        /* \"#utility.yul\":20746:20749   */\n      dup4\n        /* \"#utility.yul\":20669:20753   */\n      tag_263\n      jump\t// in\n    tag_474:\n        /* \"#utility.yul\":20662:20753   */\n      swap2\n      pop\n        /* \"#utility.yul\":20762:20855   */\n      tag_475\n        /* \"#utility.yul\":20851:20854   */\n      dup3\n        /* \"#utility.yul\":20762:20855   */\n      tag_265\n      jump\t// in\n    tag_475:\n        /* \"#utility.yul\":20880:20881   */\n      0x01\n        /* \"#utility.yul\":20875:20878   */\n      dup3\n        /* \"#utility.yul\":20871:20882   */\n      add\n        /* \"#utility.yul\":20864:20882   */\n      swap1\n      pop\n        /* \"#utility.yul\":20488:20888   */\n      swap2\n      swap1\n      pop\n      jump\t// out\n        /* \"#utility.yul\":20894:21595   */\n    tag_126:\n        /* \"#utility.yul\":21175:21178   */\n      0x00\n        /* \"#utility.yul\":21197:21292   */\n      tag_477\n        /* \"#utility.yul\":21288:21291   */\n      dup3\n        /* \"#utility.yul\":21279:21285   */\n      dup6\n        /* \"#utility.yul\":21197:21292   */\n      tag_264\n      jump\t// in\n    tag_477:\n        /* \"#utility.yul\":21190:21292   */\n      swap2\n      pop\n        /* \"#utility.yul\":21309:21457   */\n      tag_478\n        /* \"#utility.yul\":21453:21456   */\n      dup3\n        /* \"#utility.yul\":21309:21457   */\n      tag_266\n      jump\t// in\n    tag_478:\n        /* \"#utility.yul\":21302:21457   */\n      swap2\n      pop\n        /* \"#utility.yul\":21474:21569   */\n      tag_479\n        /* \"#utility.yul\":21565:21568   */\n      dup3\n        /* \"#utility.yul\":21556:21562   */\n      dup5\n        /* \"#utility.yul\":21474:21569   */\n      tag_264\n      jump\t// in\n    tag_479:\n        /* \"#utility.yul\":21467:21569   */\n      swap2\n      pop\n        /* \"#utility.yul\":21586:21589   */\n      dup2\n        /* \"#utility.yul\":21579:21589   */\n      swap1\n      pop\n        /* \"#utility.yul\":20894:21595   */\n      swap4\n      swap3\n      pop\n      pop\n      pop\n      jump\t// out\n        /* \"#utility.yul\":21601:21978   */\n    tag_267:\n        /* \"#utility.yul\":21689:21692   */\n      0x00\n        /* \"#utility.yul\":21717:21756   */\n      tag_481\n        /* \"#utility.yul\":21750:21755   */\n      dup3\n        /* \"#utility.yul\":21717:21756   */\n      tag_228\n      jump\t// in\n    tag_481:\n        /* \"#utility.yul\":21772:21843   */\n      tag_482\n        /* \"#utility.yul\":21836:21842   */\n      dup2\n        /* \"#utility.yul\":21831:21834   */\n      dup6\n        /* \"#utility.yul\":21772:21843   */\n      tag_241\n      jump\t// in\n    tag_482:\n        /* \"#utility.yul\":21765:21843   */\n      swap4\n      pop\n        /* \"#utility.yul\":21852:21917   */\n      tag_483\n        /* \"#utility.yul\":21910:21916   */\n      dup2\n        /* \"#utility.yul\":21905:21908   */\n      dup6\n        /* \"#utility.yul\":21898:21902   */\n      0x20\n        /* \"#utility.yul\":21891:21896   */\n      dup7\n        /* \"#utility.yul\":21887:21903   */\n      add\n        /* \"#utility.yul\":21852:21917   */\n      tag_230\n      jump\t// in\n    tag_483:\n        /* \"#utility.yul\":21942:21971   */\n      tag_484\n        /* \"#utility.yul\":21964:21970   */\n      dup2\n        /* \"#utility.yul\":21942:21971   */\n      tag_221\n      jump\t// in\n    tag_484:\n        /* \"#utility.yul\":21937:21940   */\n      dup5\n        /* \"#utility.yul\":21933:21972   */\n      add\n        /* \"#utility.yul\":21926:21972   */\n      swap2\n      pop\n        /* \"#utility.yul\":21693:21978   */\n      pop\n        /* \"#utility.yul\":21601:21978   */\n      swap3\n      swap2\n      pop\n      pop\n      jump\t// out\n        /* \"#utility.yul\":21984:22297   */\n    tag_136:\n        /* \"#utility.yul\":22097:22101   */\n      0x00\n        /* \"#utility.yul\":22135:22137   */\n      0x20\n        /* \"#utility.yul\":22124:22133   */\n      dup3\n        /* \"#utility.yul\":22120:22138   */\n      add\n        /* \"#utility.yul\":22112:22138   */\n      swap1\n      pop\n        /* \"#utility.yul\":22184:22193   */\n      dup2\n        /* \"#utility.yul\":22178:22182   */\n      dup2\n        /* \"#utility.yul\":22174:22194   */\n      sub\n        /* \"#utility.yul\":22170:22171   */\n      0x00\n        /* \"#utility.yul\":22159:22168   */\n      dup4\n        /* \"#utility.yul\":22155:22172   */\n      add\n        /* \"#utility.yul\":22148:22195   */\n      mstore\n        /* \"#utility.yul\":22212:22290   */\n      tag_486\n        /* \"#utility.yul\":22285:22289   */\n      dup2\n        /* \"#utility.yul\":22276:22282   */\n      dup5\n        /* \"#utility.yul\":22212:22290   */\n      tag_267\n      jump\t// in\n    tag_486:\n        /* \"#utility.yul\":22204:22290   */\n      swap1\n      pop\n        /* \"#utility.yul\":21984:22297   */\n      swap3\n      swap2\n      pop\n      pop\n      jump\t// out\n        /* \"#utility.yul\":22303:22476   */\n    tag_268:\n        /* \"#utility.yul\":22443:22468   */\n      0x496e73756666696369656e74204c5620706f696e74732e000000000000000000\n        /* \"#utility.yul\":22439:22440   */\n      0x00\n        /* \"#utility.yul\":22431:22437   */\n      dup3\n        /* \"#utility.yul\":22427:22441   */\n      add\n        /* \"#utility.yul\":22420:22469   */\n      mstore\n        /* \"#utility.yul\":22303:22476   */\n      pop\n      jump\t// out\n        /* \"#utility.yul\":22482:22848   */\n    tag_269:\n        /* \"#utility.yul\":22624:22627   */\n      0x00\n        /* \"#utility.yul\":22645:22712   */\n      tag_489\n        /* \"#utility.yul\":22709:22711   */\n      0x17\n        /* \"#utility.yul\":22704:22707   */\n      dup4\n        /* \"#utility.yul\":22645:22712   */\n      tag_241\n      jump\t// in\n    tag_489:\n        /* \"#utility.yul\":22638:22712   */\n      swap2\n      pop\n        /* \"#utility.yul\":22721:22814   */\n      tag_490\n        /* \"#utility.yul\":22810:22813   */\n      dup3\n        /* \"#utility.yul\":22721:22814   */\n      tag_268\n      jump\t// in\n    tag_490:\n        /* \"#utility.yul\":22839:22841   */\n      0x20\n        /* \"#utility.yul\":22834:22837   */\n      dup3\n        /* \"#utility.yul\":22830:22842   */\n      add\n        /* \"#utility.yul\":22823:22842   */\n      swap1\n      pop\n        /* \"#utility.yul\":22482:22848   */\n      swap2\n      swap1\n      pop\n      jump\t// out\n        /* \"#utility.yul\":22854:23273   */\n    tag_161:\n        /* \"#utility.yul\":23020:23024   */\n      0x00\n        /* \"#utility.yul\":23058:23060   */\n      0x20\n        /* \"#utility.yul\":23047:23056   */\n      dup3\n        /* \"#utility.yul\":23043:23061   */\n      add\n        /* \"#utility.yul\":23035:23061   */\n      swap1\n      pop\n        /* \"#utility.yul\":23107:23116   */\n      dup2\n        /* \"#utility.yul\":23101:23105   */\n      dup2\n        /* \"#utility.yul\":23097:23117   */\n      sub\n        /* \"#utility.yul\":23093:23094   */\n      0x00\n        /* \"#utility.yul\":23082:23091   */\n      dup4\n        /* \"#utility.yul\":23078:23095   */\n      add\n        /* \"#utility.yul\":23071:23118   */\n      mstore\n        /* \"#utility.yul\":23135:23266   */\n      tag_492\n        /* \"#utility.yul\":23261:23265   */\n      dup2\n        /* \"#utility.yul\":23135:23266   */\n      tag_269\n      jump\t// in\n    tag_492:\n        /* \"#utility.yul\":23127:23266   */\n      swap1\n      pop\n        /* \"#utility.yul\":22854:23273   */\n      swap2\n      swap1\n      pop\n      jump\t// out\n        /* \"#utility.yul\":23279:23452   */\n    tag_270:\n        /* \"#utility.yul\":23419:23444   */\n      0x496e73756666696369656e7420474720706f696e74732e000000000000000000\n        /* \"#utility.yul\":23415:23416   */\n      0x00\n        /* \"#utility.yul\":23407:23413   */\n      dup3\n        /* \"#utility.yul\":23403:23417   */\n      add\n        /* \"#utility.yul\":23396:23445   */\n      mstore\n        /* \"#utility.yul\":23279:23452   */\n      pop\n      jump\t// out\n        /* \"#utility.yul\":23458:23824   */\n    tag_271:\n        /* \"#utility.yul\":23600:23603   */\n      0x00\n        /* \"#utility.yul\":23621:23688   */\n      tag_495\n        /* \"#utility.yul\":23685:23687   */\n      0x17\n        /* \"#utility.yul\":23680:23683   */\n      dup4\n        /* \"#utility.yul\":23621:23688   */\n      tag_241\n      jump\t// in\n    tag_495:\n        /* \"#utility.yul\":23614:23688   */\n      swap2\n      pop\n        /* \"#utility.yul\":23697:23790   */\n      tag_496\n        /* \"#utility.yul\":23786:23789   */\n      dup3\n        /* \"#utility.yul\":23697:23790   */\n      tag_270\n      jump\t// in\n    tag_496:\n        /* \"#utility.yul\":23815:23817   */\n      0x20\n        /* \"#utility.yul\":23810:23813   */\n      dup3\n        /* \"#utility.yul\":23806:23818   */\n      add\n        /* \"#utility.yul\":23799:23818   */\n      swap1\n      pop\n        /* \"#utility.yul\":23458:23824   */\n      swap2\n      swap1\n      pop\n      jump\t// out\n        /* \"#utility.yul\":23830:24249   */\n    tag_164:\n        /* \"#utility.yul\":23996:24000   */\n      0x00\n        /* \"#utility.yul\":24034:24036   */\n      0x20\n        /* \"#utility.yul\":24023:24032   */\n      dup3\n        /* \"#utility.yul\":24019:24037   */\n      add\n        /* \"#utility.yul\":24011:24037   */\n      swap1\n      pop\n        /* \"#utility.yul\":24083:24092   */\n      dup2\n        /* \"#utility.yul\":24077:24081   */\n      dup2\n        /* \"#utility.yul\":24073:24093   */\n      sub\n        /* \"#utility.yul\":24069:24070   */\n      0x00\n        /* \"#utility.yul\":24058:24067   */\n      dup4\n        /* \"#utility.yul\":24054:24071   */\n      add\n        /* \"#utility.yul\":24047:24094   */\n      mstore\n        /* \"#utility.yul\":24111:24242   */\n      tag_498\n        /* \"#utility.yul\":24237:24241   */\n      dup2\n        /* \"#utility.yul\":24111:24242   */\n      tag_271\n      jump\t// in\n    tag_498:\n        /* \"#utility.yul\":24103:24242   */\n      swap1\n      pop\n        /* \"#utility.yul\":23830:24249   */\n      swap2\n      swap1\n      pop\n      jump\t// out\n        /* \"#utility.yul\":24255:24435   */\n    tag_272:\n        /* \"#utility.yul\":24303:24380   */\n      0x4e487b7100000000000000000000000000000000000000000000000000000000\n        /* \"#utility.yul\":24300:24301   */\n      0x00\n        /* \"#utility.yul\":24293:24381   */\n      mstore\n        /* \"#utility.yul\":24400:24404   */\n      0x11\n        /* \"#utility.yul\":24397:24398   */\n      0x04\n        /* \"#utility.yul\":24390:24405   */\n      mstore\n        /* \"#utility.yul\":24424:24428   */\n      0x24\n        /* \"#utility.yul\":24421:24422   */\n      0x00\n        /* \"#utility.yul\":24414:24429   */\n      revert\n        /* \"#utility.yul\":24441:24635   */\n    tag_166:\n        /* \"#utility.yul\":24481:24485   */\n      0x00\n        /* \"#utility.yul\":24501:24521   */\n      tag_501\n        /* \"#utility.yul\":24519:24520   */\n      dup3\n        /* \"#utility.yul\":24501:24521   */\n      tag_232\n      jump\t// in\n    tag_501:\n        /* \"#utility.yul\":24496:24521   */\n      swap2\n      pop\n        /* \"#utility.yul\":24535:24555   */\n      tag_502\n        /* \"#utility.yul\":24553:24554   */\n      dup4\n        /* \"#utility.yul\":24535:24555   */\n      tag_232\n      jump\t// in\n    tag_502:\n        /* \"#utility.yul\":24530:24555   */\n      swap3\n      pop\n        /* \"#utility.yul\":24579:24580   */\n      dup3\n        /* \"#utility.yul\":24576:24577   */\n      dup3\n        /* \"#utility.yul\":24572:24581   */\n      sub\n        /* \"#utility.yul\":24564:24581   */\n      swap1\n      pop\n        /* \"#utility.yul\":24603:24604   */\n      dup2\n        /* \"#utility.yul\":24597:24601   */\n      dup2\n        /* \"#utility.yul\":24594:24605   */\n      gt\n        /* \"#utility.yul\":24591:24628   */\n      iszero\n      tag_503\n      jumpi\n        /* \"#utility.yul\":24608:24626   */\n      tag_504\n      tag_272\n      jump\t// in\n    tag_504:\n        /* \"#utility.yul\":24591:24628   */\n    tag_503:\n        /* \"#utility.yul\":24441:24635   */\n      swap3\n      swap2\n      pop\n      pop\n      jump\t// out\n        /* \"#utility.yul\":24641:24759   */\n    tag_273:\n        /* \"#utility.yul\":24728:24752   */\n      tag_506\n        /* \"#utility.yul\":24746:24751   */\n      dup2\n        /* \"#utility.yul\":24728:24752   */\n      tag_232\n      jump\t// in\n    tag_506:\n        /* \"#utility.yul\":24723:24726   */\n      dup3\n        /* \"#utility.yul\":24716:24753   */\n      mstore\n        /* \"#utility.yul\":24641:24759   */\n      pop\n      pop\n      jump\t// out\n        /* \"#utility.yul\":24765:25097   */\n    tag_169:\n        /* \"#utility.yul\":24886:24890   */\n      0x00\n        /* \"#utility.yul\":24924:24926   */\n      0x40\n        /* \"#utility.yul\":24913:24922   */\n      dup3\n        /* \"#utility.yul\":24909:24927   */\n      add\n        /* \"#utility.yul\":24901:24927   */\n      swap1\n      pop\n        /* \"#utility.yul\":24937:25008   */\n      tag_508\n        /* \"#utility.yul\":25005:25006   */\n      0x00\n        /* \"#utility.yul\":24994:25003   */\n      dup4\n        /* \"#utility.yul\":24990:25007   */\n      add\n        /* \"#utility.yul\":24981:24987   */\n      dup6\n        /* \"#utility.yul\":24937:25008   */\n      tag_273\n      jump\t// in\n    tag_508:\n        /* \"#utility.yul\":25018:25090   */\n      tag_509\n        /* \"#utility.yul\":25086:25088   */\n      0x20\n        /* \"#utility.yul\":25075:25084   */\n      dup4\n        /* \"#utility.yul\":25071:25089   */\n      add\n        /* \"#utility.yul\":25062:25068   */\n      dup5\n        /* \"#utility.yul\":25018:25090   */\n      tag_273\n      jump\t// in\n    tag_509:\n        /* \"#utility.yul\":24765:25097   */\n      swap4\n      swap3\n      pop\n      pop\n      pop\n      jump\t// out\n        /* \"#utility.yul\":25103:25294   */\n    tag_191:\n        /* \"#utility.yul\":25143:25146   */\n      0x00\n        /* \"#utility.yul\":25162:25182   */\n      tag_511\n        /* \"#utility.yul\":25180:25181   */\n      dup3\n        /* \"#utility.yul\":25162:25182   */\n      tag_232\n      jump\t// in\n    tag_511:\n        /* \"#utility.yul\":25157:25182   */\n      swap2\n      pop\n        /* \"#utility.yul\":25196:25216   */\n      tag_512\n        /* \"#utility.yul\":25214:25215   */\n      dup4\n        /* \"#utility.yul\":25196:25216   */\n      tag_232\n      jump\t// in\n    tag_512:\n        /* \"#utility.yul\":25191:25216   */\n      swap3\n      pop\n        /* \"#utility.yul\":25239:25240   */\n      dup3\n        /* \"#utility.yul\":25236:25237   */\n      dup3\n        /* \"#utility.yul\":25232:25241   */\n      add\n        /* \"#utility.yul\":25225:25241   */\n      swap1\n      pop\n        /* \"#utility.yul\":25260:25263   */\n      dup1\n        /* \"#utility.yul\":25257:25258   */\n      dup3\n        /* \"#utility.yul\":25254:25264   */\n      gt\n        /* \"#utility.yul\":25251:25287   */\n      iszero\n      tag_513\n      jumpi\n        /* \"#utility.yul\":25267:25285   */\n      tag_514\n      tag_272\n      jump\t// in\n    tag_514:\n        /* \"#utility.yul\":25251:25287   */\n    tag_513:\n        /* \"#utility.yul\":25103:25294   */\n      swap3\n      swap2\n      pop\n      pop\n      jump\t// out\n        /* \"#utility.yul\":25300:25533   */\n    tag_199:\n        /* \"#utility.yul\":25339:25342   */\n      0x00\n        /* \"#utility.yul\":25362:25386   */\n      tag_516\n        /* \"#utility.yul\":25380:25385   */\n      dup3\n        /* \"#utility.yul\":25362:25386   */\n      tag_232\n      jump\t// in\n    tag_516:\n        /* \"#utility.yul\":25353:25386   */\n      swap2\n      pop\n        /* \"#utility.yul\":25408:25474   */\n      0xffffffffffffffffffffffffffffffffffffffffffffffffffffffffffffffff\n        /* \"#utility.yul\":25401:25406   */\n      dup3\n        /* \"#utility.yul\":25398:25475   */\n      sub\n        /* \"#utility.yul\":25395:25498   */\n      tag_517\n      jumpi\n        /* \"#utility.yul\":25478:25496   */\n      tag_518\n      tag_272\n      jump\t// in\n    tag_518:\n        /* \"#utility.yul\":25395:25498   */\n    tag_517:\n        /* \"#utility.yul\":25525:25526   */\n      0x01\n        /* \"#utility.yul\":25518:25523   */\n      dup3\n        /* \"#utility.yul\":25514:25527   */\n      add\n        /* \"#utility.yul\":25507:25527   */\n      swap1\n      pop\n        /* \"#utility.yul\":25300:25533   */\n      swap2\n      swap1\n      pop\n      jump\t// out\n        /* \"#utility.yul\":25539:25719   */\n    tag_274:\n        /* \"#utility.yul\":25587:25664   */\n      0x4e487b7100000000000000000000000000000000000000000000000000000000\n        /* \"#utility.yul\":25584:25585   */\n      0x00\n        /* \"#utility.yul\":25577:25665   */\n      mstore\n        /* \"#utility.yul\":25684:25688   */\n      0x12\n        /* \"#utility.yul\":25681:25682   */\n      0x04\n        /* \"#utility.yul\":25674:25689   */\n      mstore\n        /* \"#utility.yul\":25708:25712   */\n      0x24\n        /* \"#utility.yul\":25705:25706   */\n      0x00\n        /* \"#utility.yul\":25698:25713   */\n      revert\n        /* \"#utility.yul\":25725:25910   */\n    tag_201:\n        /* \"#utility.yul\":25765:25766   */\n      0x00\n        /* \"#utility.yul\":25782:25802   */\n      tag_521\n        /* \"#utility.yul\":25800:25801   */\n      dup3\n        /* \"#utility.yul\":25782:25802   */\n      tag_232\n      jump\t// in\n    tag_521:\n        /* \"#utility.yul\":25777:25802   */\n      swap2\n      pop\n        /* \"#utility.yul\":25816:25836   */\n      tag_522\n        /* \"#utility.yul\":25834:25835   */\n      dup4\n        /* \"#utility.yul\":25816:25836   */\n      tag_232\n      jump\t// in\n    tag_522:\n        /* \"#utility.yul\":25811:25836   */\n      swap3\n      pop\n        /* \"#utility.yul\":25855:25856   */\n      dup3\n        /* \"#utility.yul\":25845:25880   */\n      tag_523\n      jumpi\n        /* \"#utility.yul\":25860:25878   */\n      tag_524\n      tag_274\n      jump\t// in\n    tag_524:\n        /* \"#utility.yul\":25845:25880   */\n    tag_523:\n        /* \"#utility.yul\":25902:25903   */\n      dup3\n        /* \"#utility.yul\":25899:25900   */\n      dup3\n        /* \"#utility.yul\":25895:25904   */\n      div\n        /* \"#utility.yul\":25890:25904   */\n      swap1\n      pop\n        /* \"#utility.yul\":25725:25910   */\n      swap3\n      swap2\n      pop\n      pop\n      jump\t// out\n        /* \"#utility.yul\":25916:26092   */\n    tag_210:\n        /* \"#utility.yul\":25948:25949   */\n      0x00\n        /* \"#utility.yul\":25965:25985   */\n      tag_526\n        /* \"#utility.yul\":25983:25984   */\n      dup3\n        /* \"#utility.yul\":25965:25985   */\n      tag_232\n      jump\t// in\n    tag_526:\n        /* \"#utility.yul\":25960:25985   */\n      swap2\n      pop\n        /* \"#utility.yul\":25999:26019   */\n      tag_527\n        /* \"#utility.yul\":26017:26018   */\n      dup4\n        /* \"#utility.yul\":25999:26019   */\n      tag_232\n      jump\t// in\n    tag_527:\n        /* \"#utility.yul\":25994:26019   */\n      swap3\n      pop\n        /* \"#utility.yul\":26038:26039   */\n      dup3\n        /* \"#utility.yul\":26028:26063   */\n      tag_528\n      jumpi\n        /* \"#utility.yul\":26043:26061   */\n      tag_529\n      tag_274\n      jump\t// in\n    tag_529:\n        /* \"#utility.yul\":26028:26063   */\n    tag_528:\n        /* \"#utility.yul\":26084:26085   */\n      dup3\n        /* \"#utility.yul\":26081:26082   */\n      dup3\n        /* \"#utility.yul\":26077:26086   */\n      mod\n        /* \"#utility.yul\":26072:26086   */\n      swap1\n      pop\n        /* \"#utility.yul\":25916:26092   */\n      swap3\n      swap2\n      pop\n      pop\n      jump\t// out\n        /* \"#utility.yul\":26098:26278   */\n    tag_214:\n        /* \"#utility.yul\":26146:26223   */\n      0x4e487b7100000000000000000000000000000000000000000000000000000000\n        /* \"#utility.yul\":26143:26144   */\n      0x00\n        /* \"#utility.yul\":26136:26224   */\n      mstore\n        /* \"#utility.yul\":26243:26247   */\n      0x32\n        /* \"#utility.yul\":26240:26241   */\n      0x04\n        /* \"#utility.yul\":26233:26248   */\n      mstore\n        /* \"#utility.yul\":26267:26271   */\n      0x24\n        /* \"#utility.yul\":26264:26265   */\n      0x00\n        /* \"#utility.yul\":26257:26272   */\n      revert\n\n    auxdata: 0xa26469706673582212207c29c7053830dbe38d4525e83634619276a364486a48f60378deeab599eddb9864736f6c634300081c0033\n}\n",
				"bytecode": {
					"linkReferences": {},
					"object": "6080604052348015600e575f5ffd5b5061272b8061001c5f395ff3fe608060405234801561000f575f5ffd5b50600436106100b2575f3560e01c8063de2931901161006f578063de29319014610160578063e07948001461017c578063f017625a14610198578063f06099af146101b4578063f5f6d70b146101d0578063fe4651a0146101ee576100b2565b80634f3b7de1146100b65780634fd05926146100d25780636f61c744146100ee57806370e997e21461010c57806393de838614610128578063c96cea7014610144575b5f5ffd5b6100d060048036038101906100cb9190611a94565b61020a565b005b6100ec60048036038101906100e79190611a94565b610338565b005b6100f6610466565b6040516101039190611cf3565b60405180910390f35b61012660048036038101906101219190611d13565b610a40565b005b610142600480360381019061013d9190611a94565b610d71565b005b61015e60048036038101906101599190611a94565b610e9f565b005b61017a60048036038101906101759190611a94565b610fcd565b005b61019660048036038101906101919190611e9e565b6110fb565b005b6101b260048036038101906101ad9190611a94565b6112da565b005b6101ce60048036038101906101c99190611a94565b611408565b005b6101d8611536565b6040516101e59190611eeb565b60405180910390f35b61020860048036038101906102039190611e9e565b611624565b005b60015f3373ffffffffffffffffffffffffffffffffffffffff1673ffffffffffffffffffffffffffffffffffffffff1681526020019081526020015f205f9054906101000a900460ff16610293576040517f08c379a000000000000000000000000000000000000000000000000000000000815260040161028a90611f5e565b60405180910390fd5b5f5f5f3373ffffffffffffffffffffffffffffffffffffffff1673ffffffffffffffffffffffffffffffffffffffff1681526020019081526020015f209050818160080190816102e39190612179565b503373ffffffffffffffffffffffffffffffffffffffff167f9ab5b01c08788936fb2b48da858665afe9fa06d32e17dc49e0510c24ba05c983825f0160405161032c91906122c9565b60405180910390a25050565b60015f3373ffffffffffffffffffffffffffffffffffffffff1673ffffffffffffffffffffffffffffffffffffffff1681526020019081526020015f205f9054906101000a900460ff166103c1576040517f08c379a00000000000000000000000000000000000000000000000000000000081526004016103b890611f5e565b60405180910390fd5b5f5f5f3373ffffffffffffffffffffffffffffffffffffffff1673ffffffffffffffffffffffffffffffffffffffff1681526020019081526020015f2090508181600b0190816104119190612179565b503373ffffffffffffffffffffffffffffffffffffffff167f9ab5b01c08788936fb2b48da858665afe9fa06d32e17dc49e0510c24ba05c983825f0160405161045a91906122c9565b60405180910390a25050565b61046e6118ce565b60015f3373ffffffffffffffffffffffffffffffffffffffff1673ffffffffffffffffffffffffffffffffffffffff1681526020019081526020015f205f9054906101000a900460ff166104f7576040517f08c379a00000000000000000000000000000000000000000000000000000000081526004016104ee90611f5e565b60405180910390fd5b5f5f3373ffffffffffffffffffffffffffffffffffffffff1673ffffffffffffffffffffffffffffffffffffffff1681526020019081526020015f20604051806101a00160405290815f8201805461054e90611fa9565b80601f016020809104026020016040519081016040528092919081815260200182805461057a90611fa9565b80156105c55780601f1061059c576101008083540402835291602001916105c5565b820191905f5260205f20905b8154815290600101906020018083116105a857829003601f168201915b505050505081526020016001820180546105de90611fa9565b80601f016020809104026020016040519081016040528092919081815260200182805461060a90611fa9565b80156106555780601f1061062c57610100808354040283529160200191610655565b820191905f5260205f20905b81548152906001019060200180831161063857829003601f168201915b5050505050815260200160028201805461066e90611fa9565b80601f016020809104026020016040519081016040528092919081815260200182805461069a90611fa9565b80156106e55780601f106106bc576101008083540402835291602001916106e5565b820191905f5260205f20905b8154815290600101906020018083116106c857829003601f168201915b505050505081526020016003820154815260200160048201548152602001600582015481526020016006820154815260200160078201805461072690611fa9565b80601f016020809104026020016040519081016040528092919081815260200182805461075290611fa9565b801561079d5780601f106107745761010080835404028352916020019161079d565b820191905f5260205f20905b81548152906001019060200180831161078057829003601f168201915b505050505081526020016008820180546107b690611fa9565b80601f01602080910402602001604051908101604052809291908181526020018280546107e290611fa9565b801561082d5780601f106108045761010080835404028352916020019161082d565b820191905f5260205f20905b81548152906001019060200180831161081057829003601f168201915b5050505050815260200160098201805461084690611fa9565b80601f016020809104026020016040519081016040528092919081815260200182805461087290611fa9565b80156108bd5780601f10610894576101008083540402835291602001916108bd565b820191905f5260205f20905b8154815290600101906020018083116108a057829003601f168201915b50505050508152602001600a820180546108d690611fa9565b80601f016020809104026020016040519081016040528092919081815260200182805461090290611fa9565b801561094d5780601f106109245761010080835404028352916020019161094d565b820191905f5260205f20905b81548152906001019060200180831161093057829003601f168201915b50505050508152602001600b8201805461096690611fa9565b80601f016020809104026020016040519081016040528092919081815260200182805461099290611fa9565b80156109dd5780601f106109b4576101008083540402835291602001916109dd565b820191905f5260205f20905b8154815290600101906020018083116109c057829003601f168201915b50505050508152602001600c82015f9054906101000a900473ffffffffffffffffffffffffffffffffffffffff1673ffffffffffffffffffffffffffffffffffffffff1673ffffffffffffffffffffffffffffffffffffffff1681525050905090565b60015f3373ffffffffffffffffffffffffffffffffffffffff1673ffffffffffffffffffffffffffffffffffffffff1681526020019081526020015f205f9054906101000a900460ff1615610aca576040517f08c379a0000000000000000000000000000000000000000000000000000000008152600401610ac190612333565b60405180910390fd5b5f87610ad542611775565b604051602001610ae69291906123d5565b6040516020818303038152906040529050604051806101a001604052808281526020018981526020018881526020014281526020014281526020015f81526020015f81526020018781526020018681526020018581526020018481526020018381526020013373ffffffffffffffffffffffffffffffffffffffff168152505f5f3373ffffffffffffffffffffffffffffffffffffffff1673ffffffffffffffffffffffffffffffffffffffff1681526020019081526020015f205f820151815f019081610bb49190612179565b506020820151816001019081610bca9190612179565b506040820151816002019081610be09190612179565b50606082015181600301556080820151816004015560a0820151816005015560c0820151816006015560e0820151816007019081610c1e9190612179565b50610100820151816008019081610c359190612179565b50610120820151816009019081610c4c9190612179565b5061014082015181600a019081610c639190612179565b5061016082015181600b019081610c7a9190612179565b5061018082015181600c015f6101000a81548173ffffffffffffffffffffffffffffffffffffffff021916908373ffffffffffffffffffffffffffffffffffffffff1602179055509050506001805f3373ffffffffffffffffffffffffffffffffffffffff1673ffffffffffffffffffffffffffffffffffffffff1681526020019081526020015f205f6101000a81548160ff0219169083151502179055503373ffffffffffffffffffffffffffffffffffffffff167f1538f861908189043f30d0d55e8666c6a013900115b741f6d75a7a1a85293fdb82604051610d5f919061243b565b60405180910390a25050505050505050565b60015f3373ffffffffffffffffffffffffffffffffffffffff1673ffffffffffffffffffffffffffffffffffffffff1681526020019081526020015f205f9054906101000a900460ff16610dfa576040517f08c379a0000000000000000000000000000000000000000000000000000000008152600401610df190611f5e565b60405180910390fd5b5f5f5f3373ffffffffffffffffffffffffffffffffffffffff1673ffffffffffffffffffffffffffffffffffffffff1681526020019081526020015f2090508181600a019081610e4a9190612179565b503373ffffffffffffffffffffffffffffffffffffffff167f9ab5b01c08788936fb2b48da858665afe9fa06d32e17dc49e0510c24ba05c983825f01604051610e9391906122c9565b60405180910390a25050565b60015f3373ffffffffffffffffffffffffffffffffffffffff1673ffffffffffffffffffffffffffffffffffffffff1681526020019081526020015f205f9054906101000a900460ff16610f28576040517f08c379a0000000000000000000000000000000000000000000000000000000008152600401610f1f90611f5e565b60405180910390fd5b5f5f5f3373ffffffffffffffffffffffffffffffffffffffff1673ffffffffffffffffffffffffffffffffffffffff1681526020019081526020015f20905081816001019081610f789190612179565b503373ffffffffffffffffffffffffffffffffffffffff167f9ab5b01c08788936fb2b48da858665afe9fa06d32e17dc49e0510c24ba05c983825f01604051610fc191906122c9565b60405180910390a25050565b60015f3373ffffffffffffffffffffffffffffffffffffffff1673ffffffffffffffffffffffffffffffffffffffff1681526020019081526020015f205f9054906101000a900460ff16611056576040517f08c379a000000000000000000000000000000000000000000000000000000000815260040161104d90611f5e565b60405180910390fd5b5f5f5f3373ffffffffffffffffffffffffffffffffffffffff1673ffffffffffffffffffffffffffffffffffffffff1681526020019081526020015f209050818160090190816110a69190612179565b503373ffffffffffffffffffffffffffffffffffffffff167f9ab5b01c08788936fb2b48da858665afe9fa06d32e17dc49e0510c24ba05c983825f016040516110ef91906122c9565b60405180910390a25050565b60015f3373ffffffffffffffffffffffffffffffffffffffff1673ffffffffffffffffffffffffffffffffffffffff1681526020019081526020015f205f9054906101000a900460ff16611184576040517f08c379a000000000000000000000000000000000000000000000000000000000815260040161117b90611f5e565b60405180910390fd5b5f5f5f3373ffffffffffffffffffffffffffffffffffffffff1673ffffffffffffffffffffffffffffffffffffffff1681526020019081526020015f209050828160050154101561120a576040517f08c379a0000000000000000000000000000000000000000000000000000000008152600401611201906124a5565b60405180910390fd5b8181600601541015611251576040517f08c379a00000000000000000000000000000000000000000000000000000000081526004016112489061250d565b60405180910390fd5b82816005015f8282546112649190612558565b9250508190555081816006015f82825461127e9190612558565b925050819055503373ffffffffffffffffffffffffffffffffffffffff167f2b58a342147e52cafbfa184a8d6a3583ffe7664f958cdf1c00af5cf9c02ccb4684846040516112cd92919061259a565b60405180910390a2505050565b60015f3373ffffffffffffffffffffffffffffffffffffffff1673ffffffffffffffffffffffffffffffffffffffff1681526020019081526020015f205f9054906101000a900460ff16611363576040517f08c379a000000000000000000000000000000000000000000000000000000000815260040161135a90611f5e565b60405180910390fd5b5f5f5f3373ffffffffffffffffffffffffffffffffffffffff1673ffffffffffffffffffffffffffffffffffffffff1681526020019081526020015f209050818160070190816113b39190612179565b503373ffffffffffffffffffffffffffffffffffffffff167f9ab5b01c08788936fb2b48da858665afe9fa06d32e17dc49e0510c24ba05c983825f016040516113fc91906122c9565b60405180910390a25050565b60015f3373ffffffffffffffffffffffffffffffffffffffff1673ffffffffffffffffffffffffffffffffffffffff1681526020019081526020015f205f9054906101000a900460ff16611491576040517f08c379a000000000000000000000000000000000000000000000000000000000815260040161148890611f5e565b60405180910390fd5b5f5f5f3373ffffffffffffffffffffffffffffffffffffffff1673ffffffffffffffffffffffffffffffffffffffff1681526020019081526020015f209050818160020190816114e19190612179565b503373ffffffffffffffffffffffffffffffffffffffff167f9ab5b01c08788936fb2b48da858665afe9fa06d32e17dc49e0510c24ba05c983825f0160405161152a91906122c9565b60405180910390a25050565b5f60015f3373ffffffffffffffffffffffffffffffffffffffff1673ffffffffffffffffffffffffffffffffffffffff1681526020019081526020015f205f9054906101000a900460ff166115c0576040517f08c379a00000000000000000000000000000000000000000000000000000000081526004016115b790611f5e565b60405180910390fd5b5f5f3373ffffffffffffffffffffffffffffffffffffffff1673ffffffffffffffffffffffffffffffffffffffff1681526020019081526020015f20600c015f9054906101000a900473ffffffffffffffffffffffffffffffffffffffff16905090565b60015f3373ffffffffffffffffffffffffffffffffffffffff1673ffffffffffffffffffffffffffffffffffffffff1681526020019081526020015f205f9054906101000a900460ff166116ad576040517f08c379a00000000000000000000000000000000000000000000000000000000081526004016116a490611f5e565b60405180910390fd5b5f5f5f3373ffffffffffffffffffffffffffffffffffffffff1673ffffffffffffffffffffffffffffffffffffffff1681526020019081526020015f20905082816005015f8282546116ff91906125c1565b9250508190555081816006015f82825461171991906125c1565b925050819055503373ffffffffffffffffffffffffffffffffffffffff167f27909057bad6ce6fc50ecea73759a0da1ec7790bbb0144577bf31372a78b3e64848460405161176892919061259a565b60405180910390a2505050565b60605f82036117bb576040518060400160405280600181526020017f300000000000000000000000000000000000000000000000000000000000000081525090506118c9565b5f8290505f5b5f82146117ea5780806117d3906125f4565b915050600a826117e39190612668565b91506117c1565b5f8167ffffffffffffffff81111561180557611804611970565b5b6040519080825280601f01601f1916602001820160405280156118375781602001600182028036833780820191505090505b5090505b5f85146118c25760018261184f9190612558565b9150600a8561185e9190612698565b603061186a91906125c1565b60f81b8183815181106118805761187f6126c8565b5b60200101907effffffffffffffffffffffffffffffffffffffffffffffffffffffffffffff191690815f1a905350600a856118bb9190612668565b945061183b565b8093505050505b919050565b604051806101a001604052806060815260200160608152602001606081526020015f81526020015f81526020015f81526020015f815260200160608152602001606081526020016060815260200160608152602001606081526020015f73ffffffffffffffffffffffffffffffffffffffff1681525090565b5f604051905090565b5f5ffd5b5f5ffd5b5f5ffd5b5f5ffd5b5f601f19601f8301169050919050565b7f4e487b71000000000000000000000000000000000000000000000000000000005f52604160045260245ffd5b6119a682611960565b810181811067ffffffffffffffff821117156119c5576119c4611970565b5b80604052505050565b5f6119d7611947565b90506119e3828261199d565b919050565b5f67ffffffffffffffff821115611a0257611a01611970565b5b611a0b82611960565b9050602081019050919050565b828183375f83830152505050565b5f611a38611a33846119e8565b6119ce565b905082815260208101848484011115611a5457611a5361195c565b5b611a5f848285611a18565b509392505050565b5f82601f830112611a7b57611a7a611958565b5b8135611a8b848260208601611a26565b91505092915050565b5f60208284031215611aa957611aa8611950565b5b5f82013567ffffffffffffffff811115611ac657611ac5611954565b5b611ad284828501611a67565b91505092915050565b5f81519050919050565b5f82825260208201905092915050565b5f5b83811015611b12578082015181840152602081019050611af7565b5f8484015250505050565b5f611b2782611adb565b611b318185611ae5565b9350611b41818560208601611af5565b611b4a81611960565b840191505092915050565b5f819050919050565b611b6781611b55565b82525050565b5f73ffffffffffffffffffffffffffffffffffffffff82169050919050565b5f611b9682611b6d565b9050919050565b611ba681611b8c565b82525050565b5f6101a083015f8301518482035f860152611bc78282611b1d565b91505060208301518482036020860152611be18282611b1d565b91505060408301518482036040860152611bfb8282611b1d565b9150506060830151611c106060860182611b5e565b506080830151611c236080860182611b5e565b5060a0830151611c3660a0860182611b5e565b5060c0830151611c4960c0860182611b5e565b5060e083015184820360e0860152611c618282611b1d565b915050610100830151848203610100860152611c7d8282611b1d565b915050610120830151848203610120860152611c998282611b1d565b915050610140830151848203610140860152611cb58282611b1d565b915050610160830151848203610160860152611cd18282611b1d565b915050610180830151611ce8610180860182611b9d565b508091505092915050565b5f6020820190508181035f830152611d0b8184611bac565b905092915050565b5f5f5f5f5f5f5f60e0888a031215611d2e57611d2d611950565b5b5f88013567ffffffffffffffff811115611d4b57611d4a611954565b5b611d578a828b01611a67565b975050602088013567ffffffffffffffff811115611d7857611d77611954565b5b611d848a828b01611a67565b965050604088013567ffffffffffffffff811115611da557611da4611954565b5b611db18a828b01611a67565b955050606088013567ffffffffffffffff811115611dd257611dd1611954565b5b611dde8a828b01611a67565b945050608088013567ffffffffffffffff811115611dff57611dfe611954565b5b611e0b8a828b01611a67565b93505060a088013567ffffffffffffffff811115611e2c57611e2b611954565b5b611e388a828b01611a67565b92505060c088013567ffffffffffffffff811115611e5957611e58611954565b5b611e658a828b01611a67565b91505092959891949750929550565b611e7d81611b55565b8114611e87575f5ffd5b50565b5f81359050611e9881611e74565b92915050565b5f5f60408385031215611eb457611eb3611950565b5b5f611ec185828601611e8a565b9250506020611ed285828601611e8a565b9150509250929050565b611ee581611b8c565b82525050565b5f602082019050611efe5f830184611edc565b92915050565b5f82825260208201905092915050565b7f55736572206e6f7420726567697374657265642e0000000000000000000000005f82015250565b5f611f48601483611f04565b9150611f5382611f14565b602082019050919050565b5f6020820190508181035f830152611f7581611f3c565b9050919050565b7f4e487b71000000000000000000000000000000000000000000000000000000005f52602260045260245ffd5b5f6002820490506001821680611fc057607f821691505b602082108103611fd357611fd2611f7c565b5b50919050565b5f819050815f5260205f209050919050565b5f6020601f8301049050919050565b5f82821b905092915050565b5f600883026120357fffffffffffffffffffffffffffffffffffffffffffffffffffffffffffffffff82611ffa565b61203f8683611ffa565b95508019841693508086168417925050509392505050565b5f819050919050565b5f61207a61207561207084611b55565b612057565b611b55565b9050919050565b5f819050919050565b61209383612060565b6120a761209f82612081565b848454612006565b825550505050565b5f5f905090565b6120be6120af565b6120c981848461208a565b505050565b5b818110156120ec576120e15f826120b6565b6001810190506120cf565b5050565b601f8211156121315761210281611fd9565b61210b84611feb565b8101602085101561211a578190505b61212e61212685611feb565b8301826120ce565b50505b505050565b5f82821c905092915050565b5f6121515f1984600802612136565b1980831691505092915050565b5f6121698383612142565b9150826002028217905092915050565b61218282611adb565b67ffffffffffffffff81111561219b5761219a611970565b5b6121a58254611fa9565b6121b08282856120f0565b5f60209050601f8311600181146121e1575f84156121cf578287015190505b6121d9858261215e565b865550612240565b601f1984166121ef86611fd9565b5f5b82811015612216578489015182556001820191506020850194506020810190506121f1565b86831015612233578489015161222f601f891682612142565b8355505b6001600288020188555050505b505050505050565b5f815461225481611fa9565b61225e8186611f04565b9450600182165f8114612278576001811461228e576122c0565b60ff1983168652811515602002860193506122c0565b61229785611fd9565b5f5b838110156122b857815481890152600182019150602081019050612299565b808801955050505b50505092915050565b5f6020820190508181035f8301526122e18184612248565b905092915050565b7f5573657220616c726561647920726567697374657265642e00000000000000005f82015250565b5f61231d601883611f04565b9150612328826122e9565b602082019050919050565b5f6020820190508181035f83015261234a81612311565b9050919050565b5f81905092915050565b5f61236582611adb565b61236f8185612351565b935061237f818560208601611af5565b80840191505092915050565b7f5f000000000000000000000000000000000000000000000000000000000000005f82015250565b5f6123bf600183612351565b91506123ca8261238b565b600182019050919050565b5f6123e0828561235b565b91506123eb826123b3565b91506123f7828461235b565b91508190509392505050565b5f61240d82611adb565b6124178185611f04565b9350612427818560208601611af5565b61243081611960565b840191505092915050565b5f6020820190508181035f8301526124538184612403565b905092915050565b7f496e73756666696369656e74204c5620706f696e74732e0000000000000000005f82015250565b5f61248f601783611f04565b915061249a8261245b565b602082019050919050565b5f6020820190508181035f8301526124bc81612483565b9050919050565b7f496e73756666696369656e7420474720706f696e74732e0000000000000000005f82015250565b5f6124f7601783611f04565b9150612502826124c3565b602082019050919050565b5f6020820190508181035f830152612524816124eb565b9050919050565b7f4e487b71000000000000000000000000000000000000000000000000000000005f52601160045260245ffd5b5f61256282611b55565b915061256d83611b55565b92508282039050818111156125855761258461252b565b5b92915050565b61259481611b55565b82525050565b5f6040820190506125ad5f83018561258b565b6125ba602083018461258b565b9392505050565b5f6125cb82611b55565b91506125d683611b55565b92508282019050808211156125ee576125ed61252b565b5b92915050565b5f6125fe82611b55565b91507fffffffffffffffffffffffffffffffffffffffffffffffffffffffffffffffff82036126305761262f61252b565b5b600182019050919050565b7f4e487b71000000000000000000000000000000000000000000000000000000005f52601260045260245ffd5b5f61267282611b55565b915061267d83611b55565b92508261268d5761268c61263b565b5b828204905092915050565b5f6126a282611b55565b91506126ad83611b55565b9250826126bd576126bc61263b565b5b828206905092915050565b7f4e487b71000000000000000000000000000000000000000000000000000000005f52603260045260245ffdfea26469706673582212207c29c7053830dbe38d4525e83634619276a364486a48f60378deeab599eddb9864736f6c634300081c0033",
					"opcodes": "PUSH1 0x80 PUSH1 0x40 MSTORE CALLVALUE DUP1 ISZERO PUSH1 0xE JUMPI PUSH0 PUSH0 REVERT JUMPDEST POP PUSH2 0x272B DUP1 PUSH2 0x1C PUSH0 CODECOPY PUSH0 RETURN INVALID PUSH1 0x80 PUSH1 0x40 MSTORE CALLVALUE DUP1 ISZERO PUSH2 0xF JUMPI PUSH0 PUSH0 REVERT JUMPDEST POP PUSH1 0x4 CALLDATASIZE LT PUSH2 0xB2 JUMPI PUSH0 CALLDATALOAD PUSH1 0xE0 SHR DUP1 PUSH4 0xDE293190 GT PUSH2 0x6F JUMPI DUP1 PUSH4 0xDE293190 EQ PUSH2 0x160 JUMPI DUP1 PUSH4 0xE0794800 EQ PUSH2 0x17C JUMPI DUP1 PUSH4 0xF017625A EQ PUSH2 0x198 JUMPI DUP1 PUSH4 0xF06099AF EQ PUSH2 0x1B4 JUMPI DUP1 PUSH4 0xF5F6D70B EQ PUSH2 0x1D0 JUMPI DUP1 PUSH4 0xFE4651A0 EQ PUSH2 0x1EE JUMPI PUSH2 0xB2 JUMP JUMPDEST DUP1 PUSH4 0x4F3B7DE1 EQ PUSH2 0xB6 JUMPI DUP1 PUSH4 0x4FD05926 EQ PUSH2 0xD2 JUMPI DUP1 PUSH4 0x6F61C744 EQ PUSH2 0xEE JUMPI DUP1 PUSH4 0x70E997E2 EQ PUSH2 0x10C JUMPI DUP1 PUSH4 0x93DE8386 EQ PUSH2 0x128 JUMPI DUP1 PUSH4 0xC96CEA70 EQ PUSH2 0x144 JUMPI JUMPDEST PUSH0 PUSH0 REVERT JUMPDEST PUSH2 0xD0 PUSH1 0x4 DUP1 CALLDATASIZE SUB DUP2 ADD SWAP1 PUSH2 0xCB SWAP2 SWAP1 PUSH2 0x1A94 JUMP JUMPDEST PUSH2 0x20A JUMP JUMPDEST STOP JUMPDEST PUSH2 0xEC PUSH1 0x4 DUP1 CALLDATASIZE SUB DUP2 ADD SWAP1 PUSH2 0xE7 SWAP2 SWAP1 PUSH2 0x1A94 JUMP JUMPDEST PUSH2 0x338 JUMP JUMPDEST STOP JUMPDEST PUSH2 0xF6 PUSH2 0x466 JUMP JUMPDEST PUSH1 0x40 MLOAD PUSH2 0x103 SWAP2 SWAP1 PUSH2 0x1CF3 JUMP JUMPDEST PUSH1 0x40 MLOAD DUP1 SWAP2 SUB SWAP1 RETURN JUMPDEST PUSH2 0x126 PUSH1 0x4 DUP1 CALLDATASIZE SUB DUP2 ADD SWAP1 PUSH2 0x121 SWAP2 SWAP1 PUSH2 0x1D13 JUMP JUMPDEST PUSH2 0xA40 JUMP JUMPDEST STOP JUMPDEST PUSH2 0x142 PUSH1 0x4 DUP1 CALLDATASIZE SUB DUP2 ADD SWAP1 PUSH2 0x13D SWAP2 SWAP1 PUSH2 0x1A94 JUMP JUMPDEST PUSH2 0xD71 JUMP JUMPDEST STOP JUMPDEST PUSH2 0x15E PUSH1 0x4 DUP1 CALLDATASIZE SUB DUP2 ADD SWAP1 PUSH2 0x159 SWAP2 SWAP1 PUSH2 0x1A94 JUMP JUMPDEST PUSH2 0xE9F JUMP JUMPDEST STOP JUMPDEST PUSH2 0x17A PUSH1 0x4 DUP1 CALLDATASIZE SUB DUP2 ADD SWAP1 PUSH2 0x175 SWAP2 SWAP1 PUSH2 0x1A94 JUMP JUMPDEST PUSH2 0xFCD JUMP JUMPDEST STOP JUMPDEST PUSH2 0x196 PUSH1 0x4 DUP1 CALLDATASIZE SUB DUP2 ADD SWAP1 PUSH2 0x191 SWAP2 SWAP1 PUSH2 0x1E9E JUMP JUMPDEST PUSH2 0x10FB JUMP JUMPDEST STOP JUMPDEST PUSH2 0x1B2 PUSH1 0x4 DUP1 CALLDATASIZE SUB DUP2 ADD SWAP1 PUSH2 0x1AD SWAP2 SWAP1 PUSH2 0x1A94 JUMP JUMPDEST PUSH2 0x12DA JUMP JUMPDEST STOP JUMPDEST PUSH2 0x1CE PUSH1 0x4 DUP1 CALLDATASIZE SUB DUP2 ADD SWAP1 PUSH2 0x1C9 SWAP2 SWAP1 PUSH2 0x1A94 JUMP JUMPDEST PUSH2 0x1408 JUMP JUMPDEST STOP JUMPDEST PUSH2 0x1D8 PUSH2 0x1536 JUMP JUMPDEST PUSH1 0x40 MLOAD PUSH2 0x1E5 SWAP2 SWAP1 PUSH2 0x1EEB JUMP JUMPDEST PUSH1 0x40 MLOAD DUP1 SWAP2 SUB SWAP1 RETURN JUMPDEST PUSH2 0x208 PUSH1 0x4 DUP1 CALLDATASIZE SUB DUP2 ADD SWAP1 PUSH2 0x203 SWAP2 SWAP1 PUSH2 0x1E9E JUMP JUMPDEST PUSH2 0x1624 JUMP JUMPDEST STOP JUMPDEST PUSH1 0x1 PUSH0 CALLER PUSH20 0xFFFFFFFFFFFFFFFFFFFFFFFFFFFFFFFFFFFFFFFF AND PUSH20 0xFFFFFFFFFFFFFFFFFFFFFFFFFFFFFFFFFFFFFFFF AND DUP2 MSTORE PUSH1 0x20 ADD SWAP1 DUP2 MSTORE PUSH1 0x20 ADD PUSH0 KECCAK256 PUSH0 SWAP1 SLOAD SWAP1 PUSH2 0x100 EXP SWAP1 DIV PUSH1 0xFF AND PUSH2 0x293 JUMPI PUSH1 0x40 MLOAD PUSH32 0x8C379A000000000000000000000000000000000000000000000000000000000 DUP2 MSTORE PUSH1 0x4 ADD PUSH2 0x28A SWAP1 PUSH2 0x1F5E JUMP JUMPDEST PUSH1 0x40 MLOAD DUP1 SWAP2 SUB SWAP1 REVERT JUMPDEST PUSH0 PUSH0 PUSH0 CALLER PUSH20 0xFFFFFFFFFFFFFFFFFFFFFFFFFFFFFFFFFFFFFFFF AND PUSH20 0xFFFFFFFFFFFFFFFFFFFFFFFFFFFFFFFFFFFFFFFF AND DUP2 MSTORE PUSH1 0x20 ADD SWAP1 DUP2 MSTORE PUSH1 0x20 ADD PUSH0 KECCAK256 SWAP1 POP DUP2 DUP2 PUSH1 0x8 ADD SWAP1 DUP2 PUSH2 0x2E3 SWAP2 SWAP1 PUSH2 0x2179 JUMP JUMPDEST POP CALLER PUSH20 0xFFFFFFFFFFFFFFFFFFFFFFFFFFFFFFFFFFFFFFFF AND PUSH32 0x9AB5B01C08788936FB2B48DA858665AFE9FA06D32E17DC49E0510C24BA05C983 DUP3 PUSH0 ADD PUSH1 0x40 MLOAD PUSH2 0x32C SWAP2 SWAP1 PUSH2 0x22C9 JUMP JUMPDEST PUSH1 0x40 MLOAD DUP1 SWAP2 SUB SWAP1 LOG2 POP POP JUMP JUMPDEST PUSH1 0x1 PUSH0 CALLER PUSH20 0xFFFFFFFFFFFFFFFFFFFFFFFFFFFFFFFFFFFFFFFF AND PUSH20 0xFFFFFFFFFFFFFFFFFFFFFFFFFFFFFFFFFFFFFFFF AND DUP2 MSTORE PUSH1 0x20 ADD SWAP1 DUP2 MSTORE PUSH1 0x20 ADD PUSH0 KECCAK256 PUSH0 SWAP1 SLOAD SWAP1 PUSH2 0x100 EXP SWAP1 DIV PUSH1 0xFF AND PUSH2 0x3C1 JUMPI PUSH1 0x40 MLOAD PUSH32 0x8C379A000000000000000000000000000000000000000000000000000000000 DUP2 MSTORE PUSH1 0x4 ADD PUSH2 0x3B8 SWAP1 PUSH2 0x1F5E JUMP JUMPDEST PUSH1 0x40 MLOAD DUP1 SWAP2 SUB SWAP1 REVERT JUMPDEST PUSH0 PUSH0 PUSH0 CALLER PUSH20 0xFFFFFFFFFFFFFFFFFFFFFFFFFFFFFFFFFFFFFFFF AND PUSH20 0xFFFFFFFFFFFFFFFFFFFFFFFFFFFFFFFFFFFFFFFF AND DUP2 MSTORE PUSH1 0x20 ADD SWAP1 DUP2 MSTORE PUSH1 0x20 ADD PUSH0 KECCAK256 SWAP1 POP DUP2 DUP2 PUSH1 0xB ADD SWAP1 DUP2 PUSH2 0x411 SWAP2 SWAP1 PUSH2 0x2179 JUMP JUMPDEST POP CALLER PUSH20 0xFFFFFFFFFFFFFFFFFFFFFFFFFFFFFFFFFFFFFFFF AND PUSH32 0x9AB5B01C08788936FB2B48DA858665AFE9FA06D32E17DC49E0510C24BA05C983 DUP3 PUSH0 ADD PUSH1 0x40 MLOAD PUSH2 0x45A SWAP2 SWAP1 PUSH2 0x22C9 JUMP JUMPDEST PUSH1 0x40 MLOAD DUP1 SWAP2 SUB SWAP1 LOG2 POP POP JUMP JUMPDEST PUSH2 0x46E PUSH2 0x18CE JUMP JUMPDEST PUSH1 0x1 PUSH0 CALLER PUSH20 0xFFFFFFFFFFFFFFFFFFFFFFFFFFFFFFFFFFFFFFFF AND PUSH20 0xFFFFFFFFFFFFFFFFFFFFFFFFFFFFFFFFFFFFFFFF AND DUP2 MSTORE PUSH1 0x20 ADD SWAP1 DUP2 MSTORE PUSH1 0x20 ADD PUSH0 KECCAK256 PUSH0 SWAP1 SLOAD SWAP1 PUSH2 0x100 EXP SWAP1 DIV PUSH1 0xFF AND PUSH2 0x4F7 JUMPI PUSH1 0x40 MLOAD PUSH32 0x8C379A000000000000000000000000000000000000000000000000000000000 DUP2 MSTORE PUSH1 0x4 ADD PUSH2 0x4EE SWAP1 PUSH2 0x1F5E JUMP JUMPDEST PUSH1 0x40 MLOAD DUP1 SWAP2 SUB SWAP1 REVERT JUMPDEST PUSH0 PUSH0 CALLER PUSH20 0xFFFFFFFFFFFFFFFFFFFFFFFFFFFFFFFFFFFFFFFF AND PUSH20 0xFFFFFFFFFFFFFFFFFFFFFFFFFFFFFFFFFFFFFFFF AND DUP2 MSTORE PUSH1 0x20 ADD SWAP1 DUP2 MSTORE PUSH1 0x20 ADD PUSH0 KECCAK256 PUSH1 0x40 MLOAD DUP1 PUSH2 0x1A0 ADD PUSH1 0x40 MSTORE SWAP1 DUP2 PUSH0 DUP3 ADD DUP1 SLOAD PUSH2 0x54E SWAP1 PUSH2 0x1FA9 JUMP JUMPDEST DUP1 PUSH1 0x1F ADD PUSH1 0x20 DUP1 SWAP2 DIV MUL PUSH1 0x20 ADD PUSH1 0x40 MLOAD SWAP1 DUP2 ADD PUSH1 0x40 MSTORE DUP1 SWAP3 SWAP2 SWAP1 DUP2 DUP2 MSTORE PUSH1 0x20 ADD DUP3 DUP1 SLOAD PUSH2 0x57A SWAP1 PUSH2 0x1FA9 JUMP JUMPDEST DUP1 ISZERO PUSH2 0x5C5 JUMPI DUP1 PUSH1 0x1F LT PUSH2 0x59C JUMPI PUSH2 0x100 DUP1 DUP4 SLOAD DIV MUL DUP4 MSTORE SWAP2 PUSH1 0x20 ADD SWAP2 PUSH2 0x5C5 JUMP JUMPDEST DUP3 ADD SWAP2 SWAP1 PUSH0 MSTORE PUSH1 0x20 PUSH0 KECCAK256 SWAP1 JUMPDEST DUP2 SLOAD DUP2 MSTORE SWAP1 PUSH1 0x1 ADD SWAP1 PUSH1 0x20 ADD DUP1 DUP4 GT PUSH2 0x5A8 JUMPI DUP3 SWAP1 SUB PUSH1 0x1F AND DUP3 ADD SWAP2 JUMPDEST POP POP POP POP POP DUP2 MSTORE PUSH1 0x20 ADD PUSH1 0x1 DUP3 ADD DUP1 SLOAD PUSH2 0x5DE SWAP1 PUSH2 0x1FA9 JUMP JUMPDEST DUP1 PUSH1 0x1F ADD PUSH1 0x20 DUP1 SWAP2 DIV MUL PUSH1 0x20 ADD PUSH1 0x40 MLOAD SWAP1 DUP2 ADD PUSH1 0x40 MSTORE DUP1 SWAP3 SWAP2 SWAP1 DUP2 DUP2 MSTORE PUSH1 0x20 ADD DUP3 DUP1 SLOAD PUSH2 0x60A SWAP1 PUSH2 0x1FA9 JUMP JUMPDEST DUP1 ISZERO PUSH2 0x655 JUMPI DUP1 PUSH1 0x1F LT PUSH2 0x62C JUMPI PUSH2 0x100 DUP1 DUP4 SLOAD DIV MUL DUP4 MSTORE SWAP2 PUSH1 0x20 ADD SWAP2 PUSH2 0x655 JUMP JUMPDEST DUP3 ADD SWAP2 SWAP1 PUSH0 MSTORE PUSH1 0x20 PUSH0 KECCAK256 SWAP1 JUMPDEST DUP2 SLOAD DUP2 MSTORE SWAP1 PUSH1 0x1 ADD SWAP1 PUSH1 0x20 ADD DUP1 DUP4 GT PUSH2 0x638 JUMPI DUP3 SWAP1 SUB PUSH1 0x1F AND DUP3 ADD SWAP2 JUMPDEST POP POP POP POP POP DUP2 MSTORE PUSH1 0x20 ADD PUSH1 0x2 DUP3 ADD DUP1 SLOAD PUSH2 0x66E SWAP1 PUSH2 0x1FA9 JUMP JUMPDEST DUP1 PUSH1 0x1F ADD PUSH1 0x20 DUP1 SWAP2 DIV MUL PUSH1 0x20 ADD PUSH1 0x40 MLOAD SWAP1 DUP2 ADD PUSH1 0x40 MSTORE DUP1 SWAP3 SWAP2 SWAP1 DUP2 DUP2 MSTORE PUSH1 0x20 ADD DUP3 DUP1 SLOAD PUSH2 0x69A SWAP1 PUSH2 0x1FA9 JUMP JUMPDEST DUP1 ISZERO PUSH2 0x6E5 JUMPI DUP1 PUSH1 0x1F LT PUSH2 0x6BC JUMPI PUSH2 0x100 DUP1 DUP4 SLOAD DIV MUL DUP4 MSTORE SWAP2 PUSH1 0x20 ADD SWAP2 PUSH2 0x6E5 JUMP JUMPDEST DUP3 ADD SWAP2 SWAP1 PUSH0 MSTORE PUSH1 0x20 PUSH0 KECCAK256 SWAP1 JUMPDEST DUP2 SLOAD DUP2 MSTORE SWAP1 PUSH1 0x1 ADD SWAP1 PUSH1 0x20 ADD DUP1 DUP4 GT PUSH2 0x6C8 JUMPI DUP3 SWAP1 SUB PUSH1 0x1F AND DUP3 ADD SWAP2 JUMPDEST POP POP POP POP POP DUP2 MSTORE PUSH1 0x20 ADD PUSH1 0x3 DUP3 ADD SLOAD DUP2 MSTORE PUSH1 0x20 ADD PUSH1 0x4 DUP3 ADD SLOAD DUP2 MSTORE PUSH1 0x20 ADD PUSH1 0x5 DUP3 ADD SLOAD DUP2 MSTORE PUSH1 0x20 ADD PUSH1 0x6 DUP3 ADD SLOAD DUP2 MSTORE PUSH1 0x20 ADD PUSH1 0x7 DUP3 ADD DUP1 SLOAD PUSH2 0x726 SWAP1 PUSH2 0x1FA9 JUMP JUMPDEST DUP1 PUSH1 0x1F ADD PUSH1 0x20 DUP1 SWAP2 DIV MUL PUSH1 0x20 ADD PUSH1 0x40 MLOAD SWAP1 DUP2 ADD PUSH1 0x40 MSTORE DUP1 SWAP3 SWAP2 SWAP1 DUP2 DUP2 MSTORE PUSH1 0x20 ADD DUP3 DUP1 SLOAD PUSH2 0x752 SWAP1 PUSH2 0x1FA9 JUMP JUMPDEST DUP1 ISZERO PUSH2 0x79D JUMPI DUP1 PUSH1 0x1F LT PUSH2 0x774 JUMPI PUSH2 0x100 DUP1 DUP4 SLOAD DIV MUL DUP4 MSTORE SWAP2 PUSH1 0x20 ADD SWAP2 PUSH2 0x79D JUMP JUMPDEST DUP3 ADD SWAP2 SWAP1 PUSH0 MSTORE PUSH1 0x20 PUSH0 KECCAK256 SWAP1 JUMPDEST DUP2 SLOAD DUP2 MSTORE SWAP1 PUSH1 0x1 ADD SWAP1 PUSH1 0x20 ADD DUP1 DUP4 GT PUSH2 0x780 JUMPI DUP3 SWAP1 SUB PUSH1 0x1F AND DUP3 ADD SWAP2 JUMPDEST POP POP POP POP POP DUP2 MSTORE PUSH1 0x20 ADD PUSH1 0x8 DUP3 ADD DUP1 SLOAD PUSH2 0x7B6 SWAP1 PUSH2 0x1FA9 JUMP JUMPDEST DUP1 PUSH1 0x1F ADD PUSH1 0x20 DUP1 SWAP2 DIV MUL PUSH1 0x20 ADD PUSH1 0x40 MLOAD SWAP1 DUP2 ADD PUSH1 0x40 MSTORE DUP1 SWAP3 SWAP2 SWAP1 DUP2 DUP2 MSTORE PUSH1 0x20 ADD DUP3 DUP1 SLOAD PUSH2 0x7E2 SWAP1 PUSH2 0x1FA9 JUMP JUMPDEST DUP1 ISZERO PUSH2 0x82D JUMPI DUP1 PUSH1 0x1F LT PUSH2 0x804 JUMPI PUSH2 0x100 DUP1 DUP4 SLOAD DIV MUL DUP4 MSTORE SWAP2 PUSH1 0x20 ADD SWAP2 PUSH2 0x82D JUMP JUMPDEST DUP3 ADD SWAP2 SWAP1 PUSH0 MSTORE PUSH1 0x20 PUSH0 KECCAK256 SWAP1 JUMPDEST DUP2 SLOAD DUP2 MSTORE SWAP1 PUSH1 0x1 ADD SWAP1 PUSH1 0x20 ADD DUP1 DUP4 GT PUSH2 0x810 JUMPI DUP3 SWAP1 SUB PUSH1 0x1F AND DUP3 ADD SWAP2 JUMPDEST POP POP POP POP POP DUP2 MSTORE PUSH1 0x20 ADD PUSH1 0x9 DUP3 ADD DUP1 SLOAD PUSH2 0x846 SWAP1 PUSH2 0x1FA9 JUMP JUMPDEST DUP1 PUSH1 0x1F ADD PUSH1 0x20 DUP1 SWAP2 DIV MUL PUSH1 0x20 ADD PUSH1 0x40 MLOAD SWAP1 DUP2 ADD PUSH1 0x40 MSTORE DUP1 SWAP3 SWAP2 SWAP1 DUP2 DUP2 MSTORE PUSH1 0x20 ADD DUP3 DUP1 SLOAD PUSH2 0x872 SWAP1 PUSH2 0x1FA9 JUMP JUMPDEST DUP1 ISZERO PUSH2 0x8BD JUMPI DUP1 PUSH1 0x1F LT PUSH2 0x894 JUMPI PUSH2 0x100 DUP1 DUP4 SLOAD DIV MUL DUP4 MSTORE SWAP2 PUSH1 0x20 ADD SWAP2 PUSH2 0x8BD JUMP JUMPDEST DUP3 ADD SWAP2 SWAP1 PUSH0 MSTORE PUSH1 0x20 PUSH0 KECCAK256 SWAP1 JUMPDEST DUP2 SLOAD DUP2 MSTORE SWAP1 PUSH1 0x1 ADD SWAP1 PUSH1 0x20 ADD DUP1 DUP4 GT PUSH2 0x8A0 JUMPI DUP3 SWAP1 SUB PUSH1 0x1F AND DUP3 ADD SWAP2 JUMPDEST POP POP POP POP POP DUP2 MSTORE PUSH1 0x20 ADD PUSH1 0xA DUP3 ADD DUP1 SLOAD PUSH2 0x8D6 SWAP1 PUSH2 0x1FA9 JUMP JUMPDEST DUP1 PUSH1 0x1F ADD PUSH1 0x20 DUP1 SWAP2 DIV MUL PUSH1 0x20 ADD PUSH1 0x40 MLOAD SWAP1 DUP2 ADD PUSH1 0x40 MSTORE DUP1 SWAP3 SWAP2 SWAP1 DUP2 DUP2 MSTORE PUSH1 0x20 ADD DUP3 DUP1 SLOAD PUSH2 0x902 SWAP1 PUSH2 0x1FA9 JUMP JUMPDEST DUP1 ISZERO PUSH2 0x94D JUMPI DUP1 PUSH1 0x1F LT PUSH2 0x924 JUMPI PUSH2 0x100 DUP1 DUP4 SLOAD DIV MUL DUP4 MSTORE SWAP2 PUSH1 0x20 ADD SWAP2 PUSH2 0x94D JUMP JUMPDEST DUP3 ADD SWAP2 SWAP1 PUSH0 MSTORE PUSH1 0x20 PUSH0 KECCAK256 SWAP1 JUMPDEST DUP2 SLOAD DUP2 MSTORE SWAP1 PUSH1 0x1 ADD SWAP1 PUSH1 0x20 ADD DUP1 DUP4 GT PUSH2 0x930 JUMPI DUP3 SWAP1 SUB PUSH1 0x1F AND DUP3 ADD SWAP2 JUMPDEST POP POP POP POP POP DUP2 MSTORE PUSH1 0x20 ADD PUSH1 0xB DUP3 ADD DUP1 SLOAD PUSH2 0x966 SWAP1 PUSH2 0x1FA9 JUMP JUMPDEST DUP1 PUSH1 0x1F ADD PUSH1 0x20 DUP1 SWAP2 DIV MUL PUSH1 0x20 ADD PUSH1 0x40 MLOAD SWAP1 DUP2 ADD PUSH1 0x40 MSTORE DUP1 SWAP3 SWAP2 SWAP1 DUP2 DUP2 MSTORE PUSH1 0x20 ADD DUP3 DUP1 SLOAD PUSH2 0x992 SWAP1 PUSH2 0x1FA9 JUMP JUMPDEST DUP1 ISZERO PUSH2 0x9DD JUMPI DUP1 PUSH1 0x1F LT PUSH2 0x9B4 JUMPI PUSH2 0x100 DUP1 DUP4 SLOAD DIV MUL DUP4 MSTORE SWAP2 PUSH1 0x20 ADD SWAP2 PUSH2 0x9DD JUMP JUMPDEST DUP3 ADD SWAP2 SWAP1 PUSH0 MSTORE PUSH1 0x20 PUSH0 KECCAK256 SWAP1 JUMPDEST DUP2 SLOAD DUP2 MSTORE SWAP1 PUSH1 0x1 ADD SWAP1 PUSH1 0x20 ADD DUP1 DUP4 GT PUSH2 0x9C0 JUMPI DUP3 SWAP1 SUB PUSH1 0x1F AND DUP3 ADD SWAP2 JUMPDEST POP POP POP POP POP DUP2 MSTORE PUSH1 0x20 ADD PUSH1 0xC DUP3 ADD PUSH0 SWAP1 SLOAD SWAP1 PUSH2 0x100 EXP SWAP1 DIV PUSH20 0xFFFFFFFFFFFFFFFFFFFFFFFFFFFFFFFFFFFFFFFF AND PUSH20 0xFFFFFFFFFFFFFFFFFFFFFFFFFFFFFFFFFFFFFFFF AND PUSH20 0xFFFFFFFFFFFFFFFFFFFFFFFFFFFFFFFFFFFFFFFF AND DUP2 MSTORE POP POP SWAP1 POP SWAP1 JUMP JUMPDEST PUSH1 0x1 PUSH0 CALLER PUSH20 0xFFFFFFFFFFFFFFFFFFFFFFFFFFFFFFFFFFFFFFFF AND PUSH20 0xFFFFFFFFFFFFFFFFFFFFFFFFFFFFFFFFFFFFFFFF AND DUP2 MSTORE PUSH1 0x20 ADD SWAP1 DUP2 MSTORE PUSH1 0x20 ADD PUSH0 KECCAK256 PUSH0 SWAP1 SLOAD SWAP1 PUSH2 0x100 EXP SWAP1 DIV PUSH1 0xFF AND ISZERO PUSH2 0xACA JUMPI PUSH1 0x40 MLOAD PUSH32 0x8C379A000000000000000000000000000000000000000000000000000000000 DUP2 MSTORE PUSH1 0x4 ADD PUSH2 0xAC1 SWAP1 PUSH2 0x2333 JUMP JUMPDEST PUSH1 0x40 MLOAD DUP1 SWAP2 SUB SWAP1 REVERT JUMPDEST PUSH0 DUP8 PUSH2 0xAD5 TIMESTAMP PUSH2 0x1775 JUMP JUMPDEST PUSH1 0x40 MLOAD PUSH1 0x20 ADD PUSH2 0xAE6 SWAP3 SWAP2 SWAP1 PUSH2 0x23D5 JUMP JUMPDEST PUSH1 0x40 MLOAD PUSH1 0x20 DUP2 DUP4 SUB SUB DUP2 MSTORE SWAP1 PUSH1 0x40 MSTORE SWAP1 POP PUSH1 0x40 MLOAD DUP1 PUSH2 0x1A0 ADD PUSH1 0x40 MSTORE DUP1 DUP3 DUP2 MSTORE PUSH1 0x20 ADD DUP10 DUP2 MSTORE PUSH1 0x20 ADD DUP9 DUP2 MSTORE PUSH1 0x20 ADD TIMESTAMP DUP2 MSTORE PUSH1 0x20 ADD TIMESTAMP DUP2 MSTORE PUSH1 0x20 ADD PUSH0 DUP2 MSTORE PUSH1 0x20 ADD PUSH0 DUP2 MSTORE PUSH1 0x20 ADD DUP8 DUP2 MSTORE PUSH1 0x20 ADD DUP7 DUP2 MSTORE PUSH1 0x20 ADD DUP6 DUP2 MSTORE PUSH1 0x20 ADD DUP5 DUP2 MSTORE PUSH1 0x20 ADD DUP4 DUP2 MSTORE PUSH1 0x20 ADD CALLER PUSH20 0xFFFFFFFFFFFFFFFFFFFFFFFFFFFFFFFFFFFFFFFF AND DUP2 MSTORE POP PUSH0 PUSH0 CALLER PUSH20 0xFFFFFFFFFFFFFFFFFFFFFFFFFFFFFFFFFFFFFFFF AND PUSH20 0xFFFFFFFFFFFFFFFFFFFFFFFFFFFFFFFFFFFFFFFF AND DUP2 MSTORE PUSH1 0x20 ADD SWAP1 DUP2 MSTORE PUSH1 0x20 ADD PUSH0 KECCAK256 PUSH0 DUP3 ADD MLOAD DUP2 PUSH0 ADD SWAP1 DUP2 PUSH2 0xBB4 SWAP2 SWAP1 PUSH2 0x2179 JUMP JUMPDEST POP PUSH1 0x20 DUP3 ADD MLOAD DUP2 PUSH1 0x1 ADD SWAP1 DUP2 PUSH2 0xBCA SWAP2 SWAP1 PUSH2 0x2179 JUMP JUMPDEST POP PUSH1 0x40 DUP3 ADD MLOAD DUP2 PUSH1 0x2 ADD SWAP1 DUP2 PUSH2 0xBE0 SWAP2 SWAP1 PUSH2 0x2179 JUMP JUMPDEST POP PUSH1 0x60 DUP3 ADD MLOAD DUP2 PUSH1 0x3 ADD SSTORE PUSH1 0x80 DUP3 ADD MLOAD DUP2 PUSH1 0x4 ADD SSTORE PUSH1 0xA0 DUP3 ADD MLOAD DUP2 PUSH1 0x5 ADD SSTORE PUSH1 0xC0 DUP3 ADD MLOAD DUP2 PUSH1 0x6 ADD SSTORE PUSH1 0xE0 DUP3 ADD MLOAD DUP2 PUSH1 0x7 ADD SWAP1 DUP2 PUSH2 0xC1E SWAP2 SWAP1 PUSH2 0x2179 JUMP JUMPDEST POP PUSH2 0x100 DUP3 ADD MLOAD DUP2 PUSH1 0x8 ADD SWAP1 DUP2 PUSH2 0xC35 SWAP2 SWAP1 PUSH2 0x2179 JUMP JUMPDEST POP PUSH2 0x120 DUP3 ADD MLOAD DUP2 PUSH1 0x9 ADD SWAP1 DUP2 PUSH2 0xC4C SWAP2 SWAP1 PUSH2 0x2179 JUMP JUMPDEST POP PUSH2 0x140 DUP3 ADD MLOAD DUP2 PUSH1 0xA ADD SWAP1 DUP2 PUSH2 0xC63 SWAP2 SWAP1 PUSH2 0x2179 JUMP JUMPDEST POP PUSH2 0x160 DUP3 ADD MLOAD DUP2 PUSH1 0xB ADD SWAP1 DUP2 PUSH2 0xC7A SWAP2 SWAP1 PUSH2 0x2179 JUMP JUMPDEST POP PUSH2 0x180 DUP3 ADD MLOAD DUP2 PUSH1 0xC ADD PUSH0 PUSH2 0x100 EXP DUP2 SLOAD DUP2 PUSH20 0xFFFFFFFFFFFFFFFFFFFFFFFFFFFFFFFFFFFFFFFF MUL NOT AND SWAP1 DUP4 PUSH20 0xFFFFFFFFFFFFFFFFFFFFFFFFFFFFFFFFFFFFFFFF AND MUL OR SWAP1 SSTORE POP SWAP1 POP POP PUSH1 0x1 DUP1 PUSH0 CALLER PUSH20 0xFFFFFFFFFFFFFFFFFFFFFFFFFFFFFFFFFFFFFFFF AND PUSH20 0xFFFFFFFFFFFFFFFFFFFFFFFFFFFFFFFFFFFFFFFF AND DUP2 MSTORE PUSH1 0x20 ADD SWAP1 DUP2 MSTORE PUSH1 0x20 ADD PUSH0 KECCAK256 PUSH0 PUSH2 0x100 EXP DUP2 SLOAD DUP2 PUSH1 0xFF MUL NOT AND SWAP1 DUP4 ISZERO ISZERO MUL OR SWAP1 SSTORE POP CALLER PUSH20 0xFFFFFFFFFFFFFFFFFFFFFFFFFFFFFFFFFFFFFFFF AND PUSH32 0x1538F861908189043F30D0D55E8666C6A013900115B741F6D75A7A1A85293FDB DUP3 PUSH1 0x40 MLOAD PUSH2 0xD5F SWAP2 SWAP1 PUSH2 0x243B JUMP JUMPDEST PUSH1 0x40 MLOAD DUP1 SWAP2 SUB SWAP1 LOG2 POP POP POP POP POP POP POP POP JUMP JUMPDEST PUSH1 0x1 PUSH0 CALLER PUSH20 0xFFFFFFFFFFFFFFFFFFFFFFFFFFFFFFFFFFFFFFFF AND PUSH20 0xFFFFFFFFFFFFFFFFFFFFFFFFFFFFFFFFFFFFFFFF AND DUP2 MSTORE PUSH1 0x20 ADD SWAP1 DUP2 MSTORE PUSH1 0x20 ADD PUSH0 KECCAK256 PUSH0 SWAP1 SLOAD SWAP1 PUSH2 0x100 EXP SWAP1 DIV PUSH1 0xFF AND PUSH2 0xDFA JUMPI PUSH1 0x40 MLOAD PUSH32 0x8C379A000000000000000000000000000000000000000000000000000000000 DUP2 MSTORE PUSH1 0x4 ADD PUSH2 0xDF1 SWAP1 PUSH2 0x1F5E JUMP JUMPDEST PUSH1 0x40 MLOAD DUP1 SWAP2 SUB SWAP1 REVERT JUMPDEST PUSH0 PUSH0 PUSH0 CALLER PUSH20 0xFFFFFFFFFFFFFFFFFFFFFFFFFFFFFFFFFFFFFFFF AND PUSH20 0xFFFFFFFFFFFFFFFFFFFFFFFFFFFFFFFFFFFFFFFF AND DUP2 MSTORE PUSH1 0x20 ADD SWAP1 DUP2 MSTORE PUSH1 0x20 ADD PUSH0 KECCAK256 SWAP1 POP DUP2 DUP2 PUSH1 0xA ADD SWAP1 DUP2 PUSH2 0xE4A SWAP2 SWAP1 PUSH2 0x2179 JUMP JUMPDEST POP CALLER PUSH20 0xFFFFFFFFFFFFFFFFFFFFFFFFFFFFFFFFFFFFFFFF AND PUSH32 0x9AB5B01C08788936FB2B48DA858665AFE9FA06D32E17DC49E0510C24BA05C983 DUP3 PUSH0 ADD PUSH1 0x40 MLOAD PUSH2 0xE93 SWAP2 SWAP1 PUSH2 0x22C9 JUMP JUMPDEST PUSH1 0x40 MLOAD DUP1 SWAP2 SUB SWAP1 LOG2 POP POP JUMP JUMPDEST PUSH1 0x1 PUSH0 CALLER PUSH20 0xFFFFFFFFFFFFFFFFFFFFFFFFFFFFFFFFFFFFFFFF AND PUSH20 0xFFFFFFFFFFFFFFFFFFFFFFFFFFFFFFFFFFFFFFFF AND DUP2 MSTORE PUSH1 0x20 ADD SWAP1 DUP2 MSTORE PUSH1 0x20 ADD PUSH0 KECCAK256 PUSH0 SWAP1 SLOAD SWAP1 PUSH2 0x100 EXP SWAP1 DIV PUSH1 0xFF AND PUSH2 0xF28 JUMPI PUSH1 0x40 MLOAD PUSH32 0x8C379A000000000000000000000000000000000000000000000000000000000 DUP2 MSTORE PUSH1 0x4 ADD PUSH2 0xF1F SWAP1 PUSH2 0x1F5E JUMP JUMPDEST PUSH1 0x40 MLOAD DUP1 SWAP2 SUB SWAP1 REVERT JUMPDEST PUSH0 PUSH0 PUSH0 CALLER PUSH20 0xFFFFFFFFFFFFFFFFFFFFFFFFFFFFFFFFFFFFFFFF AND PUSH20 0xFFFFFFFFFFFFFFFFFFFFFFFFFFFFFFFFFFFFFFFF AND DUP2 MSTORE PUSH1 0x20 ADD SWAP1 DUP2 MSTORE PUSH1 0x20 ADD PUSH0 KECCAK256 SWAP1 POP DUP2 DUP2 PUSH1 0x1 ADD SWAP1 DUP2 PUSH2 0xF78 SWAP2 SWAP1 PUSH2 0x2179 JUMP JUMPDEST POP CALLER PUSH20 0xFFFFFFFFFFFFFFFFFFFFFFFFFFFFFFFFFFFFFFFF AND PUSH32 0x9AB5B01C08788936FB2B48DA858665AFE9FA06D32E17DC49E0510C24BA05C983 DUP3 PUSH0 ADD PUSH1 0x40 MLOAD PUSH2 0xFC1 SWAP2 SWAP1 PUSH2 0x22C9 JUMP JUMPDEST PUSH1 0x40 MLOAD DUP1 SWAP2 SUB SWAP1 LOG2 POP POP JUMP JUMPDEST PUSH1 0x1 PUSH0 CALLER PUSH20 0xFFFFFFFFFFFFFFFFFFFFFFFFFFFFFFFFFFFFFFFF AND PUSH20 0xFFFFFFFFFFFFFFFFFFFFFFFFFFFFFFFFFFFFFFFF AND DUP2 MSTORE PUSH1 0x20 ADD SWAP1 DUP2 MSTORE PUSH1 0x20 ADD PUSH0 KECCAK256 PUSH0 SWAP1 SLOAD SWAP1 PUSH2 0x100 EXP SWAP1 DIV PUSH1 0xFF AND PUSH2 0x1056 JUMPI PUSH1 0x40 MLOAD PUSH32 0x8C379A000000000000000000000000000000000000000000000000000000000 DUP2 MSTORE PUSH1 0x4 ADD PUSH2 0x104D SWAP1 PUSH2 0x1F5E JUMP JUMPDEST PUSH1 0x40 MLOAD DUP1 SWAP2 SUB SWAP1 REVERT JUMPDEST PUSH0 PUSH0 PUSH0 CALLER PUSH20 0xFFFFFFFFFFFFFFFFFFFFFFFFFFFFFFFFFFFFFFFF AND PUSH20 0xFFFFFFFFFFFFFFFFFFFFFFFFFFFFFFFFFFFFFFFF AND DUP2 MSTORE PUSH1 0x20 ADD SWAP1 DUP2 MSTORE PUSH1 0x20 ADD PUSH0 KECCAK256 SWAP1 POP DUP2 DUP2 PUSH1 0x9 ADD SWAP1 DUP2 PUSH2 0x10A6 SWAP2 SWAP1 PUSH2 0x2179 JUMP JUMPDEST POP CALLER PUSH20 0xFFFFFFFFFFFFFFFFFFFFFFFFFFFFFFFFFFFFFFFF AND PUSH32 0x9AB5B01C08788936FB2B48DA858665AFE9FA06D32E17DC49E0510C24BA05C983 DUP3 PUSH0 ADD PUSH1 0x40 MLOAD PUSH2 0x10EF SWAP2 SWAP1 PUSH2 0x22C9 JUMP JUMPDEST PUSH1 0x40 MLOAD DUP1 SWAP2 SUB SWAP1 LOG2 POP POP JUMP JUMPDEST PUSH1 0x1 PUSH0 CALLER PUSH20 0xFFFFFFFFFFFFFFFFFFFFFFFFFFFFFFFFFFFFFFFF AND PUSH20 0xFFFFFFFFFFFFFFFFFFFFFFFFFFFFFFFFFFFFFFFF AND DUP2 MSTORE PUSH1 0x20 ADD SWAP1 DUP2 MSTORE PUSH1 0x20 ADD PUSH0 KECCAK256 PUSH0 SWAP1 SLOAD SWAP1 PUSH2 0x100 EXP SWAP1 DIV PUSH1 0xFF AND PUSH2 0x1184 JUMPI PUSH1 0x40 MLOAD PUSH32 0x8C379A000000000000000000000000000000000000000000000000000000000 DUP2 MSTORE PUSH1 0x4 ADD PUSH2 0x117B SWAP1 PUSH2 0x1F5E JUMP JUMPDEST PUSH1 0x40 MLOAD DUP1 SWAP2 SUB SWAP1 REVERT JUMPDEST PUSH0 PUSH0 PUSH0 CALLER PUSH20 0xFFFFFFFFFFFFFFFFFFFFFFFFFFFFFFFFFFFFFFFF AND PUSH20 0xFFFFFFFFFFFFFFFFFFFFFFFFFFFFFFFFFFFFFFFF AND DUP2 MSTORE PUSH1 0x20 ADD SWAP1 DUP2 MSTORE PUSH1 0x20 ADD PUSH0 KECCAK256 SWAP1 POP DUP3 DUP2 PUSH1 0x5 ADD SLOAD LT ISZERO PUSH2 0x120A JUMPI PUSH1 0x40 MLOAD PUSH32 0x8C379A000000000000000000000000000000000000000000000000000000000 DUP2 MSTORE PUSH1 0x4 ADD PUSH2 0x1201 SWAP1 PUSH2 0x24A5 JUMP JUMPDEST PUSH1 0x40 MLOAD DUP1 SWAP2 SUB SWAP1 REVERT JUMPDEST DUP2 DUP2 PUSH1 0x6 ADD SLOAD LT ISZERO PUSH2 0x1251 JUMPI PUSH1 0x40 MLOAD PUSH32 0x8C379A000000000000000000000000000000000000000000000000000000000 DUP2 MSTORE PUSH1 0x4 ADD PUSH2 0x1248 SWAP1 PUSH2 0x250D JUMP JUMPDEST PUSH1 0x40 MLOAD DUP1 SWAP2 SUB SWAP1 REVERT JUMPDEST DUP3 DUP2 PUSH1 0x5 ADD PUSH0 DUP3 DUP3 SLOAD PUSH2 0x1264 SWAP2 SWAP1 PUSH2 0x2558 JUMP JUMPDEST SWAP3 POP POP DUP2 SWAP1 SSTORE POP DUP2 DUP2 PUSH1 0x6 ADD PUSH0 DUP3 DUP3 SLOAD PUSH2 0x127E SWAP2 SWAP1 PUSH2 0x2558 JUMP JUMPDEST SWAP3 POP POP DUP2 SWAP1 SSTORE POP CALLER PUSH20 0xFFFFFFFFFFFFFFFFFFFFFFFFFFFFFFFFFFFFFFFF AND PUSH32 0x2B58A342147E52CAFBFA184A8D6A3583FFE7664F958CDF1C00AF5CF9C02CCB46 DUP5 DUP5 PUSH1 0x40 MLOAD PUSH2 0x12CD SWAP3 SWAP2 SWAP1 PUSH2 0x259A JUMP JUMPDEST PUSH1 0x40 MLOAD DUP1 SWAP2 SUB SWAP1 LOG2 POP POP POP JUMP JUMPDEST PUSH1 0x1 PUSH0 CALLER PUSH20 0xFFFFFFFFFFFFFFFFFFFFFFFFFFFFFFFFFFFFFFFF AND PUSH20 0xFFFFFFFFFFFFFFFFFFFFFFFFFFFFFFFFFFFFFFFF AND DUP2 MSTORE PUSH1 0x20 ADD SWAP1 DUP2 MSTORE PUSH1 0x20 ADD PUSH0 KECCAK256 PUSH0 SWAP1 SLOAD SWAP1 PUSH2 0x100 EXP SWAP1 DIV PUSH1 0xFF AND PUSH2 0x1363 JUMPI PUSH1 0x40 MLOAD PUSH32 0x8C379A000000000000000000000000000000000000000000000000000000000 DUP2 MSTORE PUSH1 0x4 ADD PUSH2 0x135A SWAP1 PUSH2 0x1F5E JUMP JUMPDEST PUSH1 0x40 MLOAD DUP1 SWAP2 SUB SWAP1 REVERT JUMPDEST PUSH0 PUSH0 PUSH0 CALLER PUSH20 0xFFFFFFFFFFFFFFFFFFFFFFFFFFFFFFFFFFFFFFFF AND PUSH20 0xFFFFFFFFFFFFFFFFFFFFFFFFFFFFFFFFFFFFFFFF AND DUP2 MSTORE PUSH1 0x20 ADD SWAP1 DUP2 MSTORE PUSH1 0x20 ADD PUSH0 KECCAK256 SWAP1 POP DUP2 DUP2 PUSH1 0x7 ADD SWAP1 DUP2 PUSH2 0x13B3 SWAP2 SWAP1 PUSH2 0x2179 JUMP JUMPDEST POP CALLER PUSH20 0xFFFFFFFFFFFFFFFFFFFFFFFFFFFFFFFFFFFFFFFF AND PUSH32 0x9AB5B01C08788936FB2B48DA858665AFE9FA06D32E17DC49E0510C24BA05C983 DUP3 PUSH0 ADD PUSH1 0x40 MLOAD PUSH2 0x13FC SWAP2 SWAP1 PUSH2 0x22C9 JUMP JUMPDEST PUSH1 0x40 MLOAD DUP1 SWAP2 SUB SWAP1 LOG2 POP POP JUMP JUMPDEST PUSH1 0x1 PUSH0 CALLER PUSH20 0xFFFFFFFFFFFFFFFFFFFFFFFFFFFFFFFFFFFFFFFF AND PUSH20 0xFFFFFFFFFFFFFFFFFFFFFFFFFFFFFFFFFFFFFFFF AND DUP2 MSTORE PUSH1 0x20 ADD SWAP1 DUP2 MSTORE PUSH1 0x20 ADD PUSH0 KECCAK256 PUSH0 SWAP1 SLOAD SWAP1 PUSH2 0x100 EXP SWAP1 DIV PUSH1 0xFF AND PUSH2 0x1491 JUMPI PUSH1 0x40 MLOAD PUSH32 0x8C379A000000000000000000000000000000000000000000000000000000000 DUP2 MSTORE PUSH1 0x4 ADD PUSH2 0x1488 SWAP1 PUSH2 0x1F5E JUMP JUMPDEST PUSH1 0x40 MLOAD DUP1 SWAP2 SUB SWAP1 REVERT JUMPDEST PUSH0 PUSH0 PUSH0 CALLER PUSH20 0xFFFFFFFFFFFFFFFFFFFFFFFFFFFFFFFFFFFFFFFF AND PUSH20 0xFFFFFFFFFFFFFFFFFFFFFFFFFFFFFFFFFFFFFFFF AND DUP2 MSTORE PUSH1 0x20 ADD SWAP1 DUP2 MSTORE PUSH1 0x20 ADD PUSH0 KECCAK256 SWAP1 POP DUP2 DUP2 PUSH1 0x2 ADD SWAP1 DUP2 PUSH2 0x14E1 SWAP2 SWAP1 PUSH2 0x2179 JUMP JUMPDEST POP CALLER PUSH20 0xFFFFFFFFFFFFFFFFFFFFFFFFFFFFFFFFFFFFFFFF AND PUSH32 0x9AB5B01C08788936FB2B48DA858665AFE9FA06D32E17DC49E0510C24BA05C983 DUP3 PUSH0 ADD PUSH1 0x40 MLOAD PUSH2 0x152A SWAP2 SWAP1 PUSH2 0x22C9 JUMP JUMPDEST PUSH1 0x40 MLOAD DUP1 SWAP2 SUB SWAP1 LOG2 POP POP JUMP JUMPDEST PUSH0 PUSH1 0x1 PUSH0 CALLER PUSH20 0xFFFFFFFFFFFFFFFFFFFFFFFFFFFFFFFFFFFFFFFF AND PUSH20 0xFFFFFFFFFFFFFFFFFFFFFFFFFFFFFFFFFFFFFFFF AND DUP2 MSTORE PUSH1 0x20 ADD SWAP1 DUP2 MSTORE PUSH1 0x20 ADD PUSH0 KECCAK256 PUSH0 SWAP1 SLOAD SWAP1 PUSH2 0x100 EXP SWAP1 DIV PUSH1 0xFF AND PUSH2 0x15C0 JUMPI PUSH1 0x40 MLOAD PUSH32 0x8C379A000000000000000000000000000000000000000000000000000000000 DUP2 MSTORE PUSH1 0x4 ADD PUSH2 0x15B7 SWAP1 PUSH2 0x1F5E JUMP JUMPDEST PUSH1 0x40 MLOAD DUP1 SWAP2 SUB SWAP1 REVERT JUMPDEST PUSH0 PUSH0 CALLER PUSH20 0xFFFFFFFFFFFFFFFFFFFFFFFFFFFFFFFFFFFFFFFF AND PUSH20 0xFFFFFFFFFFFFFFFFFFFFFFFFFFFFFFFFFFFFFFFF AND DUP2 MSTORE PUSH1 0x20 ADD SWAP1 DUP2 MSTORE PUSH1 0x20 ADD PUSH0 KECCAK256 PUSH1 0xC ADD PUSH0 SWAP1 SLOAD SWAP1 PUSH2 0x100 EXP SWAP1 DIV PUSH20 0xFFFFFFFFFFFFFFFFFFFFFFFFFFFFFFFFFFFFFFFF AND SWAP1 POP SWAP1 JUMP JUMPDEST PUSH1 0x1 PUSH0 CALLER PUSH20 0xFFFFFFFFFFFFFFFFFFFFFFFFFFFFFFFFFFFFFFFF AND PUSH20 0xFFFFFFFFFFFFFFFFFFFFFFFFFFFFFFFFFFFFFFFF AND DUP2 MSTORE PUSH1 0x20 ADD SWAP1 DUP2 MSTORE PUSH1 0x20 ADD PUSH0 KECCAK256 PUSH0 SWAP1 SLOAD SWAP1 PUSH2 0x100 EXP SWAP1 DIV PUSH1 0xFF AND PUSH2 0x16AD JUMPI PUSH1 0x40 MLOAD PUSH32 0x8C379A000000000000000000000000000000000000000000000000000000000 DUP2 MSTORE PUSH1 0x4 ADD PUSH2 0x16A4 SWAP1 PUSH2 0x1F5E JUMP JUMPDEST PUSH1 0x40 MLOAD DUP1 SWAP2 SUB SWAP1 REVERT JUMPDEST PUSH0 PUSH0 PUSH0 CALLER PUSH20 0xFFFFFFFFFFFFFFFFFFFFFFFFFFFFFFFFFFFFFFFF AND PUSH20 0xFFFFFFFFFFFFFFFFFFFFFFFFFFFFFFFFFFFFFFFF AND DUP2 MSTORE PUSH1 0x20 ADD SWAP1 DUP2 MSTORE PUSH1 0x20 ADD PUSH0 KECCAK256 SWAP1 POP DUP3 DUP2 PUSH1 0x5 ADD PUSH0 DUP3 DUP3 SLOAD PUSH2 0x16FF SWAP2 SWAP1 PUSH2 0x25C1 JUMP JUMPDEST SWAP3 POP POP DUP2 SWAP1 SSTORE POP DUP2 DUP2 PUSH1 0x6 ADD PUSH0 DUP3 DUP3 SLOAD PUSH2 0x1719 SWAP2 SWAP1 PUSH2 0x25C1 JUMP JUMPDEST SWAP3 POP POP DUP2 SWAP1 SSTORE POP CALLER PUSH20 0xFFFFFFFFFFFFFFFFFFFFFFFFFFFFFFFFFFFFFFFF AND PUSH32 0x27909057BAD6CE6FC50ECEA73759A0DA1EC7790BBB0144577BF31372A78B3E64 DUP5 DUP5 PUSH1 0x40 MLOAD PUSH2 0x1768 SWAP3 SWAP2 SWAP1 PUSH2 0x259A JUMP JUMPDEST PUSH1 0x40 MLOAD DUP1 SWAP2 SUB SWAP1 LOG2 POP POP POP JUMP JUMPDEST PUSH1 0x60 PUSH0 DUP3 SUB PUSH2 0x17BB JUMPI PUSH1 0x40 MLOAD DUP1 PUSH1 0x40 ADD PUSH1 0x40 MSTORE DUP1 PUSH1 0x1 DUP2 MSTORE PUSH1 0x20 ADD PUSH32 0x3000000000000000000000000000000000000000000000000000000000000000 DUP2 MSTORE POP SWAP1 POP PUSH2 0x18C9 JUMP JUMPDEST PUSH0 DUP3 SWAP1 POP PUSH0 JUMPDEST PUSH0 DUP3 EQ PUSH2 0x17EA JUMPI DUP1 DUP1 PUSH2 0x17D3 SWAP1 PUSH2 0x25F4 JUMP JUMPDEST SWAP2 POP POP PUSH1 0xA DUP3 PUSH2 0x17E3 SWAP2 SWAP1 PUSH2 0x2668 JUMP JUMPDEST SWAP2 POP PUSH2 0x17C1 JUMP JUMPDEST PUSH0 DUP2 PUSH8 0xFFFFFFFFFFFFFFFF DUP2 GT ISZERO PUSH2 0x1805 JUMPI PUSH2 0x1804 PUSH2 0x1970 JUMP JUMPDEST JUMPDEST PUSH1 0x40 MLOAD SWAP1 DUP1 DUP3 MSTORE DUP1 PUSH1 0x1F ADD PUSH1 0x1F NOT AND PUSH1 0x20 ADD DUP3 ADD PUSH1 0x40 MSTORE DUP1 ISZERO PUSH2 0x1837 JUMPI DUP2 PUSH1 0x20 ADD PUSH1 0x1 DUP3 MUL DUP1 CALLDATASIZE DUP4 CALLDATACOPY DUP1 DUP3 ADD SWAP2 POP POP SWAP1 POP JUMPDEST POP SWAP1 POP JUMPDEST PUSH0 DUP6 EQ PUSH2 0x18C2 JUMPI PUSH1 0x1 DUP3 PUSH2 0x184F SWAP2 SWAP1 PUSH2 0x2558 JUMP JUMPDEST SWAP2 POP PUSH1 0xA DUP6 PUSH2 0x185E SWAP2 SWAP1 PUSH2 0x2698 JUMP JUMPDEST PUSH1 0x30 PUSH2 0x186A SWAP2 SWAP1 PUSH2 0x25C1 JUMP JUMPDEST PUSH1 0xF8 SHL DUP2 DUP4 DUP2 MLOAD DUP2 LT PUSH2 0x1880 JUMPI PUSH2 0x187F PUSH2 0x26C8 JUMP JUMPDEST JUMPDEST PUSH1 0x20 ADD ADD SWAP1 PUSH31 0xFFFFFFFFFFFFFFFFFFFFFFFFFFFFFFFFFFFFFFFFFFFFFFFFFFFFFFFFFFFFFF NOT AND SWAP1 DUP2 PUSH0 BYTE SWAP1 MSTORE8 POP PUSH1 0xA DUP6 PUSH2 0x18BB SWAP2 SWAP1 PUSH2 0x2668 JUMP JUMPDEST SWAP5 POP PUSH2 0x183B JUMP JUMPDEST DUP1 SWAP4 POP POP POP POP JUMPDEST SWAP2 SWAP1 POP JUMP JUMPDEST PUSH1 0x40 MLOAD DUP1 PUSH2 0x1A0 ADD PUSH1 0x40 MSTORE DUP1 PUSH1 0x60 DUP2 MSTORE PUSH1 0x20 ADD PUSH1 0x60 DUP2 MSTORE PUSH1 0x20 ADD PUSH1 0x60 DUP2 MSTORE PUSH1 0x20 ADD PUSH0 DUP2 MSTORE PUSH1 0x20 ADD PUSH0 DUP2 MSTORE PUSH1 0x20 ADD PUSH0 DUP2 MSTORE PUSH1 0x20 ADD PUSH0 DUP2 MSTORE PUSH1 0x20 ADD PUSH1 0x60 DUP2 MSTORE PUSH1 0x20 ADD PUSH1 0x60 DUP2 MSTORE PUSH1 0x20 ADD PUSH1 0x60 DUP2 MSTORE PUSH1 0x20 ADD PUSH1 0x60 DUP2 MSTORE PUSH1 0x20 ADD PUSH1 0x60 DUP2 MSTORE PUSH1 0x20 ADD PUSH0 PUSH20 0xFFFFFFFFFFFFFFFFFFFFFFFFFFFFFFFFFFFFFFFF AND DUP2 MSTORE POP SWAP1 JUMP JUMPDEST PUSH0 PUSH1 0x40 MLOAD SWAP1 POP SWAP1 JUMP JUMPDEST PUSH0 PUSH0 REVERT JUMPDEST PUSH0 PUSH0 REVERT JUMPDEST PUSH0 PUSH0 REVERT JUMPDEST PUSH0 PUSH0 REVERT JUMPDEST PUSH0 PUSH1 0x1F NOT PUSH1 0x1F DUP4 ADD AND SWAP1 POP SWAP2 SWAP1 POP JUMP JUMPDEST PUSH32 0x4E487B7100000000000000000000000000000000000000000000000000000000 PUSH0 MSTORE PUSH1 0x41 PUSH1 0x4 MSTORE PUSH1 0x24 PUSH0 REVERT JUMPDEST PUSH2 0x19A6 DUP3 PUSH2 0x1960 JUMP JUMPDEST DUP2 ADD DUP2 DUP2 LT PUSH8 0xFFFFFFFFFFFFFFFF DUP3 GT OR ISZERO PUSH2 0x19C5 JUMPI PUSH2 0x19C4 PUSH2 0x1970 JUMP JUMPDEST JUMPDEST DUP1 PUSH1 0x40 MSTORE POP POP POP JUMP JUMPDEST PUSH0 PUSH2 0x19D7 PUSH2 0x1947 JUMP JUMPDEST SWAP1 POP PUSH2 0x19E3 DUP3 DUP3 PUSH2 0x199D JUMP JUMPDEST SWAP2 SWAP1 POP JUMP JUMPDEST PUSH0 PUSH8 0xFFFFFFFFFFFFFFFF DUP3 GT ISZERO PUSH2 0x1A02 JUMPI PUSH2 0x1A01 PUSH2 0x1970 JUMP JUMPDEST JUMPDEST PUSH2 0x1A0B DUP3 PUSH2 0x1960 JUMP JUMPDEST SWAP1 POP PUSH1 0x20 DUP2 ADD SWAP1 POP SWAP2 SWAP1 POP JUMP JUMPDEST DUP3 DUP2 DUP4 CALLDATACOPY PUSH0 DUP4 DUP4 ADD MSTORE POP POP POP JUMP JUMPDEST PUSH0 PUSH2 0x1A38 PUSH2 0x1A33 DUP5 PUSH2 0x19E8 JUMP JUMPDEST PUSH2 0x19CE JUMP JUMPDEST SWAP1 POP DUP3 DUP2 MSTORE PUSH1 0x20 DUP2 ADD DUP5 DUP5 DUP5 ADD GT ISZERO PUSH2 0x1A54 JUMPI PUSH2 0x1A53 PUSH2 0x195C JUMP JUMPDEST JUMPDEST PUSH2 0x1A5F DUP5 DUP3 DUP6 PUSH2 0x1A18 JUMP JUMPDEST POP SWAP4 SWAP3 POP POP POP JUMP JUMPDEST PUSH0 DUP3 PUSH1 0x1F DUP4 ADD SLT PUSH2 0x1A7B JUMPI PUSH2 0x1A7A PUSH2 0x1958 JUMP JUMPDEST JUMPDEST DUP2 CALLDATALOAD PUSH2 0x1A8B DUP5 DUP3 PUSH1 0x20 DUP7 ADD PUSH2 0x1A26 JUMP JUMPDEST SWAP2 POP POP SWAP3 SWAP2 POP POP JUMP JUMPDEST PUSH0 PUSH1 0x20 DUP3 DUP5 SUB SLT ISZERO PUSH2 0x1AA9 JUMPI PUSH2 0x1AA8 PUSH2 0x1950 JUMP JUMPDEST JUMPDEST PUSH0 DUP3 ADD CALLDATALOAD PUSH8 0xFFFFFFFFFFFFFFFF DUP2 GT ISZERO PUSH2 0x1AC6 JUMPI PUSH2 0x1AC5 PUSH2 0x1954 JUMP JUMPDEST JUMPDEST PUSH2 0x1AD2 DUP5 DUP3 DUP6 ADD PUSH2 0x1A67 JUMP JUMPDEST SWAP2 POP POP SWAP3 SWAP2 POP POP JUMP JUMPDEST PUSH0 DUP2 MLOAD SWAP1 POP SWAP2 SWAP1 POP JUMP JUMPDEST PUSH0 DUP3 DUP3 MSTORE PUSH1 0x20 DUP3 ADD SWAP1 POP SWAP3 SWAP2 POP POP JUMP JUMPDEST PUSH0 JUMPDEST DUP4 DUP2 LT ISZERO PUSH2 0x1B12 JUMPI DUP1 DUP3 ADD MLOAD DUP2 DUP5 ADD MSTORE PUSH1 0x20 DUP2 ADD SWAP1 POP PUSH2 0x1AF7 JUMP JUMPDEST PUSH0 DUP5 DUP5 ADD MSTORE POP POP POP POP JUMP JUMPDEST PUSH0 PUSH2 0x1B27 DUP3 PUSH2 0x1ADB JUMP JUMPDEST PUSH2 0x1B31 DUP2 DUP6 PUSH2 0x1AE5 JUMP JUMPDEST SWAP4 POP PUSH2 0x1B41 DUP2 DUP6 PUSH1 0x20 DUP7 ADD PUSH2 0x1AF5 JUMP JUMPDEST PUSH2 0x1B4A DUP2 PUSH2 0x1960 JUMP JUMPDEST DUP5 ADD SWAP2 POP POP SWAP3 SWAP2 POP POP JUMP JUMPDEST PUSH0 DUP2 SWAP1 POP SWAP2 SWAP1 POP JUMP JUMPDEST PUSH2 0x1B67 DUP2 PUSH2 0x1B55 JUMP JUMPDEST DUP3 MSTORE POP POP JUMP JUMPDEST PUSH0 PUSH20 0xFFFFFFFFFFFFFFFFFFFFFFFFFFFFFFFFFFFFFFFF DUP3 AND SWAP1 POP SWAP2 SWAP1 POP JUMP JUMPDEST PUSH0 PUSH2 0x1B96 DUP3 PUSH2 0x1B6D JUMP JUMPDEST SWAP1 POP SWAP2 SWAP1 POP JUMP JUMPDEST PUSH2 0x1BA6 DUP2 PUSH2 0x1B8C JUMP JUMPDEST DUP3 MSTORE POP POP JUMP JUMPDEST PUSH0 PUSH2 0x1A0 DUP4 ADD PUSH0 DUP4 ADD MLOAD DUP5 DUP3 SUB PUSH0 DUP7 ADD MSTORE PUSH2 0x1BC7 DUP3 DUP3 PUSH2 0x1B1D JUMP JUMPDEST SWAP2 POP POP PUSH1 0x20 DUP4 ADD MLOAD DUP5 DUP3 SUB PUSH1 0x20 DUP7 ADD MSTORE PUSH2 0x1BE1 DUP3 DUP3 PUSH2 0x1B1D JUMP JUMPDEST SWAP2 POP POP PUSH1 0x40 DUP4 ADD MLOAD DUP5 DUP3 SUB PUSH1 0x40 DUP7 ADD MSTORE PUSH2 0x1BFB DUP3 DUP3 PUSH2 0x1B1D JUMP JUMPDEST SWAP2 POP POP PUSH1 0x60 DUP4 ADD MLOAD PUSH2 0x1C10 PUSH1 0x60 DUP7 ADD DUP3 PUSH2 0x1B5E JUMP JUMPDEST POP PUSH1 0x80 DUP4 ADD MLOAD PUSH2 0x1C23 PUSH1 0x80 DUP7 ADD DUP3 PUSH2 0x1B5E JUMP JUMPDEST POP PUSH1 0xA0 DUP4 ADD MLOAD PUSH2 0x1C36 PUSH1 0xA0 DUP7 ADD DUP3 PUSH2 0x1B5E JUMP JUMPDEST POP PUSH1 0xC0 DUP4 ADD MLOAD PUSH2 0x1C49 PUSH1 0xC0 DUP7 ADD DUP3 PUSH2 0x1B5E JUMP JUMPDEST POP PUSH1 0xE0 DUP4 ADD MLOAD DUP5 DUP3 SUB PUSH1 0xE0 DUP7 ADD MSTORE PUSH2 0x1C61 DUP3 DUP3 PUSH2 0x1B1D JUMP JUMPDEST SWAP2 POP POP PUSH2 0x100 DUP4 ADD MLOAD DUP5 DUP3 SUB PUSH2 0x100 DUP7 ADD MSTORE PUSH2 0x1C7D DUP3 DUP3 PUSH2 0x1B1D JUMP JUMPDEST SWAP2 POP POP PUSH2 0x120 DUP4 ADD MLOAD DUP5 DUP3 SUB PUSH2 0x120 DUP7 ADD MSTORE PUSH2 0x1C99 DUP3 DUP3 PUSH2 0x1B1D JUMP JUMPDEST SWAP2 POP POP PUSH2 0x140 DUP4 ADD MLOAD DUP5 DUP3 SUB PUSH2 0x140 DUP7 ADD MSTORE PUSH2 0x1CB5 DUP3 DUP3 PUSH2 0x1B1D JUMP JUMPDEST SWAP2 POP POP PUSH2 0x160 DUP4 ADD MLOAD DUP5 DUP3 SUB PUSH2 0x160 DUP7 ADD MSTORE PUSH2 0x1CD1 DUP3 DUP3 PUSH2 0x1B1D JUMP JUMPDEST SWAP2 POP POP PUSH2 0x180 DUP4 ADD MLOAD PUSH2 0x1CE8 PUSH2 0x180 DUP7 ADD DUP3 PUSH2 0x1B9D JUMP JUMPDEST POP DUP1 SWAP2 POP POP SWAP3 SWAP2 POP POP JUMP JUMPDEST PUSH0 PUSH1 0x20 DUP3 ADD SWAP1 POP DUP2 DUP2 SUB PUSH0 DUP4 ADD MSTORE PUSH2 0x1D0B DUP2 DUP5 PUSH2 0x1BAC JUMP JUMPDEST SWAP1 POP SWAP3 SWAP2 POP POP JUMP JUMPDEST PUSH0 PUSH0 PUSH0 PUSH0 PUSH0 PUSH0 PUSH0 PUSH1 0xE0 DUP9 DUP11 SUB SLT ISZERO PUSH2 0x1D2E JUMPI PUSH2 0x1D2D PUSH2 0x1950 JUMP JUMPDEST JUMPDEST PUSH0 DUP9 ADD CALLDATALOAD PUSH8 0xFFFFFFFFFFFFFFFF DUP2 GT ISZERO PUSH2 0x1D4B JUMPI PUSH2 0x1D4A PUSH2 0x1954 JUMP JUMPDEST JUMPDEST PUSH2 0x1D57 DUP11 DUP3 DUP12 ADD PUSH2 0x1A67 JUMP JUMPDEST SWAP8 POP POP PUSH1 0x20 DUP9 ADD CALLDATALOAD PUSH8 0xFFFFFFFFFFFFFFFF DUP2 GT ISZERO PUSH2 0x1D78 JUMPI PUSH2 0x1D77 PUSH2 0x1954 JUMP JUMPDEST JUMPDEST PUSH2 0x1D84 DUP11 DUP3 DUP12 ADD PUSH2 0x1A67 JUMP JUMPDEST SWAP7 POP POP PUSH1 0x40 DUP9 ADD CALLDATALOAD PUSH8 0xFFFFFFFFFFFFFFFF DUP2 GT ISZERO PUSH2 0x1DA5 JUMPI PUSH2 0x1DA4 PUSH2 0x1954 JUMP JUMPDEST JUMPDEST PUSH2 0x1DB1 DUP11 DUP3 DUP12 ADD PUSH2 0x1A67 JUMP JUMPDEST SWAP6 POP POP PUSH1 0x60 DUP9 ADD CALLDATALOAD PUSH8 0xFFFFFFFFFFFFFFFF DUP2 GT ISZERO PUSH2 0x1DD2 JUMPI PUSH2 0x1DD1 PUSH2 0x1954 JUMP JUMPDEST JUMPDEST PUSH2 0x1DDE DUP11 DUP3 DUP12 ADD PUSH2 0x1A67 JUMP JUMPDEST SWAP5 POP POP PUSH1 0x80 DUP9 ADD CALLDATALOAD PUSH8 0xFFFFFFFFFFFFFFFF DUP2 GT ISZERO PUSH2 0x1DFF JUMPI PUSH2 0x1DFE PUSH2 0x1954 JUMP JUMPDEST JUMPDEST PUSH2 0x1E0B DUP11 DUP3 DUP12 ADD PUSH2 0x1A67 JUMP JUMPDEST SWAP4 POP POP PUSH1 0xA0 DUP9 ADD CALLDATALOAD PUSH8 0xFFFFFFFFFFFFFFFF DUP2 GT ISZERO PUSH2 0x1E2C JUMPI PUSH2 0x1E2B PUSH2 0x1954 JUMP JUMPDEST JUMPDEST PUSH2 0x1E38 DUP11 DUP3 DUP12 ADD PUSH2 0x1A67 JUMP JUMPDEST SWAP3 POP POP PUSH1 0xC0 DUP9 ADD CALLDATALOAD PUSH8 0xFFFFFFFFFFFFFFFF DUP2 GT ISZERO PUSH2 0x1E59 JUMPI PUSH2 0x1E58 PUSH2 0x1954 JUMP JUMPDEST JUMPDEST PUSH2 0x1E65 DUP11 DUP3 DUP12 ADD PUSH2 0x1A67 JUMP JUMPDEST SWAP2 POP POP SWAP3 SWAP6 SWAP9 SWAP2 SWAP5 SWAP8 POP SWAP3 SWAP6 POP JUMP JUMPDEST PUSH2 0x1E7D DUP2 PUSH2 0x1B55 JUMP JUMPDEST DUP2 EQ PUSH2 0x1E87 JUMPI PUSH0 PUSH0 REVERT JUMPDEST POP JUMP JUMPDEST PUSH0 DUP2 CALLDATALOAD SWAP1 POP PUSH2 0x1E98 DUP2 PUSH2 0x1E74 JUMP JUMPDEST SWAP3 SWAP2 POP POP JUMP JUMPDEST PUSH0 PUSH0 PUSH1 0x40 DUP4 DUP6 SUB SLT ISZERO PUSH2 0x1EB4 JUMPI PUSH2 0x1EB3 PUSH2 0x1950 JUMP JUMPDEST JUMPDEST PUSH0 PUSH2 0x1EC1 DUP6 DUP3 DUP7 ADD PUSH2 0x1E8A JUMP JUMPDEST SWAP3 POP POP PUSH1 0x20 PUSH2 0x1ED2 DUP6 DUP3 DUP7 ADD PUSH2 0x1E8A JUMP JUMPDEST SWAP2 POP POP SWAP3 POP SWAP3 SWAP1 POP JUMP JUMPDEST PUSH2 0x1EE5 DUP2 PUSH2 0x1B8C JUMP JUMPDEST DUP3 MSTORE POP POP JUMP JUMPDEST PUSH0 PUSH1 0x20 DUP3 ADD SWAP1 POP PUSH2 0x1EFE PUSH0 DUP4 ADD DUP5 PUSH2 0x1EDC JUMP JUMPDEST SWAP3 SWAP2 POP POP JUMP JUMPDEST PUSH0 DUP3 DUP3 MSTORE PUSH1 0x20 DUP3 ADD SWAP1 POP SWAP3 SWAP2 POP POP JUMP JUMPDEST PUSH32 0x55736572206E6F7420726567697374657265642E000000000000000000000000 PUSH0 DUP3 ADD MSTORE POP JUMP JUMPDEST PUSH0 PUSH2 0x1F48 PUSH1 0x14 DUP4 PUSH2 0x1F04 JUMP JUMPDEST SWAP2 POP PUSH2 0x1F53 DUP3 PUSH2 0x1F14 JUMP JUMPDEST PUSH1 0x20 DUP3 ADD SWAP1 POP SWAP2 SWAP1 POP JUMP JUMPDEST PUSH0 PUSH1 0x20 DUP3 ADD SWAP1 POP DUP2 DUP2 SUB PUSH0 DUP4 ADD MSTORE PUSH2 0x1F75 DUP2 PUSH2 0x1F3C JUMP JUMPDEST SWAP1 POP SWAP2 SWAP1 POP JUMP JUMPDEST PUSH32 0x4E487B7100000000000000000000000000000000000000000000000000000000 PUSH0 MSTORE PUSH1 0x22 PUSH1 0x4 MSTORE PUSH1 0x24 PUSH0 REVERT JUMPDEST PUSH0 PUSH1 0x2 DUP3 DIV SWAP1 POP PUSH1 0x1 DUP3 AND DUP1 PUSH2 0x1FC0 JUMPI PUSH1 0x7F DUP3 AND SWAP2 POP JUMPDEST PUSH1 0x20 DUP3 LT DUP2 SUB PUSH2 0x1FD3 JUMPI PUSH2 0x1FD2 PUSH2 0x1F7C JUMP JUMPDEST JUMPDEST POP SWAP2 SWAP1 POP JUMP JUMPDEST PUSH0 DUP2 SWAP1 POP DUP2 PUSH0 MSTORE PUSH1 0x20 PUSH0 KECCAK256 SWAP1 POP SWAP2 SWAP1 POP JUMP JUMPDEST PUSH0 PUSH1 0x20 PUSH1 0x1F DUP4 ADD DIV SWAP1 POP SWAP2 SWAP1 POP JUMP JUMPDEST PUSH0 DUP3 DUP3 SHL SWAP1 POP SWAP3 SWAP2 POP POP JUMP JUMPDEST PUSH0 PUSH1 0x8 DUP4 MUL PUSH2 0x2035 PUSH32 0xFFFFFFFFFFFFFFFFFFFFFFFFFFFFFFFFFFFFFFFFFFFFFFFFFFFFFFFFFFFFFFFF DUP3 PUSH2 0x1FFA JUMP JUMPDEST PUSH2 0x203F DUP7 DUP4 PUSH2 0x1FFA JUMP JUMPDEST SWAP6 POP DUP1 NOT DUP5 AND SWAP4 POP DUP1 DUP7 AND DUP5 OR SWAP3 POP POP POP SWAP4 SWAP3 POP POP POP JUMP JUMPDEST PUSH0 DUP2 SWAP1 POP SWAP2 SWAP1 POP JUMP JUMPDEST PUSH0 PUSH2 0x207A PUSH2 0x2075 PUSH2 0x2070 DUP5 PUSH2 0x1B55 JUMP JUMPDEST PUSH2 0x2057 JUMP JUMPDEST PUSH2 0x1B55 JUMP JUMPDEST SWAP1 POP SWAP2 SWAP1 POP JUMP JUMPDEST PUSH0 DUP2 SWAP1 POP SWAP2 SWAP1 POP JUMP JUMPDEST PUSH2 0x2093 DUP4 PUSH2 0x2060 JUMP JUMPDEST PUSH2 0x20A7 PUSH2 0x209F DUP3 PUSH2 0x2081 JUMP JUMPDEST DUP5 DUP5 SLOAD PUSH2 0x2006 JUMP JUMPDEST DUP3 SSTORE POP POP POP POP JUMP JUMPDEST PUSH0 PUSH0 SWAP1 POP SWAP1 JUMP JUMPDEST PUSH2 0x20BE PUSH2 0x20AF JUMP JUMPDEST PUSH2 0x20C9 DUP2 DUP5 DUP5 PUSH2 0x208A JUMP JUMPDEST POP POP POP JUMP JUMPDEST JUMPDEST DUP2 DUP2 LT ISZERO PUSH2 0x20EC JUMPI PUSH2 0x20E1 PUSH0 DUP3 PUSH2 0x20B6 JUMP JUMPDEST PUSH1 0x1 DUP2 ADD SWAP1 POP PUSH2 0x20CF JUMP JUMPDEST POP POP JUMP JUMPDEST PUSH1 0x1F DUP3 GT ISZERO PUSH2 0x2131 JUMPI PUSH2 0x2102 DUP2 PUSH2 0x1FD9 JUMP JUMPDEST PUSH2 0x210B DUP5 PUSH2 0x1FEB JUMP JUMPDEST DUP2 ADD PUSH1 0x20 DUP6 LT ISZERO PUSH2 0x211A JUMPI DUP2 SWAP1 POP JUMPDEST PUSH2 0x212E PUSH2 0x2126 DUP6 PUSH2 0x1FEB JUMP JUMPDEST DUP4 ADD DUP3 PUSH2 0x20CE JUMP JUMPDEST POP POP JUMPDEST POP POP POP JUMP JUMPDEST PUSH0 DUP3 DUP3 SHR SWAP1 POP SWAP3 SWAP2 POP POP JUMP JUMPDEST PUSH0 PUSH2 0x2151 PUSH0 NOT DUP5 PUSH1 0x8 MUL PUSH2 0x2136 JUMP JUMPDEST NOT DUP1 DUP4 AND SWAP2 POP POP SWAP3 SWAP2 POP POP JUMP JUMPDEST PUSH0 PUSH2 0x2169 DUP4 DUP4 PUSH2 0x2142 JUMP JUMPDEST SWAP2 POP DUP3 PUSH1 0x2 MUL DUP3 OR SWAP1 POP SWAP3 SWAP2 POP POP JUMP JUMPDEST PUSH2 0x2182 DUP3 PUSH2 0x1ADB JUMP JUMPDEST PUSH8 0xFFFFFFFFFFFFFFFF DUP2 GT ISZERO PUSH2 0x219B JUMPI PUSH2 0x219A PUSH2 0x1970 JUMP JUMPDEST JUMPDEST PUSH2 0x21A5 DUP3 SLOAD PUSH2 0x1FA9 JUMP JUMPDEST PUSH2 0x21B0 DUP3 DUP3 DUP6 PUSH2 0x20F0 JUMP JUMPDEST PUSH0 PUSH1 0x20 SWAP1 POP PUSH1 0x1F DUP4 GT PUSH1 0x1 DUP2 EQ PUSH2 0x21E1 JUMPI PUSH0 DUP5 ISZERO PUSH2 0x21CF JUMPI DUP3 DUP8 ADD MLOAD SWAP1 POP JUMPDEST PUSH2 0x21D9 DUP6 DUP3 PUSH2 0x215E JUMP JUMPDEST DUP7 SSTORE POP PUSH2 0x2240 JUMP JUMPDEST PUSH1 0x1F NOT DUP5 AND PUSH2 0x21EF DUP7 PUSH2 0x1FD9 JUMP JUMPDEST PUSH0 JUMPDEST DUP3 DUP2 LT ISZERO PUSH2 0x2216 JUMPI DUP5 DUP10 ADD MLOAD DUP3 SSTORE PUSH1 0x1 DUP3 ADD SWAP2 POP PUSH1 0x20 DUP6 ADD SWAP5 POP PUSH1 0x20 DUP2 ADD SWAP1 POP PUSH2 0x21F1 JUMP JUMPDEST DUP7 DUP4 LT ISZERO PUSH2 0x2233 JUMPI DUP5 DUP10 ADD MLOAD PUSH2 0x222F PUSH1 0x1F DUP10 AND DUP3 PUSH2 0x2142 JUMP JUMPDEST DUP4 SSTORE POP JUMPDEST PUSH1 0x1 PUSH1 0x2 DUP9 MUL ADD DUP9 SSTORE POP POP POP JUMPDEST POP POP POP POP POP POP JUMP JUMPDEST PUSH0 DUP2 SLOAD PUSH2 0x2254 DUP2 PUSH2 0x1FA9 JUMP JUMPDEST PUSH2 0x225E DUP2 DUP7 PUSH2 0x1F04 JUMP JUMPDEST SWAP5 POP PUSH1 0x1 DUP3 AND PUSH0 DUP2 EQ PUSH2 0x2278 JUMPI PUSH1 0x1 DUP2 EQ PUSH2 0x228E JUMPI PUSH2 0x22C0 JUMP JUMPDEST PUSH1 0xFF NOT DUP4 AND DUP7 MSTORE DUP2 ISZERO ISZERO PUSH1 0x20 MUL DUP7 ADD SWAP4 POP PUSH2 0x22C0 JUMP JUMPDEST PUSH2 0x2297 DUP6 PUSH2 0x1FD9 JUMP JUMPDEST PUSH0 JUMPDEST DUP4 DUP2 LT ISZERO PUSH2 0x22B8 JUMPI DUP2 SLOAD DUP2 DUP10 ADD MSTORE PUSH1 0x1 DUP3 ADD SWAP2 POP PUSH1 0x20 DUP2 ADD SWAP1 POP PUSH2 0x2299 JUMP JUMPDEST DUP1 DUP9 ADD SWAP6 POP POP POP JUMPDEST POP POP POP SWAP3 SWAP2 POP POP JUMP JUMPDEST PUSH0 PUSH1 0x20 DUP3 ADD SWAP1 POP DUP2 DUP2 SUB PUSH0 DUP4 ADD MSTORE PUSH2 0x22E1 DUP2 DUP5 PUSH2 0x2248 JUMP JUMPDEST SWAP1 POP SWAP3 SWAP2 POP POP JUMP JUMPDEST PUSH32 0x5573657220616C726561647920726567697374657265642E0000000000000000 PUSH0 DUP3 ADD MSTORE POP JUMP JUMPDEST PUSH0 PUSH2 0x231D PUSH1 0x18 DUP4 PUSH2 0x1F04 JUMP JUMPDEST SWAP2 POP PUSH2 0x2328 DUP3 PUSH2 0x22E9 JUMP JUMPDEST PUSH1 0x20 DUP3 ADD SWAP1 POP SWAP2 SWAP1 POP JUMP JUMPDEST PUSH0 PUSH1 0x20 DUP3 ADD SWAP1 POP DUP2 DUP2 SUB PUSH0 DUP4 ADD MSTORE PUSH2 0x234A DUP2 PUSH2 0x2311 JUMP JUMPDEST SWAP1 POP SWAP2 SWAP1 POP JUMP JUMPDEST PUSH0 DUP2 SWAP1 POP SWAP3 SWAP2 POP POP JUMP JUMPDEST PUSH0 PUSH2 0x2365 DUP3 PUSH2 0x1ADB JUMP JUMPDEST PUSH2 0x236F DUP2 DUP6 PUSH2 0x2351 JUMP JUMPDEST SWAP4 POP PUSH2 0x237F DUP2 DUP6 PUSH1 0x20 DUP7 ADD PUSH2 0x1AF5 JUMP JUMPDEST DUP1 DUP5 ADD SWAP2 POP POP SWAP3 SWAP2 POP POP JUMP JUMPDEST PUSH32 0x5F00000000000000000000000000000000000000000000000000000000000000 PUSH0 DUP3 ADD MSTORE POP JUMP JUMPDEST PUSH0 PUSH2 0x23BF PUSH1 0x1 DUP4 PUSH2 0x2351 JUMP JUMPDEST SWAP2 POP PUSH2 0x23CA DUP3 PUSH2 0x238B JUMP JUMPDEST PUSH1 0x1 DUP3 ADD SWAP1 POP SWAP2 SWAP1 POP JUMP JUMPDEST PUSH0 PUSH2 0x23E0 DUP3 DUP6 PUSH2 0x235B JUMP JUMPDEST SWAP2 POP PUSH2 0x23EB DUP3 PUSH2 0x23B3 JUMP JUMPDEST SWAP2 POP PUSH2 0x23F7 DUP3 DUP5 PUSH2 0x235B JUMP JUMPDEST SWAP2 POP DUP2 SWAP1 POP SWAP4 SWAP3 POP POP POP JUMP JUMPDEST PUSH0 PUSH2 0x240D DUP3 PUSH2 0x1ADB JUMP JUMPDEST PUSH2 0x2417 DUP2 DUP6 PUSH2 0x1F04 JUMP JUMPDEST SWAP4 POP PUSH2 0x2427 DUP2 DUP6 PUSH1 0x20 DUP7 ADD PUSH2 0x1AF5 JUMP JUMPDEST PUSH2 0x2430 DUP2 PUSH2 0x1960 JUMP JUMPDEST DUP5 ADD SWAP2 POP POP SWAP3 SWAP2 POP POP JUMP JUMPDEST PUSH0 PUSH1 0x20 DUP3 ADD SWAP1 POP DUP2 DUP2 SUB PUSH0 DUP4 ADD MSTORE PUSH2 0x2453 DUP2 DUP5 PUSH2 0x2403 JUMP JUMPDEST SWAP1 POP SWAP3 SWAP2 POP POP JUMP JUMPDEST PUSH32 0x496E73756666696369656E74204C5620706F696E74732E000000000000000000 PUSH0 DUP3 ADD MSTORE POP JUMP JUMPDEST PUSH0 PUSH2 0x248F PUSH1 0x17 DUP4 PUSH2 0x1F04 JUMP JUMPDEST SWAP2 POP PUSH2 0x249A DUP3 PUSH2 0x245B JUMP JUMPDEST PUSH1 0x20 DUP3 ADD SWAP1 POP SWAP2 SWAP1 POP JUMP JUMPDEST PUSH0 PUSH1 0x20 DUP3 ADD SWAP1 POP DUP2 DUP2 SUB PUSH0 DUP4 ADD MSTORE PUSH2 0x24BC DUP2 PUSH2 0x2483 JUMP JUMPDEST SWAP1 POP SWAP2 SWAP1 POP JUMP JUMPDEST PUSH32 0x496E73756666696369656E7420474720706F696E74732E000000000000000000 PUSH0 DUP3 ADD MSTORE POP JUMP JUMPDEST PUSH0 PUSH2 0x24F7 PUSH1 0x17 DUP4 PUSH2 0x1F04 JUMP JUMPDEST SWAP2 POP PUSH2 0x2502 DUP3 PUSH2 0x24C3 JUMP JUMPDEST PUSH1 0x20 DUP3 ADD SWAP1 POP SWAP2 SWAP1 POP JUMP JUMPDEST PUSH0 PUSH1 0x20 DUP3 ADD SWAP1 POP DUP2 DUP2 SUB PUSH0 DUP4 ADD MSTORE PUSH2 0x2524 DUP2 PUSH2 0x24EB JUMP JUMPDEST SWAP1 POP SWAP2 SWAP1 POP JUMP JUMPDEST PUSH32 0x4E487B7100000000000000000000000000000000000000000000000000000000 PUSH0 MSTORE PUSH1 0x11 PUSH1 0x4 MSTORE PUSH1 0x24 PUSH0 REVERT JUMPDEST PUSH0 PUSH2 0x2562 DUP3 PUSH2 0x1B55 JUMP JUMPDEST SWAP2 POP PUSH2 0x256D DUP4 PUSH2 0x1B55 JUMP JUMPDEST SWAP3 POP DUP3 DUP3 SUB SWAP1 POP DUP2 DUP2 GT ISZERO PUSH2 0x2585 JUMPI PUSH2 0x2584 PUSH2 0x252B JUMP JUMPDEST JUMPDEST SWAP3 SWAP2 POP POP JUMP JUMPDEST PUSH2 0x2594 DUP2 PUSH2 0x1B55 JUMP JUMPDEST DUP3 MSTORE POP POP JUMP JUMPDEST PUSH0 PUSH1 0x40 DUP3 ADD SWAP1 POP PUSH2 0x25AD PUSH0 DUP4 ADD DUP6 PUSH2 0x258B JUMP JUMPDEST PUSH2 0x25BA PUSH1 0x20 DUP4 ADD DUP5 PUSH2 0x258B JUMP JUMPDEST SWAP4 SWAP3 POP POP POP JUMP JUMPDEST PUSH0 PUSH2 0x25CB DUP3 PUSH2 0x1B55 JUMP JUMPDEST SWAP2 POP PUSH2 0x25D6 DUP4 PUSH2 0x1B55 JUMP JUMPDEST SWAP3 POP DUP3 DUP3 ADD SWAP1 POP DUP1 DUP3 GT ISZERO PUSH2 0x25EE JUMPI PUSH2 0x25ED PUSH2 0x252B JUMP JUMPDEST JUMPDEST SWAP3 SWAP2 POP POP JUMP JUMPDEST PUSH0 PUSH2 0x25FE DUP3 PUSH2 0x1B55 JUMP JUMPDEST SWAP2 POP PUSH32 0xFFFFFFFFFFFFFFFFFFFFFFFFFFFFFFFFFFFFFFFFFFFFFFFFFFFFFFFFFFFFFFFF DUP3 SUB PUSH2 0x2630 JUMPI PUSH2 0x262F PUSH2 0x252B JUMP JUMPDEST JUMPDEST PUSH1 0x1 DUP3 ADD SWAP1 POP SWAP2 SWAP1 POP JUMP JUMPDEST PUSH32 0x4E487B7100000000000000000000000000000000000000000000000000000000 PUSH0 MSTORE PUSH1 0x12 PUSH1 0x4 MSTORE PUSH1 0x24 PUSH0 REVERT JUMPDEST PUSH0 PUSH2 0x2672 DUP3 PUSH2 0x1B55 JUMP JUMPDEST SWAP2 POP PUSH2 0x267D DUP4 PUSH2 0x1B55 JUMP JUMPDEST SWAP3 POP DUP3 PUSH2 0x268D JUMPI PUSH2 0x268C PUSH2 0x263B JUMP JUMPDEST JUMPDEST DUP3 DUP3 DIV SWAP1 POP SWAP3 SWAP2 POP POP JUMP JUMPDEST PUSH0 PUSH2 0x26A2 DUP3 PUSH2 0x1B55 JUMP JUMPDEST SWAP2 POP PUSH2 0x26AD DUP4 PUSH2 0x1B55 JUMP JUMPDEST SWAP3 POP DUP3 PUSH2 0x26BD JUMPI PUSH2 0x26BC PUSH2 0x263B JUMP JUMPDEST JUMPDEST DUP3 DUP3 MOD SWAP1 POP SWAP3 SWAP2 POP POP JUMP JUMPDEST PUSH32 0x4E487B7100000000000000000000000000000000000000000000000000000000 PUSH0 MSTORE PUSH1 0x32 PUSH1 0x4 MSTORE PUSH1 0x24 PUSH0 REVERT INVALID LOG2 PUSH5 0x6970667358 0x22 SLT KECCAK256 PUSH29 0x29C7053830DBE38D4525E83634619276A364486A48F60378DEEAB599ED 0xDB SWAP9 PUSH5 0x736F6C6343 STOP ADDMOD SHR STOP CALLER "
				},
				"gasEstimates": {
					"creation": {
						"codeDepositCost": "2005400",
						"executionCost": "2125",
						"totalCost": "2007525"
					},
					"external": {
						"addPoints(uint256,uint256)": "infinite",
						"createUserProfile(string,string,string,string,string,string,string)": "infinite",
						"getUserProfile()": "infinite",
						"getUserWalletAddress()": "4934",
						"removePoints(uint256,uint256)": "infinite",
						"updateBackground(string)": "infinite",
						"updateClass(string)": "infinite",
						"updateEmail(string)": "infinite",
						"updateGender(string)": "infinite",
						"updateNftImage(string)": "infinite",
						"updateRace(string)": "infinite",
						"updateUsername(string)": "infinite"
					},
					"internal": {
						"uint2str(uint256)": "infinite"
					}
				},
				"methodIdentifiers": {
					"addPoints(uint256,uint256)": "fe4651a0",
					"createUserProfile(string,string,string,string,string,string,string)": "70e997e2",
					"getUserProfile()": "6f61c744",
					"getUserWalletAddress()": "f5f6d70b",
					"removePoints(uint256,uint256)": "e0794800",
					"updateBackground(string)": "93de8386",
					"updateClass(string)": "f017625a",
					"updateEmail(string)": "f06099af",
					"updateGender(string)": "de293190",
					"updateNftImage(string)": "4fd05926",
					"updateRace(string)": "4f3b7de1",
					"updateUsername(string)": "c96cea70"
				}
			},
			"storageLayout": {
				"storage": [
					{
						"astId": 33,
						"contract": "Gamegrid.sol:GameGrid",
						"label": "userProfiles",
						"offset": 0,
						"slot": "0",
						"type": "t_mapping(t_address,t_struct(UserProfile)28_storage)"
					},
					{
						"astId": 37,
						"contract": "Gamegrid.sol:GameGrid",
						"label": "isRegistered",
						"offset": 0,
						"slot": "1",
						"type": "t_mapping(t_address,t_bool)"
					}
				],
				"types": {
					"t_address": {
						"encoding": "inplace",
						"label": "address",
						"numberOfBytes": "20"
					},
					"t_bool": {
						"encoding": "inplace",
						"label": "bool",
						"numberOfBytes": "1"
					},
					"t_mapping(t_address,t_bool)": {
						"encoding": "mapping",
						"key": "t_address",
						"label": "mapping(address => bool)",
						"numberOfBytes": "32",
						"value": "t_bool"
					},
					"t_mapping(t_address,t_struct(UserProfile)28_storage)": {
						"encoding": "mapping",
						"key": "t_address",
						"label": "mapping(address => struct GameGrid.UserProfile)",
						"numberOfBytes": "32",
						"value": "t_struct(UserProfile)28_storage"
					},
					"t_string_storage": {
						"encoding": "bytes",
						"label": "string",
						"numberOfBytes": "32"
					},
					"t_struct(UserProfile)28_storage": {
						"encoding": "inplace",
						"label": "struct GameGrid.UserProfile",
						"members": [
							{
								"astId": 3,
								"contract": "Gamegrid.sol:GameGrid",
								"label": "userId",
								"offset": 0,
								"slot": "0",
								"type": "t_string_storage"
							},
							{
								"astId": 5,
								"contract": "Gamegrid.sol:GameGrid",
								"label": "username",
								"offset": 0,
								"slot": "1",
								"type": "t_string_storage"
							},
							{
								"astId": 7,
								"contract": "Gamegrid.sol:GameGrid",
								"label": "email",
								"offset": 0,
								"slot": "2",
								"type": "t_string_storage"
							},
							{
								"astId": 9,
								"contract": "Gamegrid.sol:GameGrid",
								"label": "lastLoggedIn",
								"offset": 0,
								"slot": "3",
								"type": "t_uint256"
							},
							{
								"astId": 11,
								"contract": "Gamegrid.sol:GameGrid",
								"label": "joinedDate",
								"offset": 0,
								"slot": "4",
								"type": "t_uint256"
							},
							{
								"astId": 13,
								"contract": "Gamegrid.sol:GameGrid",
								"label": "lvPoints",
								"offset": 0,
								"slot": "5",
								"type": "t_uint256"
							},
							{
								"astId": 15,
								"contract": "Gamegrid.sol:GameGrid",
								"label": "ggPoints",
								"offset": 0,
								"slot": "6",
								"type": "t_uint256"
							},
							{
								"astId": 17,
								"contract": "Gamegrid.sol:GameGrid",
								"label": "class",
								"offset": 0,
								"slot": "7",
								"type": "t_string_storage"
							},
							{
								"astId": 19,
								"contract": "Gamegrid.sol:GameGrid",
								"label": "race",
								"offset": 0,
								"slot": "8",
								"type": "t_string_storage"
							},
							{
								"astId": 21,
								"contract": "Gamegrid.sol:GameGrid",
								"label": "gender",
								"offset": 0,
								"slot": "9",
								"type": "t_string_storage"
							},
							{
								"astId": 23,
								"contract": "Gamegrid.sol:GameGrid",
								"label": "background",
								"offset": 0,
								"slot": "10",
								"type": "t_string_storage"
							},
							{
								"astId": 25,
								"contract": "Gamegrid.sol:GameGrid",
								"label": "nftImage",
								"offset": 0,
								"slot": "11",
								"type": "t_string_storage"
							},
							{
								"astId": 27,
								"contract": "Gamegrid.sol:GameGrid",
								"label": "walletAddress",
								"offset": 0,
								"slot": "12",
								"type": "t_address"
							}
						],
						"numberOfBytes": "416"
					},
					"t_uint256": {
						"encoding": "inplace",
						"label": "uint256",
						"numberOfBytes": "32"
					}
				}
			},
			"userdoc": {
				"kind": "user",
				"methods": {},
				"version": 1
			}
		}
	}
}